{
  "_format": "hh-sol-artifact-1",
  "contractName": "LUCID",
  "sourceName": "contracts/LUCID.sol",
  "abi": [
    {
      "inputs": [],
      "stateMutability": "nonpayable",
      "type": "constructor"
    },
    {
      "inputs": [
        {
          "internalType": "address",
          "name": "owner",
          "type": "address"
        }
      ],
      "name": "OwnableInvalidOwner",
      "type": "error"
    },
    {
      "inputs": [
        {
          "internalType": "address",
          "name": "account",
          "type": "address"
        }
      ],
      "name": "OwnableUnauthorizedAccount",
      "type": "error"
    },
    {
      "anonymous": false,
      "inputs": [
        {
          "indexed": false,
          "internalType": "uint256[]",
          "name": "ids",
          "type": "uint256[]"
        },
        {
          "indexed": true,
          "internalType": "uint256",
          "name": "rootId",
          "type": "uint256"
        }
      ],
      "name": "IdentitiesLinked",
      "type": "event"
    },
    {
      "anonymous": false,
      "inputs": [
        {
          "indexed": true,
          "internalType": "uint256",
          "name": "identityId",
          "type": "uint256"
        },
        {
          "indexed": false,
          "internalType": "string",
          "name": "provider",
          "type": "string"
        },
        {
          "indexed": false,
          "internalType": "string",
          "name": "uid",
          "type": "string"
        },
        {
          "indexed": false,
          "internalType": "address",
          "name": "wallet",
          "type": "address"
        }
      ],
      "name": "IdentityCreated",
      "type": "event"
    },
    {
      "anonymous": false,
      "inputs": [
        {
          "indexed": true,
          "internalType": "address",
          "name": "previousOwner",
          "type": "address"
        },
        {
          "indexed": true,
          "internalType": "address",
          "name": "newOwner",
          "type": "address"
        }
      ],
      "name": "OwnershipTransferStarted",
      "type": "event"
    },
    {
      "anonymous": false,
      "inputs": [
        {
          "indexed": true,
          "internalType": "address",
          "name": "previousOwner",
          "type": "address"
        },
        {
          "indexed": true,
          "internalType": "address",
          "name": "newOwner",
          "type": "address"
        }
      ],
      "name": "OwnershipTransferred",
      "type": "event"
    },
    {
      "anonymous": false,
      "inputs": [
        {
          "indexed": true,
          "internalType": "uint256",
          "name": "identityId",
          "type": "uint256"
        },
        {
          "indexed": false,
          "internalType": "string",
          "name": "provider",
          "type": "string"
        },
        {
          "indexed": false,
          "internalType": "string",
          "name": "uid",
          "type": "string"
        }
      ],
      "name": "SocialAdded",
      "type": "event"
    },
    {
      "anonymous": false,
      "inputs": [
        {
          "indexed": true,
          "internalType": "uint256",
          "name": "identityId",
          "type": "uint256"
        },
        {
          "indexed": false,
          "internalType": "address",
          "name": "wallet",
          "type": "address"
        }
      ],
      "name": "WalletAdded",
      "type": "event"
    },
    {
      "inputs": [],
      "name": "acceptOwnership",
      "outputs": [],
      "stateMutability": "nonpayable",
      "type": "function"
    },
    {
      "inputs": [
        {
          "internalType": "uint256",
          "name": "id",
          "type": "uint256"
        }
      ],
      "name": "findRoot",
      "outputs": [
        {
          "internalType": "uint256",
          "name": "",
          "type": "uint256"
        }
      ],
      "stateMutability": "view",
      "type": "function"
    },
    {
      "inputs": [
        {
          "internalType": "uint256",
          "name": "id",
          "type": "uint256"
        }
      ],
      "name": "getFullAccount",
      "outputs": [
        {
          "internalType": "string",
          "name": "handle",
          "type": "string"
        },
        {
          "internalType": "address[]",
          "name": "wallets",
          "type": "address[]"
        },
        {
          "components": [
            {
              "internalType": "string",
              "name": "provider",
              "type": "string"
            },
            {
              "internalType": "string",
              "name": "uid",
              "type": "string"
            },
            {
              "internalType": "string",
              "name": "image",
              "type": "string"
            },
            {
              "internalType": "string",
              "name": "name",
              "type": "string"
            }
          ],
          "internalType": "struct LUCID.SocialProfile[]",
          "name": "socials",
          "type": "tuple[]"
        }
      ],
      "stateMutability": "view",
      "type": "function"
    },
    {
      "inputs": [
        {
          "internalType": "string",
          "name": "provider",
          "type": "string"
        },
        {
          "internalType": "string",
          "name": "uid",
          "type": "string"
        }
      ],
      "name": "getUserIdBySocial",
      "outputs": [
        {
          "internalType": "uint256",
          "name": "",
          "type": "uint256"
        }
      ],
      "stateMutability": "view",
      "type": "function"
    },
    {
      "inputs": [
        {
          "internalType": "address",
          "name": "wallet",
          "type": "address"
        }
      ],
      "name": "getUserIdByWallet",
      "outputs": [
        {
          "internalType": "uint256",
          "name": "",
          "type": "uint256"
        }
      ],
      "stateMutability": "view",
      "type": "function"
    },
    {
      "inputs": [
        {
          "internalType": "uint256",
          "name": "",
          "type": "uint256"
        }
      ],
      "name": "identities",
      "outputs": [
        {
          "internalType": "uint256",
          "name": "id",
          "type": "uint256"
        },
        {
          "internalType": "string",
          "name": "handle",
          "type": "string"
        }
      ],
      "stateMutability": "view",
      "type": "function"
    },
    {
      "inputs": [
        {
          "internalType": "uint256",
          "name": "",
          "type": "uint256"
        }
      ],
      "name": "identityGraph",
      "outputs": [
        {
          "internalType": "uint256",
          "name": "",
          "type": "uint256"
        }
      ],
      "stateMutability": "view",
      "type": "function"
    },
    {
      "inputs": [
        {
          "internalType": "uint256[]",
          "name": "ids",
          "type": "uint256[]"
        }
      ],
      "name": "link",
      "outputs": [],
      "stateMutability": "nonpayable",
      "type": "function"
    },
    {
      "inputs": [],
      "name": "owner",
      "outputs": [
        {
          "internalType": "address",
          "name": "",
          "type": "address"
        }
      ],
      "stateMutability": "view",
      "type": "function"
    },
    {
      "inputs": [],
      "name": "pendingOwner",
      "outputs": [
        {
          "internalType": "address",
          "name": "",
          "type": "address"
        }
      ],
      "stateMutability": "view",
      "type": "function"
    },
    {
      "inputs": [
        {
          "internalType": "bytes",
          "name": "data",
          "type": "bytes"
        }
      ],
      "name": "register",
      "outputs": [],
      "stateMutability": "nonpayable",
      "type": "function"
    },
    {
      "inputs": [
        {
          "internalType": "bytes",
          "name": "data",
          "type": "bytes"
        }
      ],
      "name": "registerAddress",
      "outputs": [],
      "stateMutability": "nonpayable",
      "type": "function"
    },
    {
      "inputs": [],
      "name": "renounceOwnership",
      "outputs": [],
      "stateMutability": "nonpayable",
      "type": "function"
    },
    {
      "inputs": [
        {
          "internalType": "bytes32",
          "name": "",
          "type": "bytes32"
        }
      ],
      "name": "socialToIdentity",
      "outputs": [
        {
          "internalType": "uint256",
          "name": "",
          "type": "uint256"
        }
      ],
      "stateMutability": "view",
      "type": "function"
    },
    {
      "inputs": [],
      "name": "totalIdentities",
      "outputs": [
        {
          "internalType": "uint256",
          "name": "",
          "type": "uint256"
        }
      ],
      "stateMutability": "view",
      "type": "function"
    },
    {
      "inputs": [
        {
          "internalType": "address",
          "name": "newOwner",
          "type": "address"
        }
      ],
      "name": "transferOwnership",
      "outputs": [],
      "stateMutability": "nonpayable",
      "type": "function"
    },
    {
      "inputs": [
        {
          "internalType": "address",
          "name": "",
          "type": "address"
        }
      ],
      "name": "walletToIdentity",
      "outputs": [
        {
          "internalType": "uint256",
          "name": "",
          "type": "uint256"
        }
      ],
      "stateMutability": "view",
      "type": "function"
    }
  ],
  "bytecode": "0x60808060405234607d573315606757600180546001600160a01b03199081169091556000805433928116831782556001600160a01b0316907f8be0079c531659141344cd1fd0a4f28419497f9722a3daafe3b4186f6b6457e09080a3611b8890816100838239f35b631e4fbdf760e01b600052600060045260246000fd5b600080fdfe6080604052600436101561001257600080fd5b60003560e01c8063024c84fa146113045780630c4ceac714610f0c5780632056e73114610ee0578063231a615914610ea25780633b529df414610e25578063715018a614610dc057806379ba509714610d3757806382fbdc9c1461086b5780638da5cb5b146108425780638e0d1abc14610657578063ae10273d14610631578063cc7517d014610605578063d75bb74c146101e7578063e30c3978146101be578063eaaf77e61461016e578063f2fde38b146100fa5763f5c5987b146100d757600080fd5b346100f55760003660031901126100f5576020600254604051908152f35b600080fd5b346100f55760203660031901126100f5576004356001600160a01b038116908190036100f557610128611b0a565b600180546001600160a01b03191682179055600080546001600160a01b0316907f38d16b8cac22d99fc7c124b9cd0de2d3fa1faef420bfe791d8c362d765e227009080a3005b346100f55760203660031901126100f5576004356000526003602052604060002061019d60018254920161152d565b906101ba60405192839283526040602084015260408301906114b2565b0390f35b346100f55760003660031901126100f5576001546040516001600160a01b039091168152602090f35b346100f55760203660031901126100f5576004356001600160401b0381116100f557366023820112156100f55780600401356001600160401b0381116100f55760248201908060051b9260248436920101116100f557600281106105ca5760005b8181106105605750801561054a576102608235611ad2565b9260015b8281106102ba575060405160208082528101839052916001600160fb1b03106100f55781816040927f08b3636d554db86d8278dcd57551910f84b0ba20ee3890fb6a234a82322560f495848401378101030190a2005b6102ce6102c8828587611afa565b35611ad2565b8581036102df575b50600101610264565b94929183600095929552600360205260406000209286600052600360205260406000209160009360028401945b85548110156103e35761031f8187611b1e565b60018060a01b0391549060031b1c16908160005260066020528a6040600020541461034f575b600191500161030c565b816000526006602052886040600020556002880191825492600160401b8410156103cd5760208b926103a9867ff0306f4e8668d23ebcc691f3a47412cb3e3bc7a86b5be28204cf62853914ff159460018099018155611b1e565b81549060031b9083821b91898060a01b03901b1916179055604051908152a2610345565b634e487b7160e01b600052604160045260246000fd5b5094979460039093019350919060005b845481101561052a5761040f6104098287611b36565b50611a84565b908151602083019061043061043e83516040519283916020830195866115d1565b03601f1981018352826113ec565b5190208060005260056020528860406000205414610463575b505060019150016103f3565b60005260056020528860406000205560038b018351908251604086015160608701519160405194610493866113d1565b85526020850152604084015260608301528054600160401b8110156103cd576104c191600182018155611b36565b929092610514576001946104f77f5b289625075ce8f4d013c0860b682a23ae9c1dc98240c67c7cda3ac9a2b19d1d938d95611692565b5190519061050a604051928392836115d1565b0390a28a80610457565b634e487b7160e01b600052600060045260246000fd5b5094965094909260019250600052600460205285604060002055906102d6565b634e487b7160e01b600052603260045260246000fd5b61056b818385611afa565b351515806105b3575b1561058157600101610248565b60405162461bcd60e51b815260206004820152600a602482015269125b9d985b1a5908125160b21b6044820152606490fd5b506105bf818385611afa565b356002541015610574565b60405162461bcd60e51b81526020600482015260136024820152724e656564206174206c6561737420322049447360681b6044820152606490fd5b346100f55760203660031901126100f55760043560005260046020526020604060002054604051908152f35b346100f55760203660031901126100f557602061064f600435611ad2565b604051908152f35b346100f55760203660031901126100f557610673600435611ad2565b600052600360205260406000206002810190610695600160038301920161152d565b916040518081602084549283815201809460005260206000209260005b8181106108205750506106c7925003826113ec565b8254906106d382611608565b916106e160405193846113ec565b80835260208301809560005260206000206000915b8383106108025761071b898989898960206040519687966060885260608801906114b2565b9186830382880152519182815201929060005b8181106107e057505050838203604085015251808252602082019160208260051b82010193926000915b8383106107655786860387f35b9193955091936020806107ce600193601f1986820301875289519060606107bd6107ab61079b85516080865260808601906114b2565b87860151858203898701526114b2565b604085015184820360408601526114b2565b9201519060608184039101526114b2565b97019301930190928695949293610758565b82516001600160a01b031685528796506020948501949092019160010161072e565b6004602060019261081285611a84565b8152019201920191906106f6565b84546001600160a01b03168352600194850194869450602090930192016106b2565b346100f55760003660031901126100f5576000546040516001600160a01b039091168152602090f35b346100f55761087936611463565b81016080828203126100f55781356001600160401b0381116100f557816108a191840161140d565b9060208301356001600160401b0381116100f557816108c191850161140d565b9260408101356001600160401b0381116100f557826108e191830161140d565b9160608201356001600160401b0381116100f5576108ff920161140d565b926040516020810190610917816104308588866115d1565b51902093846000526005602052604060002054610cfa576109396002546115f9565b600281905560009586526005602052604090952085905560408051919061096081846113ec565b60018352601f190160005b818110610cc857505060405190610981826113d1565b858252836020830152604082015283606082015261099e8261161f565b526109a88161161f565b506020926040516109b985826113ec565b600081526000368137604051916109cf836113d1565b878352858301908152604080840192835260608401948552600089815260038852209251835551805160018401916001600160401b0382116103cd57610a1583546114f3565b601f8111610c8d575b508790601f8311600114610c2657610a4f929160009183610c1b575b50508160011b916000199060031b1c19161790565b90555b5180519060028301906001600160401b0383116103cd57600160401b83116103cd5786908254848455808510610bfe575b5001906000528560002060005b838110610be35750505050600301905190815191600160401b83116103cd5784908254848455808510610b48575b500190600052836000206000915b838310610b2b57877f9e1ff75184927294c932317cc152fb871deb7f4a2f4169d44caa04f2905af813610b1289610b1f8a8a6040519485946060865260608601906114b2565b91848303908501526114b2565b600060408301520390a2005b60048682610b3c6001945186611692565b01920192019190610acc565b9091506001600160fe1b0381168103610bcd576001600160fe1b0384168403610bcd5790859183600052826000209060021b8101908560021b015b818110610b905750610abe565b600491929350610b9f81611643565b610bab60018201611643565b610bb760028201611643565b610bc360038201611643565b0190869291610b83565b634e487b7160e01b600052601160045260246000fd5b82516001600160a01b03168282015591870191600101610a90565b610c1590846000528584600020918201910161162c565b8a610a83565b015190508b80610a3a565b90601f1983169184600052896000209260005b8b828210610c77575050908460019594939210610c5e575b505050811b019055610a52565b015160001960f88460031b161c191690558a8080610c51565b6001859682939686015181550195019301610c39565b610cb8908460005289600020601f850160051c8101918b8610610cbe575b601f0160051c019061162c565b8a610a1e565b9091508190610cab565b602090604051610cd7816113d1565b60608152606083820152606060408201526060808201528282870101520161096b565b60405162461bcd60e51b8152602060048201526015602482015274536f6369616c206163636f756e742065786973747360581b6044820152606490fd5b346100f55760003660031901126100f557600154336001600160a01b0390911603610dab57600180546001600160a01b03199081169091556000805433928116831782556001600160a01b0316907f8be0079c531659141344cd1fd0a4f28419497f9722a3daafe3b4186f6b6457e09080a3005b63118cdaa760e01b6000523360045260246000fd5b346100f55760003660031901126100f557610dd9611b0a565b600180546001600160a01b0319908116909155600080549182168155906001600160a01b03167f8be0079c531659141344cd1fd0a4f28419497f9722a3daafe3b4186f6b6457e08280a3005b346100f55760203660031901126100f5576004356001600160a01b038116908190036100f55760005260066020526040600020548015610e6a5761064f602091611ad2565b60405162461bcd60e51b815260206004820152601060248201526f15d85b1b195d081b9bdd08199bdd5b9960821b6044820152606490fd5b346100f55760203660031901126100f5576004356001600160a01b038116908190036100f55760005260066020526020604060002054604051908152f35b346100f55760203660031901126100f55760043560005260056020526020604060002054604051908152f35b346100f5576020610f1c36611463565b90809291810103126100f557356001600160a01b038116908190036100f5578060005260066020526040600020546112cf57610f596002546115f9565b8060025581600052600660205280604060002055604091825190610f7d84836113ec565b60018252601f19840136602084013780610f968361161f565b528351936000610fa76020876113ec565b85526000805b81811061129f5750508051610fc1816113d1565b8481526020938251610fd386826113ec565b6000815285830190815283830191825260608301978852866000526003865283600020925183556001830190518051906001600160401b0382116103cd5761101b83546114f3565b601f811161126f575b508790601f831160011461120857611054929160009183610c1b5750508160011b916000199060031b1c19161790565b90555b5180519060028301906001600160401b0383116103cd57600160401b83116103cd57869082548484558085106111eb575b5001906000528560002060005b8381106111d057505050506003019451805190600160401b82116103cd578490875483895580841061114b575b50019560005283600020956000905b82821061112e57867f9e1ff75184927294c932317cc152fb871deb7f4a2f4169d44caa04f2905af81360c088888860a08151936060855260066060860152651dd85b1b195d60d21b6080860152840152600060a0840152820152a2005b6004868261113f600194518c611692565b019801910190966110d1565b9091506001600160fe1b0381168103610bcd576001600160fe1b0383168303610bcd5790859188600052826000209060021b8101908460021b015b81811061119357506110c2565b6004919293506111a281611643565b6111ae60018201611643565b6111ba60028201611643565b6111c660038201611643565b0190869291611186565b82516001600160a01b03168282015591870191600101611095565b61120290846000528584600020918201910161162c565b8a611088565b90601f1983169184600052896000209260005b8b828210611259575050908460019594939210611240575b505050811b019055611057565b015160001960f88460031b161c191690558a8080611233565b600185968293968601518155019501930161121b565b611299908460005289600020601f850160051c8101918b8610610cbe57601f0160051c019061162c565b8a611024565b60209083516112ad816113d1565b6060815260608382015260608582015260608082015282828a01015201610fad565b60405162461bcd60e51b815260206004820152600d60248201526c57616c6c65742065786973747360981b6044820152606490fd5b346100f55760403660031901126100f5576004356001600160401b0381116100f55761133490369060040161140d565b6024356001600160401b0381116100f55761136a61135961043092369060040161140d565b6040519283916020830195866115d1565b5190206000526005602052604060002054801561138c5761064f602091611ad2565b60405162461bcd60e51b815260206004820152601860248201527f536f6369616c206163636f756e74206e6f7420666f756e6400000000000000006044820152606490fd5b608081019081106001600160401b038211176103cd57604052565b90601f801991011681019081106001600160401b038211176103cd57604052565b81601f820112156100f5578035906001600160401b0382116103cd5760405192611441601f8401601f1916602001856113ec565b828452602083830101116100f557816000926020809301838601378301015290565b9060206003198301126100f5576004356001600160401b0381116100f557826023820112156100f5578060040135926001600160401b0384116100f557602484830101116100f5576024019190565b919082519283825260005b8481106114de575050826000602080949584010152601f8019910116010190565b806020809284010151828286010152016114bd565b90600182811c92168015611523575b602083101461150d57565b634e487b7160e01b600052602260045260246000fd5b91607f1691611502565b9060405191826000825492611541846114f3565b80845293600181169081156115af5750600114611568575b50611566925003836113ec565b565b90506000929192526020600020906000915b8183106115935750509060206115669282010138611559565b602091935080600191548385890101520191019091849261157a565b90506020925061156694915060ff191682840152151560051b82010138611559565b90916115e86115f6936040845260408401906114b2565b9160208184039101526114b2565b90565b6000198114610bcd5760010190565b6001600160401b0381116103cd5760051b60200190565b80511561054a5760200190565b818110611637575050565b6000815560010161162c565b61164d81546114f3565b9081611657575050565b81601f60009311600114611669575055565b8183526020832061168591601f0160051c81019060010161162c565b8082528160208120915555565b9181519283516001600160401b0381116103cd576116b082546114f3565b601f8111611a52575b50602094601f82116001146119ed576116ed9293949582916000926118175750508160011b916000199060031b1c19161790565b81555b6001810160208401518051906001600160401b0382116103cd5761171483546114f3565b601f81116119bb575b50602090601f83116001146119545761174e9291600091836118175750508160011b916000199060031b1c19161790565b90555b6002810160408401518051906001600160401b0382116103cd5761177583546114f3565b601f8111611922575b50602090601f83116001146118b6578260609593600395936117b6936000926118175750508160011b916000199060031b1c19161790565b90555b019201519182516001600160401b0381116103cd576117d882546114f3565b601f8111611884575b506020601f82116001146118225781906118139394956000926118175750508160011b916000199060031b1c19161790565b9055565b015190503880610a3a565b601f1982169083600052806000209160005b81811061186c57509583600195969710611853575b505050811b019055565b015160001960f88460031b161c19169055388080611849565b9192602060018192868b015181550194019201611834565b6118b090836000526020600020601f840160051c81019160208510610cbe57601f0160051c019061162c565b386117e1565b90601f1983169184600052816000209260005b81811061190a57509260019285926060989660039896106118f2575b505050811b0190556117b9565b015160001983881b60f8161c191690553880806118e5565b929360206001819287860151815501950193016118c9565b61194e90846000526020600020601f850160051c81019160208610610cbe57601f0160051c019061162c565b3861177e565b90601f1983169184600052816000209260005b8181106119a3575090846001959493921061198a575b505050811b019055611751565b015160001960f88460031b161c1916905538808061197d565b92936020600181928786015181550195019301611967565b6119e790846000526020600020601f850160051c81019160208610610cbe57601f0160051c019061162c565b3861171d565b601f1982169583600052806000209160005b888110611a3a57508360019596979810611a21575b505050811b0181556116f0565b015160001960f88460031b161c19169055388080611a14565b919260206001819286850151815501940192016119ff565b611a7e90836000526020600020601f840160051c81019160208510610cbe57601f0160051c019061162c565b386116b9565b90604051611a91816113d1565b6060611acd60038395611aa38161152d565b8552611ab16001820161152d565b6020860152611ac26002820161152d565b60408601520161152d565b910152565b5b806000526004602052604060002054156115f6576000526004602052604060002054611ad3565b919081101561054a5760051b0190565b6000546001600160a01b03163303610dab57565b805482101561054a5760005260206000200190600090565b805482101561054a5760005260206000209060021b019060009056fea2646970667358221220e3523c7c75fce7afe059f1ced8430d312465b2a39325e640d8affc2875bc958664736f6c634300081c0033",
  "linkReferences": {},
  "deployedLinkReferences": {}
}