{"contracts/LUCID.sol":{"LUCID":{"abi":[{"inputs":[],"stateMutability":"nonpayable","type":"constructor"},{"inputs":[{"internalType":"address","name":"owner","type":"address"}],"name":"OwnableInvalidOwner","type":"error"},{"inputs":[{"internalType":"address","name":"account","type":"address"}],"name":"OwnableUnauthorizedAccount","type":"error"},{"anonymous":false,"inputs":[{"indexed":false,"internalType":"uint256[]","name":"ids","type":"uint256[]"},{"indexed":true,"internalType":"uint256","name":"rootId","type":"uint256"}],"name":"IdentitiesLinked","type":"event"},{"anonymous":false,"inputs":[{"indexed":true,"internalType":"uint256","name":"identityId","type":"uint256"},{"indexed":false,"internalType":"string","name":"provider","type":"string"},{"indexed":false,"internalType":"string","name":"uid","type":"string"},{"indexed":false,"internalType":"address","name":"wallet","type":"address"}],"name":"IdentityCreated","type":"event"},{"anonymous":false,"inputs":[{"indexed":true,"internalType":"address","name":"previousOwner","type":"address"},{"indexed":true,"internalType":"address","name":"newOwner","type":"address"}],"name":"OwnershipTransferStarted","type":"event"},{"anonymous":false,"inputs":[{"indexed":true,"internalType":"address","name":"previousOwner","type":"address"},{"indexed":true,"internalType":"address","name":"newOwner","type":"address"}],"name":"OwnershipTransferred","type":"event"},{"anonymous":false,"inputs":[{"indexed":true,"internalType":"uint256","name":"identityId","type":"uint256"},{"indexed":false,"internalType":"string","name":"provider","type":"string"},{"indexed":false,"internalType":"string","name":"uid","type":"string"}],"name":"SocialAdded","type":"event"},{"anonymous":false,"inputs":[{"indexed":true,"internalType":"uint256","name":"identityId","type":"uint256"},{"indexed":false,"internalType":"address","name":"wallet","type":"address"}],"name":"WalletAdded","type":"event"},{"inputs":[],"name":"acceptOwnership","outputs":[],"stateMutability":"nonpayable","type":"function"},{"inputs":[{"internalType":"uint256","name":"id","type":"uint256"}],"name":"findRoot","outputs":[{"internalType":"uint256","name":"","type":"uint256"}],"stateMutability":"view","type":"function"},{"inputs":[{"internalType":"uint256","name":"id","type":"uint256"}],"name":"getFullAccount","outputs":[{"internalType":"string","name":"handle","type":"string"},{"internalType":"address[]","name":"wallets","type":"address[]"},{"components":[{"internalType":"string","name":"provider","type":"string"},{"internalType":"string","name":"uid","type":"string"},{"internalType":"string","name":"image","type":"string"},{"internalType":"string","name":"name","type":"string"}],"internalType":"struct LUCID.SocialProfile[]","name":"socials","type":"tuple[]"}],"stateMutability":"view","type":"function"},{"inputs":[{"internalType":"string","name":"provider","type":"string"},{"internalType":"string","name":"uid","type":"string"}],"name":"getUserIdBySocial","outputs":[{"internalType":"uint256","name":"","type":"uint256"}],"stateMutability":"view","type":"function"},{"inputs":[{"internalType":"address","name":"wallet","type":"address"}],"name":"getUserIdByWallet","outputs":[{"internalType":"uint256","name":"","type":"uint256"}],"stateMutability":"view","type":"function"},{"inputs":[{"internalType":"uint256","name":"","type":"uint256"}],"name":"identities","outputs":[{"internalType":"uint256","name":"id","type":"uint256"},{"internalType":"string","name":"handle","type":"string"}],"stateMutability":"view","type":"function"},{"inputs":[{"internalType":"uint256","name":"","type":"uint256"}],"name":"identityGraph","outputs":[{"internalType":"uint256","name":"","type":"uint256"}],"stateMutability":"view","type":"function"},{"inputs":[{"internalType":"uint256[]","name":"ids","type":"uint256[]"}],"name":"link","outputs":[],"stateMutability":"nonpayable","type":"function"},{"inputs":[],"name":"owner","outputs":[{"internalType":"address","name":"","type":"address"}],"stateMutability":"view","type":"function"},{"inputs":[],"name":"pendingOwner","outputs":[{"internalType":"address","name":"","type":"address"}],"stateMutability":"view","type":"function"},{"inputs":[{"internalType":"bytes","name":"data","type":"bytes"}],"name":"register","outputs":[],"stateMutability":"nonpayable","type":"function"},{"inputs":[{"internalType":"bytes","name":"data","type":"bytes"}],"name":"registerAddress","outputs":[],"stateMutability":"nonpayable","type":"function"},{"inputs":[{"internalType":"address","name":"","type":"address"}],"name":"registrars","outputs":[{"internalType":"bool","name":"","type":"bool"}],"stateMutability":"view","type":"function"},{"inputs":[],"name":"renounceOwnership","outputs":[],"stateMutability":"nonpayable","type":"function"},{"inputs":[{"internalType":"bytes32","name":"","type":"bytes32"}],"name":"socialToIdentity","outputs":[{"internalType":"uint256","name":"","type":"uint256"}],"stateMutability":"view","type":"function"},{"inputs":[],"name":"totalIdentities","outputs":[{"internalType":"uint256","name":"","type":"uint256"}],"stateMutability":"view","type":"function"},{"inputs":[{"internalType":"address","name":"newOwner","type":"address"}],"name":"transferOwnership","outputs":[],"stateMutability":"nonpayable","type":"function"},{"inputs":[{"internalType":"address","name":"addr","type":"address"},{"internalType":"bool","name":"isRegistrar","type":"bool"}],"name":"updateRegistrar","outputs":[],"stateMutability":"nonpayable","type":"function"},{"inputs":[{"internalType":"address","name":"","type":"address"}],"name":"walletToIdentity","outputs":[{"internalType":"uint256","name":"","type":"uint256"}],"stateMutability":"view","type":"function"}],"evm":{"bytecode":{"linkReferences":{},"object":"608080604052346096573315608057600180546001600160a01b03199081169091556000805433928116831782556001600160a01b0316907f8be0079c531659141344cd1fd0a4f28419497f9722a3daafe3b4186f6b6457e09080a33360005260036020526040600020600160ff19825416179055611d03908161009c8239f35b631e4fbdf760e01b600052600060045260246000fd5b600080fdfe6080604052600436101561001257600080fd5b60003560e01c8063024c84fa1461142e5780630c4ceac71461101d5780632056e73114610ff1578063231a615914610fb75780633b529df414610f3e578063715018a614610ed957806379ba509714610e5057806382fbdc9c1461096a57806389aeca761461092b5780638da5cb5b146109025780638e0d1abc14610717578063961adaf214610687578063ae10273d14610661578063cc7517d014610635578063d75bb74c146101fd578063e30c3978146101d4578063eaaf77e614610184578063f2fde38b146101105763f5c5987b146100ed57600080fd5b3461010b57600036600319011261010b576020600254604051908152f35b600080fd5b3461010b57602036600319011261010b576101296115dc565b610131611c85565b60018060a01b0316806bffffffffffffffffffffffff60a01b600154161760015560018060a01b03600054167f38d16b8cac22d99fc7c124b9cd0de2d3fa1faef420bfe791d8c362d765e22700600080a3005b3461010b57602036600319011261010b57600435600052600460205260406000206101b360018254920161166d565b906101d060405192839283526040602084015260408301906115f2565b0390f35b3461010b57600036600319011261010b576001546040516001600160a01b039091168152602090f35b3461010b57602036600319011261010b576004356001600160401b03811161010b573660238201121561010b5780600401356001600160401b03811161010b5760248201908060051b92602484369201011161010b5733600052600360205261026d60ff60406000205416611739565b600281106105fa5760005b8181106105905750801561057a576102908235611c4d565b9260015b8281106102ea575060405160208082528101839052916001600160fb1b031061010b5781816040927f08b3636d554db86d8278dcd57551910f84b0ba20ee3890fb6a234a82322560f495848401378101030190a2005b6102fe6102f8828587611c75565b35611c4d565b85810361030f575b50600101610294565b94929183600095929552600460205260406000209286600052600460205260406000209160009360028401945b85548110156104135761034f8187611c99565b60018060a01b0391549060031b1c16908160005260076020528a6040600020541461037f575b600191500161033c565b816000526007602052886040600020556002880191825492600160401b8410156103fd5760208b926103d9867ff0306f4e8668d23ebcc691f3a47412cb3e3bc7a86b5be28204cf62853914ff159460018099018155611c99565b81549060031b9083821b91898060a01b03901b1916179055604051908152a2610375565b634e487b7160e01b600052604160045260246000fd5b5094979460039093019350919060005b845481101561055a5761043f6104398287611cb1565b50611bff565b908151602083019061046061046e8351604051928391602083019586611711565b03601f198101835282611516565b5190208060005260066020528860406000205414610493575b50506001915001610423565b60005260066020528860406000205560038b0183519082516040860151606087015191604051946104c3866114fb565b85526020850152604084015260608301528054600160401b8110156103fd576104f191600182018155611cb1565b929092610544576001946105277f5b289625075ce8f4d013c0860b682a23ae9c1dc98240c67c7cda3ac9a2b19d1d938d9561180d565b5190519061053a60405192839283611711565b0390a28a80610487565b634e487b7160e01b600052600060045260246000fd5b509496509490926001925060005260056020528560406000205590610306565b634e487b7160e01b600052603260045260246000fd5b61059b818385611c75565b351515806105e3575b156105b157600101610278565b60405162461bcd60e51b815260206004820152600a602482015269125b9d985b1a5908125160b21b6044820152606490fd5b506105ef818385611c75565b3560025410156105a4565b60405162461bcd60e51b81526020600482015260136024820152724e656564206174206c6561737420322049447360681b6044820152606490fd5b3461010b57602036600319011261010b5760043560005260056020526020604060002054604051908152f35b3461010b57602036600319011261010b57602061067f600435611c4d565b604051908152f35b3461010b57604036600319011261010b576106a06115dc565b6024359081151580920361010b576106b6611c85565b6001600160a01b031660008181526003602052604090205460ff16151582146106f857600052600360205260406000209060ff80198354169116179055600080f35b60405162461bcd60e51b81526020600482015260006024820152604490fd5b3461010b57602036600319011261010b57610733600435611c4d565b600052600460205260406000206002810190610755600160038301920161166d565b916040518081602084549283815201809460005260206000209260005b8181106108e057505061078792500382611516565b82549061079382611783565b916107a16040519384611516565b80835260208301809560005260206000206000915b8383106108c2576107db898989898960206040519687966060885260608801906115f2565b9186830382880152519182815201929060005b8181106108a057505050838203604085015251808252602082019160208260051b82010193926000915b8383106108255786860387f35b91939550919360208061088e600193601f19868203018752895190606061087d61086b61085b85516080865260808601906115f2565b87860151858203898701526115f2565b604085015184820360408601526115f2565b9201519060608184039101526115f2565b97019301930190928695949293610818565b82516001600160a01b03168552879650602094850194909201916001016107ee565b600460206001926108d285611bff565b8152019201920191906107b6565b84546001600160a01b0316835260019485019486945060209093019201610772565b3461010b57600036600319011261010b576000546040516001600160a01b039091168152602090f35b3461010b57602036600319011261010b576001600160a01b0361094c6115dc565b166000526003602052602060ff604060002054166040519015158152f35b3461010b576109783661158d565b33600052600360205261099260ff60406000205416611739565b810160808282031261010b5781356001600160401b03811161010b57816109ba918401611537565b9060208301356001600160401b03811161010b57816109da918501611537565b9260408101356001600160401b03811161010b57826109fa918301611537565b9160608201356001600160401b03811161010b57610a189201611537565b926040516020810190610a3081610460858886611711565b51902093846000526006602052604060002054610e1357610a52600254611774565b6002819055600095865260066020526040909520859055604080519190610a798184611516565b60018352601f190160005b818110610de157505060405190610a9a826114fb565b8582528360208301526040820152836060820152610ab78261179a565b52610ac18161179a565b50602092604051610ad28582611516565b60008152600036813760405191610ae8836114fb565b878352858301908152604080840192835260608401948552600089815260048852209251835551805160018401916001600160401b0382116103fd57610b2e8354611633565b601f8111610da6575b508790601f8311600114610d3f57610b68929160009183610d34575b50508160011b916000199060031b1c19161790565b90555b5180519060028301906001600160401b0383116103fd57600160401b83116103fd5786908254848455808510610d17575b5001906000528560002060005b838110610cfc5750505050600301905190815191600160401b83116103fd5784908254848455808510610c61575b500190600052836000206000915b838310610c4457877f9e1ff75184927294c932317cc152fb871deb7f4a2f4169d44caa04f2905af813610c2b89610c388a8a6040519485946060865260608601906115f2565b91848303908501526115f2565b600060408301520390a2005b60048682610c55600194518661180d565b01920192019190610be5565b9091506001600160fe1b0381168103610ce6576001600160fe1b0384168403610ce65790859183600052826000209060021b8101908560021b015b818110610ca95750610bd7565b600491929350610cb8816117be565b610cc4600182016117be565b610cd0600282016117be565b610cdc600382016117be565b0190869291610c9c565b634e487b7160e01b600052601160045260246000fd5b82516001600160a01b03168282015591870191600101610ba9565b610d2e9084600052858460002091820191016117a7565b8a610b9c565b015190508b80610b53565b90601f1983169184600052896000209260005b8b828210610d90575050908460019594939210610d77575b505050811b019055610b6b565b015160001960f88460031b161c191690558a8080610d6a565b6001859682939686015181550195019301610d52565b610dd1908460005289600020601f850160051c8101918b8610610dd7575b601f0160051c01906117a7565b8a610b37565b9091508190610dc4565b602090604051610df0816114fb565b606081526060838201526060604082015260608082015282828701015201610a84565b60405162461bcd60e51b8152602060048201526015602482015274536f6369616c206163636f756e742065786973747360581b6044820152606490fd5b3461010b57600036600319011261010b57600154336001600160a01b0390911603610ec457600180546001600160a01b03199081169091556000805433928116831782556001600160a01b0316907f8be0079c531659141344cd1fd0a4f28419497f9722a3daafe3b4186f6b6457e09080a3005b63118cdaa760e01b6000523360045260246000fd5b3461010b57600036600319011261010b57610ef2611c85565b600180546001600160a01b0319908116909155600080549182168155906001600160a01b03167f8be0079c531659141344cd1fd0a4f28419497f9722a3daafe3b4186f6b6457e08280a3005b3461010b57602036600319011261010b576001600160a01b03610f5f6115dc565b1660005260076020526040600020548015610f7f5761067f602091611c4d565b60405162461bcd60e51b815260206004820152601060248201526f15d85b1b195d081b9bdd08199bdd5b9960821b6044820152606490fd5b3461010b57602036600319011261010b576001600160a01b03610fd86115dc565b1660005260076020526020604060002054604051908152f35b3461010b57602036600319011261010b5760043560005260066020526020604060002054604051908152f35b3461010b57602061102d3661158d565b90809291336000526003835261104a60ff60406000205416611739565b8101031261010b57356001600160a01b0381169081900361010b578060005260076020526040600020546113f957611083600254611774565b80600255816000526007602052806040600020556040918251906110a78483611516565b60018252601f198401366020840137806110c08361179a565b5283519360006110d1602087611516565b85526000805b8181106113c957505080516110eb816114fb565b84815260209382516110fd8682611516565b6000815285830190815283830191825260608301978852866000526004865283600020925183556001830190518051906001600160401b0382116103fd576111458354611633565b601f8111611399575b508790601f83116001146113325761117e929160009183610d345750508160011b916000199060031b1c19161790565b90555b5180519060028301906001600160401b0383116103fd57600160401b83116103fd5786908254848455808510611315575b5001906000528560002060005b8381106112fa57505050506003019451805190600160401b82116103fd5784908754838955808410611275575b50019560005283600020956000905b82821061125857867f9e1ff75184927294c932317cc152fb871deb7f4a2f4169d44caa04f2905af81360c088888860a08151936060855260066060860152651dd85b1b195d60d21b6080860152840152600060a0840152820152a2005b60048682611269600194518c61180d565b019801910190966111fb565b9091506001600160fe1b0381168103610ce6576001600160fe1b0383168303610ce65790859188600052826000209060021b8101908460021b015b8181106112bd57506111ec565b6004919293506112cc816117be565b6112d8600182016117be565b6112e4600282016117be565b6112f0600382016117be565b01908692916112b0565b82516001600160a01b031682820155918701916001016111bf565b61132c9084600052858460002091820191016117a7565b8a6111b2565b90601f1983169184600052896000209260005b8b82821061138357505090846001959493921061136a575b505050811b019055611181565b015160001960f88460031b161c191690558a808061135d565b6001859682939686015181550195019301611345565b6113c3908460005289600020601f850160051c8101918b8610610dd757601f0160051c01906117a7565b8a61114e565b60209083516113d7816114fb565b6060815260608382015260608582015260608082015282828a010152016110d7565b60405162461bcd60e51b815260206004820152600d60248201526c57616c6c65742065786973747360981b6044820152606490fd5b3461010b57604036600319011261010b576004356001600160401b03811161010b5761145e903690600401611537565b6024356001600160401b03811161010b57611494611483610460923690600401611537565b604051928391602083019586611711565b519020600052600660205260406000205480156114b65761067f602091611c4d565b60405162461bcd60e51b815260206004820152601860248201527f536f6369616c206163636f756e74206e6f7420666f756e6400000000000000006044820152606490fd5b608081019081106001600160401b038211176103fd57604052565b90601f801991011681019081106001600160401b038211176103fd57604052565b81601f8201121561010b578035906001600160401b0382116103fd576040519261156b601f8401601f191660200185611516565b8284526020838301011161010b57816000926020809301838601378301015290565b90602060031983011261010b576004356001600160401b03811161010b578260238201121561010b578060040135926001600160401b03841161010b576024848301011161010b576024019190565b600435906001600160a01b038216820361010b57565b919082519283825260005b84811061161e575050826000602080949584010152601f8019910116010190565b806020809284010151828286010152016115fd565b90600182811c92168015611663575b602083101461164d57565b634e487b7160e01b600052602260045260246000fd5b91607f1691611642565b906040519182600082549261168184611633565b80845293600181169081156116ef57506001146116a8575b506116a692500383611516565b565b90506000929192526020600020906000915b8183106116d35750509060206116a69282010138611699565b60209193508060019154838589010152019101909184926116ba565b9050602092506116a694915060ff191682840152151560051b82010138611699565b9091611728611736936040845260408401906115f2565b9160208184039101526115f2565b90565b1561174057565b60405162461bcd60e51b815260206004820152600c60248201526b155b985d5d1a1bdc9a5e995960a21b6044820152606490fd5b6000198114610ce65760010190565b6001600160401b0381116103fd5760051b60200190565b80511561057a5760200190565b8181106117b2575050565b600081556001016117a7565b6117c88154611633565b90816117d2575050565b81601f600093116001146117e4575055565b8183526020832061180091601f0160051c8101906001016117a7565b8082528160208120915555565b9181519283516001600160401b0381116103fd5761182b8254611633565b601f8111611bcd575b50602094601f8211600114611b68576118689293949582916000926119925750508160011b916000199060031b1c19161790565b81555b6001810160208401518051906001600160401b0382116103fd5761188f8354611633565b601f8111611b36575b50602090601f8311600114611acf576118c99291600091836119925750508160011b916000199060031b1c19161790565b90555b6002810160408401518051906001600160401b0382116103fd576118f08354611633565b601f8111611a9d575b50602090601f8311600114611a3157826060959360039593611931936000926119925750508160011b916000199060031b1c19161790565b90555b019201519182516001600160401b0381116103fd576119538254611633565b601f81116119ff575b506020601f821160011461199d57819061198e9394956000926119925750508160011b916000199060031b1c19161790565b9055565b015190503880610b53565b601f1982169083600052806000209160005b8181106119e7575095836001959697106119ce575b505050811b019055565b015160001960f88460031b161c191690553880806119c4565b9192602060018192868b0151815501940192016119af565b611a2b90836000526020600020601f840160051c81019160208510610dd757601f0160051c01906117a7565b3861195c565b90601f1983169184600052816000209260005b818110611a855750926001928592606098966003989610611a6d575b505050811b019055611934565b015160001983881b60f8161c19169055388080611a60565b92936020600181928786015181550195019301611a44565b611ac990846000526020600020601f850160051c81019160208610610dd757601f0160051c01906117a7565b386118f9565b90601f1983169184600052816000209260005b818110611b1e5750908460019594939210611b05575b505050811b0190556118cc565b015160001960f88460031b161c19169055388080611af8565b92936020600181928786015181550195019301611ae2565b611b6290846000526020600020601f850160051c81019160208610610dd757601f0160051c01906117a7565b38611898565b601f1982169583600052806000209160005b888110611bb557508360019596979810611b9c575b505050811b01815561186b565b015160001960f88460031b161c19169055388080611b8f565b91926020600181928685015181550194019201611b7a565b611bf990836000526020600020601f840160051c81019160208510610dd757601f0160051c01906117a7565b38611834565b90604051611c0c816114fb565b6060611c4860038395611c1e8161166d565b8552611c2c6001820161166d565b6020860152611c3d6002820161166d565b60408601520161166d565b910152565b5b80600052600560205260406000205415611736576000526005602052604060002054611c4e565b919081101561057a5760051b0190565b6000546001600160a01b03163303610ec457565b805482101561057a5760005260206000200190600090565b805482101561057a5760005260206000209060021b019060009056fea264697066735822122010ea6d80562672ab2e527c236f6d650dfb26bdcfd63ca812783334237a48561164736f6c634300081c0033","opcodes":"PUSH1 0x80 DUP1 PUSH1 0x40 MSTORE CALLVALUE PUSH1 0x96 JUMPI CALLER ISZERO PUSH1 0x80 JUMPI PUSH1 0x1 DUP1 SLOAD PUSH1 0x1 PUSH1 0x1 PUSH1 0xA0 SHL SUB NOT SWAP1 DUP2 AND SWAP1 SWAP2 SSTORE PUSH1 0x0 DUP1 SLOAD CALLER SWAP3 DUP2 AND DUP4 OR DUP3 SSTORE PUSH1 0x1 PUSH1 0x1 PUSH1 0xA0 SHL SUB AND SWAP1 PUSH32 0x8BE0079C531659141344CD1FD0A4F28419497F9722A3DAAFE3B4186F6B6457E0 SWAP1 DUP1 LOG3 CALLER PUSH1 0x0 MSTORE PUSH1 0x3 PUSH1 0x20 MSTORE PUSH1 0x40 PUSH1 0x0 KECCAK256 PUSH1 0x1 PUSH1 0xFF NOT DUP3 SLOAD AND OR SWAP1 SSTORE PUSH2 0x1D03 SWAP1 DUP2 PUSH2 0x9C DUP3 CODECOPY RETURN JUMPDEST PUSH4 0x1E4FBDF7 PUSH1 0xE0 SHL PUSH1 0x0 MSTORE PUSH1 0x0 PUSH1 0x4 MSTORE PUSH1 0x24 PUSH1 0x0 REVERT JUMPDEST PUSH1 0x0 DUP1 REVERT INVALID PUSH1 0x80 PUSH1 0x40 MSTORE PUSH1 0x4 CALLDATASIZE LT ISZERO PUSH2 0x12 JUMPI PUSH1 0x0 DUP1 REVERT JUMPDEST PUSH1 0x0 CALLDATALOAD PUSH1 0xE0 SHR DUP1 PUSH4 0x24C84FA EQ PUSH2 0x142E JUMPI DUP1 PUSH4 0xC4CEAC7 EQ PUSH2 0x101D JUMPI DUP1 PUSH4 0x2056E731 EQ PUSH2 0xFF1 JUMPI DUP1 PUSH4 0x231A6159 EQ PUSH2 0xFB7 JUMPI DUP1 PUSH4 0x3B529DF4 EQ PUSH2 0xF3E JUMPI DUP1 PUSH4 0x715018A6 EQ PUSH2 0xED9 JUMPI DUP1 PUSH4 0x79BA5097 EQ PUSH2 0xE50 JUMPI DUP1 PUSH4 0x82FBDC9C EQ PUSH2 0x96A JUMPI DUP1 PUSH4 0x89AECA76 EQ PUSH2 0x92B JUMPI DUP1 PUSH4 0x8DA5CB5B EQ PUSH2 0x902 JUMPI DUP1 PUSH4 0x8E0D1ABC EQ PUSH2 0x717 JUMPI DUP1 PUSH4 0x961ADAF2 EQ PUSH2 0x687 JUMPI DUP1 PUSH4 0xAE10273D EQ PUSH2 0x661 JUMPI DUP1 PUSH4 0xCC7517D0 EQ PUSH2 0x635 JUMPI DUP1 PUSH4 0xD75BB74C EQ PUSH2 0x1FD JUMPI DUP1 PUSH4 0xE30C3978 EQ PUSH2 0x1D4 JUMPI DUP1 PUSH4 0xEAAF77E6 EQ PUSH2 0x184 JUMPI DUP1 PUSH4 0xF2FDE38B EQ PUSH2 0x110 JUMPI PUSH4 0xF5C5987B EQ PUSH2 0xED JUMPI PUSH1 0x0 DUP1 REVERT JUMPDEST CALLVALUE PUSH2 0x10B JUMPI PUSH1 0x0 CALLDATASIZE PUSH1 0x3 NOT ADD SLT PUSH2 0x10B JUMPI PUSH1 0x20 PUSH1 0x2 SLOAD PUSH1 0x40 MLOAD SWAP1 DUP2 MSTORE RETURN JUMPDEST PUSH1 0x0 DUP1 REVERT JUMPDEST CALLVALUE PUSH2 0x10B JUMPI PUSH1 0x20 CALLDATASIZE PUSH1 0x3 NOT ADD SLT PUSH2 0x10B JUMPI PUSH2 0x129 PUSH2 0x15DC JUMP JUMPDEST PUSH2 0x131 PUSH2 0x1C85 JUMP JUMPDEST PUSH1 0x1 DUP1 PUSH1 0xA0 SHL SUB AND DUP1 PUSH12 0xFFFFFFFFFFFFFFFFFFFFFFFF PUSH1 0xA0 SHL PUSH1 0x1 SLOAD AND OR PUSH1 0x1 SSTORE PUSH1 0x1 DUP1 PUSH1 0xA0 SHL SUB PUSH1 0x0 SLOAD AND PUSH32 0x38D16B8CAC22D99FC7C124B9CD0DE2D3FA1FAEF420BFE791D8C362D765E22700 PUSH1 0x0 DUP1 LOG3 STOP JUMPDEST CALLVALUE PUSH2 0x10B JUMPI PUSH1 0x20 CALLDATASIZE PUSH1 0x3 NOT ADD SLT PUSH2 0x10B JUMPI PUSH1 0x4 CALLDATALOAD PUSH1 0x0 MSTORE PUSH1 0x4 PUSH1 0x20 MSTORE PUSH1 0x40 PUSH1 0x0 KECCAK256 PUSH2 0x1B3 PUSH1 0x1 DUP3 SLOAD SWAP3 ADD PUSH2 0x166D JUMP JUMPDEST SWAP1 PUSH2 0x1D0 PUSH1 0x40 MLOAD SWAP3 DUP4 SWAP3 DUP4 MSTORE PUSH1 0x40 PUSH1 0x20 DUP5 ADD MSTORE PUSH1 0x40 DUP4 ADD SWAP1 PUSH2 0x15F2 JUMP JUMPDEST SUB SWAP1 RETURN JUMPDEST CALLVALUE PUSH2 0x10B JUMPI PUSH1 0x0 CALLDATASIZE PUSH1 0x3 NOT ADD SLT PUSH2 0x10B JUMPI PUSH1 0x1 SLOAD PUSH1 0x40 MLOAD PUSH1 0x1 PUSH1 0x1 PUSH1 0xA0 SHL SUB SWAP1 SWAP2 AND DUP2 MSTORE PUSH1 0x20 SWAP1 RETURN JUMPDEST CALLVALUE PUSH2 0x10B JUMPI PUSH1 0x20 CALLDATASIZE PUSH1 0x3 NOT ADD SLT PUSH2 0x10B JUMPI PUSH1 0x4 CALLDATALOAD PUSH1 0x1 PUSH1 0x1 PUSH1 0x40 SHL SUB DUP2 GT PUSH2 0x10B JUMPI CALLDATASIZE PUSH1 0x23 DUP3 ADD SLT ISZERO PUSH2 0x10B JUMPI DUP1 PUSH1 0x4 ADD CALLDATALOAD PUSH1 0x1 PUSH1 0x1 PUSH1 0x40 SHL SUB DUP2 GT PUSH2 0x10B JUMPI PUSH1 0x24 DUP3 ADD SWAP1 DUP1 PUSH1 0x5 SHL SWAP3 PUSH1 0x24 DUP5 CALLDATASIZE SWAP3 ADD ADD GT PUSH2 0x10B JUMPI CALLER PUSH1 0x0 MSTORE PUSH1 0x3 PUSH1 0x20 MSTORE PUSH2 0x26D PUSH1 0xFF PUSH1 0x40 PUSH1 0x0 KECCAK256 SLOAD AND PUSH2 0x1739 JUMP JUMPDEST PUSH1 0x2 DUP2 LT PUSH2 0x5FA JUMPI PUSH1 0x0 JUMPDEST DUP2 DUP2 LT PUSH2 0x590 JUMPI POP DUP1 ISZERO PUSH2 0x57A JUMPI PUSH2 0x290 DUP3 CALLDATALOAD PUSH2 0x1C4D JUMP JUMPDEST SWAP3 PUSH1 0x1 JUMPDEST DUP3 DUP2 LT PUSH2 0x2EA JUMPI POP PUSH1 0x40 MLOAD PUSH1 0x20 DUP1 DUP3 MSTORE DUP2 ADD DUP4 SWAP1 MSTORE SWAP2 PUSH1 0x1 PUSH1 0x1 PUSH1 0xFB SHL SUB LT PUSH2 0x10B JUMPI DUP2 DUP2 PUSH1 0x40 SWAP3 PUSH32 0x8B3636D554DB86D8278DCD57551910F84B0BA20EE3890FB6A234A82322560F4 SWAP6 DUP5 DUP5 ADD CALLDATACOPY DUP2 ADD SUB ADD SWAP1 LOG2 STOP JUMPDEST PUSH2 0x2FE PUSH2 0x2F8 DUP3 DUP6 DUP8 PUSH2 0x1C75 JUMP JUMPDEST CALLDATALOAD PUSH2 0x1C4D JUMP JUMPDEST DUP6 DUP2 SUB PUSH2 0x30F JUMPI JUMPDEST POP PUSH1 0x1 ADD PUSH2 0x294 JUMP JUMPDEST SWAP5 SWAP3 SWAP2 DUP4 PUSH1 0x0 SWAP6 SWAP3 SWAP6 MSTORE PUSH1 0x4 PUSH1 0x20 MSTORE PUSH1 0x40 PUSH1 0x0 KECCAK256 SWAP3 DUP7 PUSH1 0x0 MSTORE PUSH1 0x4 PUSH1 0x20 MSTORE PUSH1 0x40 PUSH1 0x0 KECCAK256 SWAP2 PUSH1 0x0 SWAP4 PUSH1 0x2 DUP5 ADD SWAP5 JUMPDEST DUP6 SLOAD DUP2 LT ISZERO PUSH2 0x413 JUMPI PUSH2 0x34F DUP2 DUP8 PUSH2 0x1C99 JUMP JUMPDEST PUSH1 0x1 DUP1 PUSH1 0xA0 SHL SUB SWAP2 SLOAD SWAP1 PUSH1 0x3 SHL SHR AND SWAP1 DUP2 PUSH1 0x0 MSTORE PUSH1 0x7 PUSH1 0x20 MSTORE DUP11 PUSH1 0x40 PUSH1 0x0 KECCAK256 SLOAD EQ PUSH2 0x37F JUMPI JUMPDEST PUSH1 0x1 SWAP2 POP ADD PUSH2 0x33C JUMP JUMPDEST DUP2 PUSH1 0x0 MSTORE PUSH1 0x7 PUSH1 0x20 MSTORE DUP9 PUSH1 0x40 PUSH1 0x0 KECCAK256 SSTORE PUSH1 0x2 DUP9 ADD SWAP2 DUP3 SLOAD SWAP3 PUSH1 0x1 PUSH1 0x40 SHL DUP5 LT ISZERO PUSH2 0x3FD JUMPI PUSH1 0x20 DUP12 SWAP3 PUSH2 0x3D9 DUP7 PUSH32 0xF0306F4E8668D23EBCC691F3A47412CB3E3BC7A86B5BE28204CF62853914FF15 SWAP5 PUSH1 0x1 DUP1 SWAP10 ADD DUP2 SSTORE PUSH2 0x1C99 JUMP JUMPDEST DUP2 SLOAD SWAP1 PUSH1 0x3 SHL SWAP1 DUP4 DUP3 SHL SWAP2 DUP10 DUP1 PUSH1 0xA0 SHL SUB SWAP1 SHL NOT AND OR SWAP1 SSTORE PUSH1 0x40 MLOAD SWAP1 DUP2 MSTORE LOG2 PUSH2 0x375 JUMP JUMPDEST PUSH4 0x4E487B71 PUSH1 0xE0 SHL PUSH1 0x0 MSTORE PUSH1 0x41 PUSH1 0x4 MSTORE PUSH1 0x24 PUSH1 0x0 REVERT JUMPDEST POP SWAP5 SWAP8 SWAP5 PUSH1 0x3 SWAP1 SWAP4 ADD SWAP4 POP SWAP2 SWAP1 PUSH1 0x0 JUMPDEST DUP5 SLOAD DUP2 LT ISZERO PUSH2 0x55A JUMPI PUSH2 0x43F PUSH2 0x439 DUP3 DUP8 PUSH2 0x1CB1 JUMP JUMPDEST POP PUSH2 0x1BFF JUMP JUMPDEST SWAP1 DUP2 MLOAD PUSH1 0x20 DUP4 ADD SWAP1 PUSH2 0x460 PUSH2 0x46E DUP4 MLOAD PUSH1 0x40 MLOAD SWAP3 DUP4 SWAP2 PUSH1 0x20 DUP4 ADD SWAP6 DUP7 PUSH2 0x1711 JUMP JUMPDEST SUB PUSH1 0x1F NOT DUP2 ADD DUP4 MSTORE DUP3 PUSH2 0x1516 JUMP JUMPDEST MLOAD SWAP1 KECCAK256 DUP1 PUSH1 0x0 MSTORE PUSH1 0x6 PUSH1 0x20 MSTORE DUP9 PUSH1 0x40 PUSH1 0x0 KECCAK256 SLOAD EQ PUSH2 0x493 JUMPI JUMPDEST POP POP PUSH1 0x1 SWAP2 POP ADD PUSH2 0x423 JUMP JUMPDEST PUSH1 0x0 MSTORE PUSH1 0x6 PUSH1 0x20 MSTORE DUP9 PUSH1 0x40 PUSH1 0x0 KECCAK256 SSTORE PUSH1 0x3 DUP12 ADD DUP4 MLOAD SWAP1 DUP3 MLOAD PUSH1 0x40 DUP7 ADD MLOAD PUSH1 0x60 DUP8 ADD MLOAD SWAP2 PUSH1 0x40 MLOAD SWAP5 PUSH2 0x4C3 DUP7 PUSH2 0x14FB JUMP JUMPDEST DUP6 MSTORE PUSH1 0x20 DUP6 ADD MSTORE PUSH1 0x40 DUP5 ADD MSTORE PUSH1 0x60 DUP4 ADD MSTORE DUP1 SLOAD PUSH1 0x1 PUSH1 0x40 SHL DUP2 LT ISZERO PUSH2 0x3FD JUMPI PUSH2 0x4F1 SWAP2 PUSH1 0x1 DUP3 ADD DUP2 SSTORE PUSH2 0x1CB1 JUMP JUMPDEST SWAP3 SWAP1 SWAP3 PUSH2 0x544 JUMPI PUSH1 0x1 SWAP5 PUSH2 0x527 PUSH32 0x5B289625075CE8F4D013C0860B682A23AE9C1DC98240C67C7CDA3AC9A2B19D1D SWAP4 DUP14 SWAP6 PUSH2 0x180D JUMP JUMPDEST MLOAD SWAP1 MLOAD SWAP1 PUSH2 0x53A PUSH1 0x40 MLOAD SWAP3 DUP4 SWAP3 DUP4 PUSH2 0x1711 JUMP JUMPDEST SUB SWAP1 LOG2 DUP11 DUP1 PUSH2 0x487 JUMP JUMPDEST PUSH4 0x4E487B71 PUSH1 0xE0 SHL PUSH1 0x0 MSTORE PUSH1 0x0 PUSH1 0x4 MSTORE PUSH1 0x24 PUSH1 0x0 REVERT JUMPDEST POP SWAP5 SWAP7 POP SWAP5 SWAP1 SWAP3 PUSH1 0x1 SWAP3 POP PUSH1 0x0 MSTORE PUSH1 0x5 PUSH1 0x20 MSTORE DUP6 PUSH1 0x40 PUSH1 0x0 KECCAK256 SSTORE SWAP1 PUSH2 0x306 JUMP JUMPDEST PUSH4 0x4E487B71 PUSH1 0xE0 SHL PUSH1 0x0 MSTORE PUSH1 0x32 PUSH1 0x4 MSTORE PUSH1 0x24 PUSH1 0x0 REVERT JUMPDEST PUSH2 0x59B DUP2 DUP4 DUP6 PUSH2 0x1C75 JUMP JUMPDEST CALLDATALOAD ISZERO ISZERO DUP1 PUSH2 0x5E3 JUMPI JUMPDEST ISZERO PUSH2 0x5B1 JUMPI PUSH1 0x1 ADD PUSH2 0x278 JUMP JUMPDEST PUSH1 0x40 MLOAD PUSH3 0x461BCD PUSH1 0xE5 SHL DUP2 MSTORE PUSH1 0x20 PUSH1 0x4 DUP3 ADD MSTORE PUSH1 0xA PUSH1 0x24 DUP3 ADD MSTORE PUSH10 0x125B9D985B1A59081251 PUSH1 0xB2 SHL PUSH1 0x44 DUP3 ADD MSTORE PUSH1 0x64 SWAP1 REVERT JUMPDEST POP PUSH2 0x5EF DUP2 DUP4 DUP6 PUSH2 0x1C75 JUMP JUMPDEST CALLDATALOAD PUSH1 0x2 SLOAD LT ISZERO PUSH2 0x5A4 JUMP JUMPDEST PUSH1 0x40 MLOAD PUSH3 0x461BCD PUSH1 0xE5 SHL DUP2 MSTORE PUSH1 0x20 PUSH1 0x4 DUP3 ADD MSTORE PUSH1 0x13 PUSH1 0x24 DUP3 ADD MSTORE PUSH19 0x4E656564206174206C65617374203220494473 PUSH1 0x68 SHL PUSH1 0x44 DUP3 ADD MSTORE PUSH1 0x64 SWAP1 REVERT JUMPDEST CALLVALUE PUSH2 0x10B JUMPI PUSH1 0x20 CALLDATASIZE PUSH1 0x3 NOT ADD SLT PUSH2 0x10B JUMPI PUSH1 0x4 CALLDATALOAD PUSH1 0x0 MSTORE PUSH1 0x5 PUSH1 0x20 MSTORE PUSH1 0x20 PUSH1 0x40 PUSH1 0x0 KECCAK256 SLOAD PUSH1 0x40 MLOAD SWAP1 DUP2 MSTORE RETURN JUMPDEST CALLVALUE PUSH2 0x10B JUMPI PUSH1 0x20 CALLDATASIZE PUSH1 0x3 NOT ADD SLT PUSH2 0x10B JUMPI PUSH1 0x20 PUSH2 0x67F PUSH1 0x4 CALLDATALOAD PUSH2 0x1C4D JUMP JUMPDEST PUSH1 0x40 MLOAD SWAP1 DUP2 MSTORE RETURN JUMPDEST CALLVALUE PUSH2 0x10B JUMPI PUSH1 0x40 CALLDATASIZE PUSH1 0x3 NOT ADD SLT PUSH2 0x10B JUMPI PUSH2 0x6A0 PUSH2 0x15DC JUMP JUMPDEST PUSH1 0x24 CALLDATALOAD SWAP1 DUP2 ISZERO ISZERO DUP1 SWAP3 SUB PUSH2 0x10B JUMPI PUSH2 0x6B6 PUSH2 0x1C85 JUMP JUMPDEST PUSH1 0x1 PUSH1 0x1 PUSH1 0xA0 SHL SUB AND PUSH1 0x0 DUP2 DUP2 MSTORE PUSH1 0x3 PUSH1 0x20 MSTORE PUSH1 0x40 SWAP1 KECCAK256 SLOAD PUSH1 0xFF AND ISZERO ISZERO DUP3 EQ PUSH2 0x6F8 JUMPI PUSH1 0x0 MSTORE PUSH1 0x3 PUSH1 0x20 MSTORE PUSH1 0x40 PUSH1 0x0 KECCAK256 SWAP1 PUSH1 0xFF DUP1 NOT DUP4 SLOAD AND SWAP2 AND OR SWAP1 SSTORE PUSH1 0x0 DUP1 RETURN JUMPDEST PUSH1 0x40 MLOAD PUSH3 0x461BCD PUSH1 0xE5 SHL DUP2 MSTORE PUSH1 0x20 PUSH1 0x4 DUP3 ADD MSTORE PUSH1 0x0 PUSH1 0x24 DUP3 ADD MSTORE PUSH1 0x44 SWAP1 REVERT JUMPDEST CALLVALUE PUSH2 0x10B JUMPI PUSH1 0x20 CALLDATASIZE PUSH1 0x3 NOT ADD SLT PUSH2 0x10B JUMPI PUSH2 0x733 PUSH1 0x4 CALLDATALOAD PUSH2 0x1C4D JUMP JUMPDEST PUSH1 0x0 MSTORE PUSH1 0x4 PUSH1 0x20 MSTORE PUSH1 0x40 PUSH1 0x0 KECCAK256 PUSH1 0x2 DUP2 ADD SWAP1 PUSH2 0x755 PUSH1 0x1 PUSH1 0x3 DUP4 ADD SWAP3 ADD PUSH2 0x166D JUMP JUMPDEST SWAP2 PUSH1 0x40 MLOAD DUP1 DUP2 PUSH1 0x20 DUP5 SLOAD SWAP3 DUP4 DUP2 MSTORE ADD DUP1 SWAP5 PUSH1 0x0 MSTORE PUSH1 0x20 PUSH1 0x0 KECCAK256 SWAP3 PUSH1 0x0 JUMPDEST DUP2 DUP2 LT PUSH2 0x8E0 JUMPI POP POP PUSH2 0x787 SWAP3 POP SUB DUP3 PUSH2 0x1516 JUMP JUMPDEST DUP3 SLOAD SWAP1 PUSH2 0x793 DUP3 PUSH2 0x1783 JUMP JUMPDEST SWAP2 PUSH2 0x7A1 PUSH1 0x40 MLOAD SWAP4 DUP5 PUSH2 0x1516 JUMP JUMPDEST DUP1 DUP4 MSTORE PUSH1 0x20 DUP4 ADD DUP1 SWAP6 PUSH1 0x0 MSTORE PUSH1 0x20 PUSH1 0x0 KECCAK256 PUSH1 0x0 SWAP2 JUMPDEST DUP4 DUP4 LT PUSH2 0x8C2 JUMPI PUSH2 0x7DB DUP10 DUP10 DUP10 DUP10 DUP10 PUSH1 0x20 PUSH1 0x40 MLOAD SWAP7 DUP8 SWAP7 PUSH1 0x60 DUP9 MSTORE PUSH1 0x60 DUP9 ADD SWAP1 PUSH2 0x15F2 JUMP JUMPDEST SWAP2 DUP7 DUP4 SUB DUP3 DUP9 ADD MSTORE MLOAD SWAP2 DUP3 DUP2 MSTORE ADD SWAP3 SWAP1 PUSH1 0x0 JUMPDEST DUP2 DUP2 LT PUSH2 0x8A0 JUMPI POP POP POP DUP4 DUP3 SUB PUSH1 0x40 DUP6 ADD MSTORE MLOAD DUP1 DUP3 MSTORE PUSH1 0x20 DUP3 ADD SWAP2 PUSH1 0x20 DUP3 PUSH1 0x5 SHL DUP3 ADD ADD SWAP4 SWAP3 PUSH1 0x0 SWAP2 JUMPDEST DUP4 DUP4 LT PUSH2 0x825 JUMPI DUP7 DUP7 SUB DUP8 RETURN JUMPDEST SWAP2 SWAP4 SWAP6 POP SWAP2 SWAP4 PUSH1 0x20 DUP1 PUSH2 0x88E PUSH1 0x1 SWAP4 PUSH1 0x1F NOT DUP7 DUP3 SUB ADD DUP8 MSTORE DUP10 MLOAD SWAP1 PUSH1 0x60 PUSH2 0x87D PUSH2 0x86B PUSH2 0x85B DUP6 MLOAD PUSH1 0x80 DUP7 MSTORE PUSH1 0x80 DUP7 ADD SWAP1 PUSH2 0x15F2 JUMP JUMPDEST DUP8 DUP7 ADD MLOAD DUP6 DUP3 SUB DUP10 DUP8 ADD MSTORE PUSH2 0x15F2 JUMP JUMPDEST PUSH1 0x40 DUP6 ADD MLOAD DUP5 DUP3 SUB PUSH1 0x40 DUP7 ADD MSTORE PUSH2 0x15F2 JUMP JUMPDEST SWAP3 ADD MLOAD SWAP1 PUSH1 0x60 DUP2 DUP5 SUB SWAP2 ADD MSTORE PUSH2 0x15F2 JUMP JUMPDEST SWAP8 ADD SWAP4 ADD SWAP4 ADD SWAP1 SWAP3 DUP7 SWAP6 SWAP5 SWAP3 SWAP4 PUSH2 0x818 JUMP JUMPDEST DUP3 MLOAD PUSH1 0x1 PUSH1 0x1 PUSH1 0xA0 SHL SUB AND DUP6 MSTORE DUP8 SWAP7 POP PUSH1 0x20 SWAP5 DUP6 ADD SWAP5 SWAP1 SWAP3 ADD SWAP2 PUSH1 0x1 ADD PUSH2 0x7EE JUMP JUMPDEST PUSH1 0x4 PUSH1 0x20 PUSH1 0x1 SWAP3 PUSH2 0x8D2 DUP6 PUSH2 0x1BFF JUMP JUMPDEST DUP2 MSTORE ADD SWAP3 ADD SWAP3 ADD SWAP2 SWAP1 PUSH2 0x7B6 JUMP JUMPDEST DUP5 SLOAD PUSH1 0x1 PUSH1 0x1 PUSH1 0xA0 SHL SUB AND DUP4 MSTORE PUSH1 0x1 SWAP5 DUP6 ADD SWAP5 DUP7 SWAP5 POP PUSH1 0x20 SWAP1 SWAP4 ADD SWAP3 ADD PUSH2 0x772 JUMP JUMPDEST CALLVALUE PUSH2 0x10B JUMPI PUSH1 0x0 CALLDATASIZE PUSH1 0x3 NOT ADD SLT PUSH2 0x10B JUMPI PUSH1 0x0 SLOAD PUSH1 0x40 MLOAD PUSH1 0x1 PUSH1 0x1 PUSH1 0xA0 SHL SUB SWAP1 SWAP2 AND DUP2 MSTORE PUSH1 0x20 SWAP1 RETURN JUMPDEST CALLVALUE PUSH2 0x10B JUMPI PUSH1 0x20 CALLDATASIZE PUSH1 0x3 NOT ADD SLT PUSH2 0x10B JUMPI PUSH1 0x1 PUSH1 0x1 PUSH1 0xA0 SHL SUB PUSH2 0x94C PUSH2 0x15DC JUMP JUMPDEST AND PUSH1 0x0 MSTORE PUSH1 0x3 PUSH1 0x20 MSTORE PUSH1 0x20 PUSH1 0xFF PUSH1 0x40 PUSH1 0x0 KECCAK256 SLOAD AND PUSH1 0x40 MLOAD SWAP1 ISZERO ISZERO DUP2 MSTORE RETURN JUMPDEST CALLVALUE PUSH2 0x10B JUMPI PUSH2 0x978 CALLDATASIZE PUSH2 0x158D JUMP JUMPDEST CALLER PUSH1 0x0 MSTORE PUSH1 0x3 PUSH1 0x20 MSTORE PUSH2 0x992 PUSH1 0xFF PUSH1 0x40 PUSH1 0x0 KECCAK256 SLOAD AND PUSH2 0x1739 JUMP JUMPDEST DUP2 ADD PUSH1 0x80 DUP3 DUP3 SUB SLT PUSH2 0x10B JUMPI DUP2 CALLDATALOAD PUSH1 0x1 PUSH1 0x1 PUSH1 0x40 SHL SUB DUP2 GT PUSH2 0x10B JUMPI DUP2 PUSH2 0x9BA SWAP2 DUP5 ADD PUSH2 0x1537 JUMP JUMPDEST SWAP1 PUSH1 0x20 DUP4 ADD CALLDATALOAD PUSH1 0x1 PUSH1 0x1 PUSH1 0x40 SHL SUB DUP2 GT PUSH2 0x10B JUMPI DUP2 PUSH2 0x9DA SWAP2 DUP6 ADD PUSH2 0x1537 JUMP JUMPDEST SWAP3 PUSH1 0x40 DUP2 ADD CALLDATALOAD PUSH1 0x1 PUSH1 0x1 PUSH1 0x40 SHL SUB DUP2 GT PUSH2 0x10B JUMPI DUP3 PUSH2 0x9FA SWAP2 DUP4 ADD PUSH2 0x1537 JUMP JUMPDEST SWAP2 PUSH1 0x60 DUP3 ADD CALLDATALOAD PUSH1 0x1 PUSH1 0x1 PUSH1 0x40 SHL SUB DUP2 GT PUSH2 0x10B JUMPI PUSH2 0xA18 SWAP3 ADD PUSH2 0x1537 JUMP JUMPDEST SWAP3 PUSH1 0x40 MLOAD PUSH1 0x20 DUP2 ADD SWAP1 PUSH2 0xA30 DUP2 PUSH2 0x460 DUP6 DUP9 DUP7 PUSH2 0x1711 JUMP JUMPDEST MLOAD SWAP1 KECCAK256 SWAP4 DUP5 PUSH1 0x0 MSTORE PUSH1 0x6 PUSH1 0x20 MSTORE PUSH1 0x40 PUSH1 0x0 KECCAK256 SLOAD PUSH2 0xE13 JUMPI PUSH2 0xA52 PUSH1 0x2 SLOAD PUSH2 0x1774 JUMP JUMPDEST PUSH1 0x2 DUP2 SWAP1 SSTORE PUSH1 0x0 SWAP6 DUP7 MSTORE PUSH1 0x6 PUSH1 0x20 MSTORE PUSH1 0x40 SWAP1 SWAP6 KECCAK256 DUP6 SWAP1 SSTORE PUSH1 0x40 DUP1 MLOAD SWAP2 SWAP1 PUSH2 0xA79 DUP2 DUP5 PUSH2 0x1516 JUMP JUMPDEST PUSH1 0x1 DUP4 MSTORE PUSH1 0x1F NOT ADD PUSH1 0x0 JUMPDEST DUP2 DUP2 LT PUSH2 0xDE1 JUMPI POP POP PUSH1 0x40 MLOAD SWAP1 PUSH2 0xA9A DUP3 PUSH2 0x14FB JUMP JUMPDEST DUP6 DUP3 MSTORE DUP4 PUSH1 0x20 DUP4 ADD MSTORE PUSH1 0x40 DUP3 ADD MSTORE DUP4 PUSH1 0x60 DUP3 ADD MSTORE PUSH2 0xAB7 DUP3 PUSH2 0x179A JUMP JUMPDEST MSTORE PUSH2 0xAC1 DUP2 PUSH2 0x179A JUMP JUMPDEST POP PUSH1 0x20 SWAP3 PUSH1 0x40 MLOAD PUSH2 0xAD2 DUP6 DUP3 PUSH2 0x1516 JUMP JUMPDEST PUSH1 0x0 DUP2 MSTORE PUSH1 0x0 CALLDATASIZE DUP2 CALLDATACOPY PUSH1 0x40 MLOAD SWAP2 PUSH2 0xAE8 DUP4 PUSH2 0x14FB JUMP JUMPDEST DUP8 DUP4 MSTORE DUP6 DUP4 ADD SWAP1 DUP2 MSTORE PUSH1 0x40 DUP1 DUP5 ADD SWAP3 DUP4 MSTORE PUSH1 0x60 DUP5 ADD SWAP5 DUP6 MSTORE PUSH1 0x0 DUP10 DUP2 MSTORE PUSH1 0x4 DUP9 MSTORE KECCAK256 SWAP3 MLOAD DUP4 SSTORE MLOAD DUP1 MLOAD PUSH1 0x1 DUP5 ADD SWAP2 PUSH1 0x1 PUSH1 0x1 PUSH1 0x40 SHL SUB DUP3 GT PUSH2 0x3FD JUMPI PUSH2 0xB2E DUP4 SLOAD PUSH2 0x1633 JUMP JUMPDEST PUSH1 0x1F DUP2 GT PUSH2 0xDA6 JUMPI JUMPDEST POP DUP8 SWAP1 PUSH1 0x1F DUP4 GT PUSH1 0x1 EQ PUSH2 0xD3F JUMPI PUSH2 0xB68 SWAP3 SWAP2 PUSH1 0x0 SWAP2 DUP4 PUSH2 0xD34 JUMPI JUMPDEST POP POP DUP2 PUSH1 0x1 SHL SWAP2 PUSH1 0x0 NOT SWAP1 PUSH1 0x3 SHL SHR NOT AND OR SWAP1 JUMP JUMPDEST SWAP1 SSTORE JUMPDEST MLOAD DUP1 MLOAD SWAP1 PUSH1 0x2 DUP4 ADD SWAP1 PUSH1 0x1 PUSH1 0x1 PUSH1 0x40 SHL SUB DUP4 GT PUSH2 0x3FD JUMPI PUSH1 0x1 PUSH1 0x40 SHL DUP4 GT PUSH2 0x3FD JUMPI DUP7 SWAP1 DUP3 SLOAD DUP5 DUP5 SSTORE DUP1 DUP6 LT PUSH2 0xD17 JUMPI JUMPDEST POP ADD SWAP1 PUSH1 0x0 MSTORE DUP6 PUSH1 0x0 KECCAK256 PUSH1 0x0 JUMPDEST DUP4 DUP2 LT PUSH2 0xCFC JUMPI POP POP POP POP PUSH1 0x3 ADD SWAP1 MLOAD SWAP1 DUP2 MLOAD SWAP2 PUSH1 0x1 PUSH1 0x40 SHL DUP4 GT PUSH2 0x3FD JUMPI DUP5 SWAP1 DUP3 SLOAD DUP5 DUP5 SSTORE DUP1 DUP6 LT PUSH2 0xC61 JUMPI JUMPDEST POP ADD SWAP1 PUSH1 0x0 MSTORE DUP4 PUSH1 0x0 KECCAK256 PUSH1 0x0 SWAP2 JUMPDEST DUP4 DUP4 LT PUSH2 0xC44 JUMPI DUP8 PUSH32 0x9E1FF75184927294C932317CC152FB871DEB7F4A2F4169D44CAA04F2905AF813 PUSH2 0xC2B DUP10 PUSH2 0xC38 DUP11 DUP11 PUSH1 0x40 MLOAD SWAP5 DUP6 SWAP5 PUSH1 0x60 DUP7 MSTORE PUSH1 0x60 DUP7 ADD SWAP1 PUSH2 0x15F2 JUMP JUMPDEST SWAP2 DUP5 DUP4 SUB SWAP1 DUP6 ADD MSTORE PUSH2 0x15F2 JUMP JUMPDEST PUSH1 0x0 PUSH1 0x40 DUP4 ADD MSTORE SUB SWAP1 LOG2 STOP JUMPDEST PUSH1 0x4 DUP7 DUP3 PUSH2 0xC55 PUSH1 0x1 SWAP5 MLOAD DUP7 PUSH2 0x180D JUMP JUMPDEST ADD SWAP3 ADD SWAP3 ADD SWAP2 SWAP1 PUSH2 0xBE5 JUMP JUMPDEST SWAP1 SWAP2 POP PUSH1 0x1 PUSH1 0x1 PUSH1 0xFE SHL SUB DUP2 AND DUP2 SUB PUSH2 0xCE6 JUMPI PUSH1 0x1 PUSH1 0x1 PUSH1 0xFE SHL SUB DUP5 AND DUP5 SUB PUSH2 0xCE6 JUMPI SWAP1 DUP6 SWAP2 DUP4 PUSH1 0x0 MSTORE DUP3 PUSH1 0x0 KECCAK256 SWAP1 PUSH1 0x2 SHL DUP2 ADD SWAP1 DUP6 PUSH1 0x2 SHL ADD JUMPDEST DUP2 DUP2 LT PUSH2 0xCA9 JUMPI POP PUSH2 0xBD7 JUMP JUMPDEST PUSH1 0x4 SWAP2 SWAP3 SWAP4 POP PUSH2 0xCB8 DUP2 PUSH2 0x17BE JUMP JUMPDEST PUSH2 0xCC4 PUSH1 0x1 DUP3 ADD PUSH2 0x17BE JUMP JUMPDEST PUSH2 0xCD0 PUSH1 0x2 DUP3 ADD PUSH2 0x17BE JUMP JUMPDEST PUSH2 0xCDC PUSH1 0x3 DUP3 ADD PUSH2 0x17BE JUMP JUMPDEST ADD SWAP1 DUP7 SWAP3 SWAP2 PUSH2 0xC9C JUMP JUMPDEST PUSH4 0x4E487B71 PUSH1 0xE0 SHL PUSH1 0x0 MSTORE PUSH1 0x11 PUSH1 0x4 MSTORE PUSH1 0x24 PUSH1 0x0 REVERT JUMPDEST DUP3 MLOAD PUSH1 0x1 PUSH1 0x1 PUSH1 0xA0 SHL SUB AND DUP3 DUP3 ADD SSTORE SWAP2 DUP8 ADD SWAP2 PUSH1 0x1 ADD PUSH2 0xBA9 JUMP JUMPDEST PUSH2 0xD2E SWAP1 DUP5 PUSH1 0x0 MSTORE DUP6 DUP5 PUSH1 0x0 KECCAK256 SWAP2 DUP3 ADD SWAP2 ADD PUSH2 0x17A7 JUMP JUMPDEST DUP11 PUSH2 0xB9C JUMP JUMPDEST ADD MLOAD SWAP1 POP DUP12 DUP1 PUSH2 0xB53 JUMP JUMPDEST SWAP1 PUSH1 0x1F NOT DUP4 AND SWAP2 DUP5 PUSH1 0x0 MSTORE DUP10 PUSH1 0x0 KECCAK256 SWAP3 PUSH1 0x0 JUMPDEST DUP12 DUP3 DUP3 LT PUSH2 0xD90 JUMPI POP POP SWAP1 DUP5 PUSH1 0x1 SWAP6 SWAP5 SWAP4 SWAP3 LT PUSH2 0xD77 JUMPI JUMPDEST POP POP POP DUP2 SHL ADD SWAP1 SSTORE PUSH2 0xB6B JUMP JUMPDEST ADD MLOAD PUSH1 0x0 NOT PUSH1 0xF8 DUP5 PUSH1 0x3 SHL AND SHR NOT AND SWAP1 SSTORE DUP11 DUP1 DUP1 PUSH2 0xD6A JUMP JUMPDEST PUSH1 0x1 DUP6 SWAP7 DUP3 SWAP4 SWAP7 DUP7 ADD MLOAD DUP2 SSTORE ADD SWAP6 ADD SWAP4 ADD PUSH2 0xD52 JUMP JUMPDEST PUSH2 0xDD1 SWAP1 DUP5 PUSH1 0x0 MSTORE DUP10 PUSH1 0x0 KECCAK256 PUSH1 0x1F DUP6 ADD PUSH1 0x5 SHR DUP2 ADD SWAP2 DUP12 DUP7 LT PUSH2 0xDD7 JUMPI JUMPDEST PUSH1 0x1F ADD PUSH1 0x5 SHR ADD SWAP1 PUSH2 0x17A7 JUMP JUMPDEST DUP11 PUSH2 0xB37 JUMP JUMPDEST SWAP1 SWAP2 POP DUP2 SWAP1 PUSH2 0xDC4 JUMP JUMPDEST PUSH1 0x20 SWAP1 PUSH1 0x40 MLOAD PUSH2 0xDF0 DUP2 PUSH2 0x14FB JUMP JUMPDEST PUSH1 0x60 DUP2 MSTORE PUSH1 0x60 DUP4 DUP3 ADD MSTORE PUSH1 0x60 PUSH1 0x40 DUP3 ADD MSTORE PUSH1 0x60 DUP1 DUP3 ADD MSTORE DUP3 DUP3 DUP8 ADD ADD MSTORE ADD PUSH2 0xA84 JUMP JUMPDEST PUSH1 0x40 MLOAD PUSH3 0x461BCD PUSH1 0xE5 SHL DUP2 MSTORE PUSH1 0x20 PUSH1 0x4 DUP3 ADD MSTORE PUSH1 0x15 PUSH1 0x24 DUP3 ADD MSTORE PUSH21 0x536F6369616C206163636F756E7420657869737473 PUSH1 0x58 SHL PUSH1 0x44 DUP3 ADD MSTORE PUSH1 0x64 SWAP1 REVERT JUMPDEST CALLVALUE PUSH2 0x10B JUMPI PUSH1 0x0 CALLDATASIZE PUSH1 0x3 NOT ADD SLT PUSH2 0x10B JUMPI PUSH1 0x1 SLOAD CALLER PUSH1 0x1 PUSH1 0x1 PUSH1 0xA0 SHL SUB SWAP1 SWAP2 AND SUB PUSH2 0xEC4 JUMPI PUSH1 0x1 DUP1 SLOAD PUSH1 0x1 PUSH1 0x1 PUSH1 0xA0 SHL SUB NOT SWAP1 DUP2 AND SWAP1 SWAP2 SSTORE PUSH1 0x0 DUP1 SLOAD CALLER SWAP3 DUP2 AND DUP4 OR DUP3 SSTORE PUSH1 0x1 PUSH1 0x1 PUSH1 0xA0 SHL SUB AND SWAP1 PUSH32 0x8BE0079C531659141344CD1FD0A4F28419497F9722A3DAAFE3B4186F6B6457E0 SWAP1 DUP1 LOG3 STOP JUMPDEST PUSH4 0x118CDAA7 PUSH1 0xE0 SHL PUSH1 0x0 MSTORE CALLER PUSH1 0x4 MSTORE PUSH1 0x24 PUSH1 0x0 REVERT JUMPDEST CALLVALUE PUSH2 0x10B JUMPI PUSH1 0x0 CALLDATASIZE PUSH1 0x3 NOT ADD SLT PUSH2 0x10B JUMPI PUSH2 0xEF2 PUSH2 0x1C85 JUMP JUMPDEST PUSH1 0x1 DUP1 SLOAD PUSH1 0x1 PUSH1 0x1 PUSH1 0xA0 SHL SUB NOT SWAP1 DUP2 AND SWAP1 SWAP2 SSTORE PUSH1 0x0 DUP1 SLOAD SWAP2 DUP3 AND DUP2 SSTORE SWAP1 PUSH1 0x1 PUSH1 0x1 PUSH1 0xA0 SHL SUB AND PUSH32 0x8BE0079C531659141344CD1FD0A4F28419497F9722A3DAAFE3B4186F6B6457E0 DUP3 DUP1 LOG3 STOP JUMPDEST CALLVALUE PUSH2 0x10B JUMPI PUSH1 0x20 CALLDATASIZE PUSH1 0x3 NOT ADD SLT PUSH2 0x10B JUMPI PUSH1 0x1 PUSH1 0x1 PUSH1 0xA0 SHL SUB PUSH2 0xF5F PUSH2 0x15DC JUMP JUMPDEST AND PUSH1 0x0 MSTORE PUSH1 0x7 PUSH1 0x20 MSTORE PUSH1 0x40 PUSH1 0x0 KECCAK256 SLOAD DUP1 ISZERO PUSH2 0xF7F JUMPI PUSH2 0x67F PUSH1 0x20 SWAP2 PUSH2 0x1C4D JUMP JUMPDEST PUSH1 0x40 MLOAD PUSH3 0x461BCD PUSH1 0xE5 SHL DUP2 MSTORE PUSH1 0x20 PUSH1 0x4 DUP3 ADD MSTORE PUSH1 0x10 PUSH1 0x24 DUP3 ADD MSTORE PUSH16 0x15D85B1B195D081B9BDD08199BDD5B99 PUSH1 0x82 SHL PUSH1 0x44 DUP3 ADD MSTORE PUSH1 0x64 SWAP1 REVERT JUMPDEST CALLVALUE PUSH2 0x10B JUMPI PUSH1 0x20 CALLDATASIZE PUSH1 0x3 NOT ADD SLT PUSH2 0x10B JUMPI PUSH1 0x1 PUSH1 0x1 PUSH1 0xA0 SHL SUB PUSH2 0xFD8 PUSH2 0x15DC JUMP JUMPDEST AND PUSH1 0x0 MSTORE PUSH1 0x7 PUSH1 0x20 MSTORE PUSH1 0x20 PUSH1 0x40 PUSH1 0x0 KECCAK256 SLOAD PUSH1 0x40 MLOAD SWAP1 DUP2 MSTORE RETURN JUMPDEST CALLVALUE PUSH2 0x10B JUMPI PUSH1 0x20 CALLDATASIZE PUSH1 0x3 NOT ADD SLT PUSH2 0x10B JUMPI PUSH1 0x4 CALLDATALOAD PUSH1 0x0 MSTORE PUSH1 0x6 PUSH1 0x20 MSTORE PUSH1 0x20 PUSH1 0x40 PUSH1 0x0 KECCAK256 SLOAD PUSH1 0x40 MLOAD SWAP1 DUP2 MSTORE RETURN JUMPDEST CALLVALUE PUSH2 0x10B JUMPI PUSH1 0x20 PUSH2 0x102D CALLDATASIZE PUSH2 0x158D JUMP JUMPDEST SWAP1 DUP1 SWAP3 SWAP2 CALLER PUSH1 0x0 MSTORE PUSH1 0x3 DUP4 MSTORE PUSH2 0x104A PUSH1 0xFF PUSH1 0x40 PUSH1 0x0 KECCAK256 SLOAD AND PUSH2 0x1739 JUMP JUMPDEST DUP2 ADD SUB SLT PUSH2 0x10B JUMPI CALLDATALOAD PUSH1 0x1 PUSH1 0x1 PUSH1 0xA0 SHL SUB DUP2 AND SWAP1 DUP2 SWAP1 SUB PUSH2 0x10B JUMPI DUP1 PUSH1 0x0 MSTORE PUSH1 0x7 PUSH1 0x20 MSTORE PUSH1 0x40 PUSH1 0x0 KECCAK256 SLOAD PUSH2 0x13F9 JUMPI PUSH2 0x1083 PUSH1 0x2 SLOAD PUSH2 0x1774 JUMP JUMPDEST DUP1 PUSH1 0x2 SSTORE DUP2 PUSH1 0x0 MSTORE PUSH1 0x7 PUSH1 0x20 MSTORE DUP1 PUSH1 0x40 PUSH1 0x0 KECCAK256 SSTORE PUSH1 0x40 SWAP2 DUP3 MLOAD SWAP1 PUSH2 0x10A7 DUP5 DUP4 PUSH2 0x1516 JUMP JUMPDEST PUSH1 0x1 DUP3 MSTORE PUSH1 0x1F NOT DUP5 ADD CALLDATASIZE PUSH1 0x20 DUP5 ADD CALLDATACOPY DUP1 PUSH2 0x10C0 DUP4 PUSH2 0x179A JUMP JUMPDEST MSTORE DUP4 MLOAD SWAP4 PUSH1 0x0 PUSH2 0x10D1 PUSH1 0x20 DUP8 PUSH2 0x1516 JUMP JUMPDEST DUP6 MSTORE PUSH1 0x0 DUP1 JUMPDEST DUP2 DUP2 LT PUSH2 0x13C9 JUMPI POP POP DUP1 MLOAD PUSH2 0x10EB DUP2 PUSH2 0x14FB JUMP JUMPDEST DUP5 DUP2 MSTORE PUSH1 0x20 SWAP4 DUP3 MLOAD PUSH2 0x10FD DUP7 DUP3 PUSH2 0x1516 JUMP JUMPDEST PUSH1 0x0 DUP2 MSTORE DUP6 DUP4 ADD SWAP1 DUP2 MSTORE DUP4 DUP4 ADD SWAP2 DUP3 MSTORE PUSH1 0x60 DUP4 ADD SWAP8 DUP9 MSTORE DUP7 PUSH1 0x0 MSTORE PUSH1 0x4 DUP7 MSTORE DUP4 PUSH1 0x0 KECCAK256 SWAP3 MLOAD DUP4 SSTORE PUSH1 0x1 DUP4 ADD SWAP1 MLOAD DUP1 MLOAD SWAP1 PUSH1 0x1 PUSH1 0x1 PUSH1 0x40 SHL SUB DUP3 GT PUSH2 0x3FD JUMPI PUSH2 0x1145 DUP4 SLOAD PUSH2 0x1633 JUMP JUMPDEST PUSH1 0x1F DUP2 GT PUSH2 0x1399 JUMPI JUMPDEST POP DUP8 SWAP1 PUSH1 0x1F DUP4 GT PUSH1 0x1 EQ PUSH2 0x1332 JUMPI PUSH2 0x117E SWAP3 SWAP2 PUSH1 0x0 SWAP2 DUP4 PUSH2 0xD34 JUMPI POP POP DUP2 PUSH1 0x1 SHL SWAP2 PUSH1 0x0 NOT SWAP1 PUSH1 0x3 SHL SHR NOT AND OR SWAP1 JUMP JUMPDEST SWAP1 SSTORE JUMPDEST MLOAD DUP1 MLOAD SWAP1 PUSH1 0x2 DUP4 ADD SWAP1 PUSH1 0x1 PUSH1 0x1 PUSH1 0x40 SHL SUB DUP4 GT PUSH2 0x3FD JUMPI PUSH1 0x1 PUSH1 0x40 SHL DUP4 GT PUSH2 0x3FD JUMPI DUP7 SWAP1 DUP3 SLOAD DUP5 DUP5 SSTORE DUP1 DUP6 LT PUSH2 0x1315 JUMPI JUMPDEST POP ADD SWAP1 PUSH1 0x0 MSTORE DUP6 PUSH1 0x0 KECCAK256 PUSH1 0x0 JUMPDEST DUP4 DUP2 LT PUSH2 0x12FA JUMPI POP POP POP POP PUSH1 0x3 ADD SWAP5 MLOAD DUP1 MLOAD SWAP1 PUSH1 0x1 PUSH1 0x40 SHL DUP3 GT PUSH2 0x3FD JUMPI DUP5 SWAP1 DUP8 SLOAD DUP4 DUP10 SSTORE DUP1 DUP5 LT PUSH2 0x1275 JUMPI JUMPDEST POP ADD SWAP6 PUSH1 0x0 MSTORE DUP4 PUSH1 0x0 KECCAK256 SWAP6 PUSH1 0x0 SWAP1 JUMPDEST DUP3 DUP3 LT PUSH2 0x1258 JUMPI DUP7 PUSH32 0x9E1FF75184927294C932317CC152FB871DEB7F4A2F4169D44CAA04F2905AF813 PUSH1 0xC0 DUP9 DUP9 DUP9 PUSH1 0xA0 DUP2 MLOAD SWAP4 PUSH1 0x60 DUP6 MSTORE PUSH1 0x6 PUSH1 0x60 DUP7 ADD MSTORE PUSH6 0x1DD85B1B195D PUSH1 0xD2 SHL PUSH1 0x80 DUP7 ADD MSTORE DUP5 ADD MSTORE PUSH1 0x0 PUSH1 0xA0 DUP5 ADD MSTORE DUP3 ADD MSTORE LOG2 STOP JUMPDEST PUSH1 0x4 DUP7 DUP3 PUSH2 0x1269 PUSH1 0x1 SWAP5 MLOAD DUP13 PUSH2 0x180D JUMP JUMPDEST ADD SWAP9 ADD SWAP2 ADD SWAP1 SWAP7 PUSH2 0x11FB JUMP JUMPDEST SWAP1 SWAP2 POP PUSH1 0x1 PUSH1 0x1 PUSH1 0xFE SHL SUB DUP2 AND DUP2 SUB PUSH2 0xCE6 JUMPI PUSH1 0x1 PUSH1 0x1 PUSH1 0xFE SHL SUB DUP4 AND DUP4 SUB PUSH2 0xCE6 JUMPI SWAP1 DUP6 SWAP2 DUP9 PUSH1 0x0 MSTORE DUP3 PUSH1 0x0 KECCAK256 SWAP1 PUSH1 0x2 SHL DUP2 ADD SWAP1 DUP5 PUSH1 0x2 SHL ADD JUMPDEST DUP2 DUP2 LT PUSH2 0x12BD JUMPI POP PUSH2 0x11EC JUMP JUMPDEST PUSH1 0x4 SWAP2 SWAP3 SWAP4 POP PUSH2 0x12CC DUP2 PUSH2 0x17BE JUMP JUMPDEST PUSH2 0x12D8 PUSH1 0x1 DUP3 ADD PUSH2 0x17BE JUMP JUMPDEST PUSH2 0x12E4 PUSH1 0x2 DUP3 ADD PUSH2 0x17BE JUMP JUMPDEST PUSH2 0x12F0 PUSH1 0x3 DUP3 ADD PUSH2 0x17BE JUMP JUMPDEST ADD SWAP1 DUP7 SWAP3 SWAP2 PUSH2 0x12B0 JUMP JUMPDEST DUP3 MLOAD PUSH1 0x1 PUSH1 0x1 PUSH1 0xA0 SHL SUB AND DUP3 DUP3 ADD SSTORE SWAP2 DUP8 ADD SWAP2 PUSH1 0x1 ADD PUSH2 0x11BF JUMP JUMPDEST PUSH2 0x132C SWAP1 DUP5 PUSH1 0x0 MSTORE DUP6 DUP5 PUSH1 0x0 KECCAK256 SWAP2 DUP3 ADD SWAP2 ADD PUSH2 0x17A7 JUMP JUMPDEST DUP11 PUSH2 0x11B2 JUMP JUMPDEST SWAP1 PUSH1 0x1F NOT DUP4 AND SWAP2 DUP5 PUSH1 0x0 MSTORE DUP10 PUSH1 0x0 KECCAK256 SWAP3 PUSH1 0x0 JUMPDEST DUP12 DUP3 DUP3 LT PUSH2 0x1383 JUMPI POP POP SWAP1 DUP5 PUSH1 0x1 SWAP6 SWAP5 SWAP4 SWAP3 LT PUSH2 0x136A JUMPI JUMPDEST POP POP POP DUP2 SHL ADD SWAP1 SSTORE PUSH2 0x1181 JUMP JUMPDEST ADD MLOAD PUSH1 0x0 NOT PUSH1 0xF8 DUP5 PUSH1 0x3 SHL AND SHR NOT AND SWAP1 SSTORE DUP11 DUP1 DUP1 PUSH2 0x135D JUMP JUMPDEST PUSH1 0x1 DUP6 SWAP7 DUP3 SWAP4 SWAP7 DUP7 ADD MLOAD DUP2 SSTORE ADD SWAP6 ADD SWAP4 ADD PUSH2 0x1345 JUMP JUMPDEST PUSH2 0x13C3 SWAP1 DUP5 PUSH1 0x0 MSTORE DUP10 PUSH1 0x0 KECCAK256 PUSH1 0x1F DUP6 ADD PUSH1 0x5 SHR DUP2 ADD SWAP2 DUP12 DUP7 LT PUSH2 0xDD7 JUMPI PUSH1 0x1F ADD PUSH1 0x5 SHR ADD SWAP1 PUSH2 0x17A7 JUMP JUMPDEST DUP11 PUSH2 0x114E JUMP JUMPDEST PUSH1 0x20 SWAP1 DUP4 MLOAD PUSH2 0x13D7 DUP2 PUSH2 0x14FB JUMP JUMPDEST PUSH1 0x60 DUP2 MSTORE PUSH1 0x60 DUP4 DUP3 ADD MSTORE PUSH1 0x60 DUP6 DUP3 ADD MSTORE PUSH1 0x60 DUP1 DUP3 ADD MSTORE DUP3 DUP3 DUP11 ADD ADD MSTORE ADD PUSH2 0x10D7 JUMP JUMPDEST PUSH1 0x40 MLOAD PUSH3 0x461BCD PUSH1 0xE5 SHL DUP2 MSTORE PUSH1 0x20 PUSH1 0x4 DUP3 ADD MSTORE PUSH1 0xD PUSH1 0x24 DUP3 ADD MSTORE PUSH13 0x57616C6C657420657869737473 PUSH1 0x98 SHL PUSH1 0x44 DUP3 ADD MSTORE PUSH1 0x64 SWAP1 REVERT JUMPDEST CALLVALUE PUSH2 0x10B JUMPI PUSH1 0x40 CALLDATASIZE PUSH1 0x3 NOT ADD SLT PUSH2 0x10B JUMPI PUSH1 0x4 CALLDATALOAD PUSH1 0x1 PUSH1 0x1 PUSH1 0x40 SHL SUB DUP2 GT PUSH2 0x10B JUMPI PUSH2 0x145E SWAP1 CALLDATASIZE SWAP1 PUSH1 0x4 ADD PUSH2 0x1537 JUMP JUMPDEST PUSH1 0x24 CALLDATALOAD PUSH1 0x1 PUSH1 0x1 PUSH1 0x40 SHL SUB DUP2 GT PUSH2 0x10B JUMPI PUSH2 0x1494 PUSH2 0x1483 PUSH2 0x460 SWAP3 CALLDATASIZE SWAP1 PUSH1 0x4 ADD PUSH2 0x1537 JUMP JUMPDEST PUSH1 0x40 MLOAD SWAP3 DUP4 SWAP2 PUSH1 0x20 DUP4 ADD SWAP6 DUP7 PUSH2 0x1711 JUMP JUMPDEST MLOAD SWAP1 KECCAK256 PUSH1 0x0 MSTORE PUSH1 0x6 PUSH1 0x20 MSTORE PUSH1 0x40 PUSH1 0x0 KECCAK256 SLOAD DUP1 ISZERO PUSH2 0x14B6 JUMPI PUSH2 0x67F PUSH1 0x20 SWAP2 PUSH2 0x1C4D JUMP JUMPDEST PUSH1 0x40 MLOAD PUSH3 0x461BCD PUSH1 0xE5 SHL DUP2 MSTORE PUSH1 0x20 PUSH1 0x4 DUP3 ADD MSTORE PUSH1 0x18 PUSH1 0x24 DUP3 ADD MSTORE PUSH32 0x536F6369616C206163636F756E74206E6F7420666F756E640000000000000000 PUSH1 0x44 DUP3 ADD MSTORE PUSH1 0x64 SWAP1 REVERT JUMPDEST PUSH1 0x80 DUP2 ADD SWAP1 DUP2 LT PUSH1 0x1 PUSH1 0x1 PUSH1 0x40 SHL SUB DUP3 GT OR PUSH2 0x3FD JUMPI PUSH1 0x40 MSTORE JUMP JUMPDEST SWAP1 PUSH1 0x1F DUP1 NOT SWAP2 ADD AND DUP2 ADD SWAP1 DUP2 LT PUSH1 0x1 PUSH1 0x1 PUSH1 0x40 SHL SUB DUP3 GT OR PUSH2 0x3FD JUMPI PUSH1 0x40 MSTORE JUMP JUMPDEST DUP2 PUSH1 0x1F DUP3 ADD SLT ISZERO PUSH2 0x10B JUMPI DUP1 CALLDATALOAD SWAP1 PUSH1 0x1 PUSH1 0x1 PUSH1 0x40 SHL SUB DUP3 GT PUSH2 0x3FD JUMPI PUSH1 0x40 MLOAD SWAP3 PUSH2 0x156B PUSH1 0x1F DUP5 ADD PUSH1 0x1F NOT AND PUSH1 0x20 ADD DUP6 PUSH2 0x1516 JUMP JUMPDEST DUP3 DUP5 MSTORE PUSH1 0x20 DUP4 DUP4 ADD ADD GT PUSH2 0x10B JUMPI DUP2 PUSH1 0x0 SWAP3 PUSH1 0x20 DUP1 SWAP4 ADD DUP4 DUP7 ADD CALLDATACOPY DUP4 ADD ADD MSTORE SWAP1 JUMP JUMPDEST SWAP1 PUSH1 0x20 PUSH1 0x3 NOT DUP4 ADD SLT PUSH2 0x10B JUMPI PUSH1 0x4 CALLDATALOAD PUSH1 0x1 PUSH1 0x1 PUSH1 0x40 SHL SUB DUP2 GT PUSH2 0x10B JUMPI DUP3 PUSH1 0x23 DUP3 ADD SLT ISZERO PUSH2 0x10B JUMPI DUP1 PUSH1 0x4 ADD CALLDATALOAD SWAP3 PUSH1 0x1 PUSH1 0x1 PUSH1 0x40 SHL SUB DUP5 GT PUSH2 0x10B JUMPI PUSH1 0x24 DUP5 DUP4 ADD ADD GT PUSH2 0x10B JUMPI PUSH1 0x24 ADD SWAP2 SWAP1 JUMP JUMPDEST PUSH1 0x4 CALLDATALOAD SWAP1 PUSH1 0x1 PUSH1 0x1 PUSH1 0xA0 SHL SUB DUP3 AND DUP3 SUB PUSH2 0x10B JUMPI JUMP JUMPDEST SWAP2 SWAP1 DUP3 MLOAD SWAP3 DUP4 DUP3 MSTORE PUSH1 0x0 JUMPDEST DUP5 DUP2 LT PUSH2 0x161E JUMPI POP POP DUP3 PUSH1 0x0 PUSH1 0x20 DUP1 SWAP5 SWAP6 DUP5 ADD ADD MSTORE PUSH1 0x1F DUP1 NOT SWAP2 ADD AND ADD ADD SWAP1 JUMP JUMPDEST DUP1 PUSH1 0x20 DUP1 SWAP3 DUP5 ADD ADD MLOAD DUP3 DUP3 DUP7 ADD ADD MSTORE ADD PUSH2 0x15FD JUMP JUMPDEST SWAP1 PUSH1 0x1 DUP3 DUP2 SHR SWAP3 AND DUP1 ISZERO PUSH2 0x1663 JUMPI JUMPDEST PUSH1 0x20 DUP4 LT EQ PUSH2 0x164D JUMPI JUMP JUMPDEST PUSH4 0x4E487B71 PUSH1 0xE0 SHL PUSH1 0x0 MSTORE PUSH1 0x22 PUSH1 0x4 MSTORE PUSH1 0x24 PUSH1 0x0 REVERT JUMPDEST SWAP2 PUSH1 0x7F AND SWAP2 PUSH2 0x1642 JUMP JUMPDEST SWAP1 PUSH1 0x40 MLOAD SWAP2 DUP3 PUSH1 0x0 DUP3 SLOAD SWAP3 PUSH2 0x1681 DUP5 PUSH2 0x1633 JUMP JUMPDEST DUP1 DUP5 MSTORE SWAP4 PUSH1 0x1 DUP2 AND SWAP1 DUP2 ISZERO PUSH2 0x16EF JUMPI POP PUSH1 0x1 EQ PUSH2 0x16A8 JUMPI JUMPDEST POP PUSH2 0x16A6 SWAP3 POP SUB DUP4 PUSH2 0x1516 JUMP JUMPDEST JUMP JUMPDEST SWAP1 POP PUSH1 0x0 SWAP3 SWAP2 SWAP3 MSTORE PUSH1 0x20 PUSH1 0x0 KECCAK256 SWAP1 PUSH1 0x0 SWAP2 JUMPDEST DUP2 DUP4 LT PUSH2 0x16D3 JUMPI POP POP SWAP1 PUSH1 0x20 PUSH2 0x16A6 SWAP3 DUP3 ADD ADD CODESIZE PUSH2 0x1699 JUMP JUMPDEST PUSH1 0x20 SWAP2 SWAP4 POP DUP1 PUSH1 0x1 SWAP2 SLOAD DUP4 DUP6 DUP10 ADD ADD MSTORE ADD SWAP2 ADD SWAP1 SWAP2 DUP5 SWAP3 PUSH2 0x16BA JUMP JUMPDEST SWAP1 POP PUSH1 0x20 SWAP3 POP PUSH2 0x16A6 SWAP5 SWAP2 POP PUSH1 0xFF NOT AND DUP3 DUP5 ADD MSTORE ISZERO ISZERO PUSH1 0x5 SHL DUP3 ADD ADD CODESIZE PUSH2 0x1699 JUMP JUMPDEST SWAP1 SWAP2 PUSH2 0x1728 PUSH2 0x1736 SWAP4 PUSH1 0x40 DUP5 MSTORE PUSH1 0x40 DUP5 ADD SWAP1 PUSH2 0x15F2 JUMP JUMPDEST SWAP2 PUSH1 0x20 DUP2 DUP5 SUB SWAP2 ADD MSTORE PUSH2 0x15F2 JUMP JUMPDEST SWAP1 JUMP JUMPDEST ISZERO PUSH2 0x1740 JUMPI JUMP JUMPDEST PUSH1 0x40 MLOAD PUSH3 0x461BCD PUSH1 0xE5 SHL DUP2 MSTORE PUSH1 0x20 PUSH1 0x4 DUP3 ADD MSTORE PUSH1 0xC PUSH1 0x24 DUP3 ADD MSTORE PUSH12 0x155B985D5D1A1BDC9A5E9959 PUSH1 0xA2 SHL PUSH1 0x44 DUP3 ADD MSTORE PUSH1 0x64 SWAP1 REVERT JUMPDEST PUSH1 0x0 NOT DUP2 EQ PUSH2 0xCE6 JUMPI PUSH1 0x1 ADD SWAP1 JUMP JUMPDEST PUSH1 0x1 PUSH1 0x1 PUSH1 0x40 SHL SUB DUP2 GT PUSH2 0x3FD JUMPI PUSH1 0x5 SHL PUSH1 0x20 ADD SWAP1 JUMP JUMPDEST DUP1 MLOAD ISZERO PUSH2 0x57A JUMPI PUSH1 0x20 ADD SWAP1 JUMP JUMPDEST DUP2 DUP2 LT PUSH2 0x17B2 JUMPI POP POP JUMP JUMPDEST PUSH1 0x0 DUP2 SSTORE PUSH1 0x1 ADD PUSH2 0x17A7 JUMP JUMPDEST PUSH2 0x17C8 DUP2 SLOAD PUSH2 0x1633 JUMP JUMPDEST SWAP1 DUP2 PUSH2 0x17D2 JUMPI POP POP JUMP JUMPDEST DUP2 PUSH1 0x1F PUSH1 0x0 SWAP4 GT PUSH1 0x1 EQ PUSH2 0x17E4 JUMPI POP SSTORE JUMP JUMPDEST DUP2 DUP4 MSTORE PUSH1 0x20 DUP4 KECCAK256 PUSH2 0x1800 SWAP2 PUSH1 0x1F ADD PUSH1 0x5 SHR DUP2 ADD SWAP1 PUSH1 0x1 ADD PUSH2 0x17A7 JUMP JUMPDEST DUP1 DUP3 MSTORE DUP2 PUSH1 0x20 DUP2 KECCAK256 SWAP2 SSTORE SSTORE JUMP JUMPDEST SWAP2 DUP2 MLOAD SWAP3 DUP4 MLOAD PUSH1 0x1 PUSH1 0x1 PUSH1 0x40 SHL SUB DUP2 GT PUSH2 0x3FD JUMPI PUSH2 0x182B DUP3 SLOAD PUSH2 0x1633 JUMP JUMPDEST PUSH1 0x1F DUP2 GT PUSH2 0x1BCD JUMPI JUMPDEST POP PUSH1 0x20 SWAP5 PUSH1 0x1F DUP3 GT PUSH1 0x1 EQ PUSH2 0x1B68 JUMPI PUSH2 0x1868 SWAP3 SWAP4 SWAP5 SWAP6 DUP3 SWAP2 PUSH1 0x0 SWAP3 PUSH2 0x1992 JUMPI POP POP DUP2 PUSH1 0x1 SHL SWAP2 PUSH1 0x0 NOT SWAP1 PUSH1 0x3 SHL SHR NOT AND OR SWAP1 JUMP JUMPDEST DUP2 SSTORE JUMPDEST PUSH1 0x1 DUP2 ADD PUSH1 0x20 DUP5 ADD MLOAD DUP1 MLOAD SWAP1 PUSH1 0x1 PUSH1 0x1 PUSH1 0x40 SHL SUB DUP3 GT PUSH2 0x3FD JUMPI PUSH2 0x188F DUP4 SLOAD PUSH2 0x1633 JUMP JUMPDEST PUSH1 0x1F DUP2 GT PUSH2 0x1B36 JUMPI JUMPDEST POP PUSH1 0x20 SWAP1 PUSH1 0x1F DUP4 GT PUSH1 0x1 EQ PUSH2 0x1ACF JUMPI PUSH2 0x18C9 SWAP3 SWAP2 PUSH1 0x0 SWAP2 DUP4 PUSH2 0x1992 JUMPI POP POP DUP2 PUSH1 0x1 SHL SWAP2 PUSH1 0x0 NOT SWAP1 PUSH1 0x3 SHL SHR NOT AND OR SWAP1 JUMP JUMPDEST SWAP1 SSTORE JUMPDEST PUSH1 0x2 DUP2 ADD PUSH1 0x40 DUP5 ADD MLOAD DUP1 MLOAD SWAP1 PUSH1 0x1 PUSH1 0x1 PUSH1 0x40 SHL SUB DUP3 GT PUSH2 0x3FD JUMPI PUSH2 0x18F0 DUP4 SLOAD PUSH2 0x1633 JUMP JUMPDEST PUSH1 0x1F DUP2 GT PUSH2 0x1A9D JUMPI JUMPDEST POP PUSH1 0x20 SWAP1 PUSH1 0x1F DUP4 GT PUSH1 0x1 EQ PUSH2 0x1A31 JUMPI DUP3 PUSH1 0x60 SWAP6 SWAP4 PUSH1 0x3 SWAP6 SWAP4 PUSH2 0x1931 SWAP4 PUSH1 0x0 SWAP3 PUSH2 0x1992 JUMPI POP POP DUP2 PUSH1 0x1 SHL SWAP2 PUSH1 0x0 NOT SWAP1 PUSH1 0x3 SHL SHR NOT AND OR SWAP1 JUMP JUMPDEST SWAP1 SSTORE JUMPDEST ADD SWAP3 ADD MLOAD SWAP2 DUP3 MLOAD PUSH1 0x1 PUSH1 0x1 PUSH1 0x40 SHL SUB DUP2 GT PUSH2 0x3FD JUMPI PUSH2 0x1953 DUP3 SLOAD PUSH2 0x1633 JUMP JUMPDEST PUSH1 0x1F DUP2 GT PUSH2 0x19FF JUMPI JUMPDEST POP PUSH1 0x20 PUSH1 0x1F DUP3 GT PUSH1 0x1 EQ PUSH2 0x199D JUMPI DUP2 SWAP1 PUSH2 0x198E SWAP4 SWAP5 SWAP6 PUSH1 0x0 SWAP3 PUSH2 0x1992 JUMPI POP POP DUP2 PUSH1 0x1 SHL SWAP2 PUSH1 0x0 NOT SWAP1 PUSH1 0x3 SHL SHR NOT AND OR SWAP1 JUMP JUMPDEST SWAP1 SSTORE JUMP JUMPDEST ADD MLOAD SWAP1 POP CODESIZE DUP1 PUSH2 0xB53 JUMP JUMPDEST PUSH1 0x1F NOT DUP3 AND SWAP1 DUP4 PUSH1 0x0 MSTORE DUP1 PUSH1 0x0 KECCAK256 SWAP2 PUSH1 0x0 JUMPDEST DUP2 DUP2 LT PUSH2 0x19E7 JUMPI POP SWAP6 DUP4 PUSH1 0x1 SWAP6 SWAP7 SWAP8 LT PUSH2 0x19CE JUMPI JUMPDEST POP POP POP DUP2 SHL ADD SWAP1 SSTORE JUMP JUMPDEST ADD MLOAD PUSH1 0x0 NOT PUSH1 0xF8 DUP5 PUSH1 0x3 SHL AND SHR NOT AND SWAP1 SSTORE CODESIZE DUP1 DUP1 PUSH2 0x19C4 JUMP JUMPDEST SWAP2 SWAP3 PUSH1 0x20 PUSH1 0x1 DUP2 SWAP3 DUP7 DUP12 ADD MLOAD DUP2 SSTORE ADD SWAP5 ADD SWAP3 ADD PUSH2 0x19AF JUMP JUMPDEST PUSH2 0x1A2B SWAP1 DUP4 PUSH1 0x0 MSTORE PUSH1 0x20 PUSH1 0x0 KECCAK256 PUSH1 0x1F DUP5 ADD PUSH1 0x5 SHR DUP2 ADD SWAP2 PUSH1 0x20 DUP6 LT PUSH2 0xDD7 JUMPI PUSH1 0x1F ADD PUSH1 0x5 SHR ADD SWAP1 PUSH2 0x17A7 JUMP JUMPDEST CODESIZE PUSH2 0x195C JUMP JUMPDEST SWAP1 PUSH1 0x1F NOT DUP4 AND SWAP2 DUP5 PUSH1 0x0 MSTORE DUP2 PUSH1 0x0 KECCAK256 SWAP3 PUSH1 0x0 JUMPDEST DUP2 DUP2 LT PUSH2 0x1A85 JUMPI POP SWAP3 PUSH1 0x1 SWAP3 DUP6 SWAP3 PUSH1 0x60 SWAP9 SWAP7 PUSH1 0x3 SWAP9 SWAP7 LT PUSH2 0x1A6D JUMPI JUMPDEST POP POP POP DUP2 SHL ADD SWAP1 SSTORE PUSH2 0x1934 JUMP JUMPDEST ADD MLOAD PUSH1 0x0 NOT DUP4 DUP9 SHL PUSH1 0xF8 AND SHR NOT AND SWAP1 SSTORE CODESIZE DUP1 DUP1 PUSH2 0x1A60 JUMP JUMPDEST SWAP3 SWAP4 PUSH1 0x20 PUSH1 0x1 DUP2 SWAP3 DUP8 DUP7 ADD MLOAD DUP2 SSTORE ADD SWAP6 ADD SWAP4 ADD PUSH2 0x1A44 JUMP JUMPDEST PUSH2 0x1AC9 SWAP1 DUP5 PUSH1 0x0 MSTORE PUSH1 0x20 PUSH1 0x0 KECCAK256 PUSH1 0x1F DUP6 ADD PUSH1 0x5 SHR DUP2 ADD SWAP2 PUSH1 0x20 DUP7 LT PUSH2 0xDD7 JUMPI PUSH1 0x1F ADD PUSH1 0x5 SHR ADD SWAP1 PUSH2 0x17A7 JUMP JUMPDEST CODESIZE PUSH2 0x18F9 JUMP JUMPDEST SWAP1 PUSH1 0x1F NOT DUP4 AND SWAP2 DUP5 PUSH1 0x0 MSTORE DUP2 PUSH1 0x0 KECCAK256 SWAP3 PUSH1 0x0 JUMPDEST DUP2 DUP2 LT PUSH2 0x1B1E JUMPI POP SWAP1 DUP5 PUSH1 0x1 SWAP6 SWAP5 SWAP4 SWAP3 LT PUSH2 0x1B05 JUMPI JUMPDEST POP POP POP DUP2 SHL ADD SWAP1 SSTORE PUSH2 0x18CC JUMP JUMPDEST ADD MLOAD PUSH1 0x0 NOT PUSH1 0xF8 DUP5 PUSH1 0x3 SHL AND SHR NOT AND SWAP1 SSTORE CODESIZE DUP1 DUP1 PUSH2 0x1AF8 JUMP JUMPDEST SWAP3 SWAP4 PUSH1 0x20 PUSH1 0x1 DUP2 SWAP3 DUP8 DUP7 ADD MLOAD DUP2 SSTORE ADD SWAP6 ADD SWAP4 ADD PUSH2 0x1AE2 JUMP JUMPDEST PUSH2 0x1B62 SWAP1 DUP5 PUSH1 0x0 MSTORE PUSH1 0x20 PUSH1 0x0 KECCAK256 PUSH1 0x1F DUP6 ADD PUSH1 0x5 SHR DUP2 ADD SWAP2 PUSH1 0x20 DUP7 LT PUSH2 0xDD7 JUMPI PUSH1 0x1F ADD PUSH1 0x5 SHR ADD SWAP1 PUSH2 0x17A7 JUMP JUMPDEST CODESIZE PUSH2 0x1898 JUMP JUMPDEST PUSH1 0x1F NOT DUP3 AND SWAP6 DUP4 PUSH1 0x0 MSTORE DUP1 PUSH1 0x0 KECCAK256 SWAP2 PUSH1 0x0 JUMPDEST DUP9 DUP2 LT PUSH2 0x1BB5 JUMPI POP DUP4 PUSH1 0x1 SWAP6 SWAP7 SWAP8 SWAP9 LT PUSH2 0x1B9C JUMPI JUMPDEST POP POP POP DUP2 SHL ADD DUP2 SSTORE PUSH2 0x186B JUMP JUMPDEST ADD MLOAD PUSH1 0x0 NOT PUSH1 0xF8 DUP5 PUSH1 0x3 SHL AND SHR NOT AND SWAP1 SSTORE CODESIZE DUP1 DUP1 PUSH2 0x1B8F JUMP JUMPDEST SWAP2 SWAP3 PUSH1 0x20 PUSH1 0x1 DUP2 SWAP3 DUP7 DUP6 ADD MLOAD DUP2 SSTORE ADD SWAP5 ADD SWAP3 ADD PUSH2 0x1B7A JUMP JUMPDEST PUSH2 0x1BF9 SWAP1 DUP4 PUSH1 0x0 MSTORE PUSH1 0x20 PUSH1 0x0 KECCAK256 PUSH1 0x1F DUP5 ADD PUSH1 0x5 SHR DUP2 ADD SWAP2 PUSH1 0x20 DUP6 LT PUSH2 0xDD7 JUMPI PUSH1 0x1F ADD PUSH1 0x5 SHR ADD SWAP1 PUSH2 0x17A7 JUMP JUMPDEST CODESIZE PUSH2 0x1834 JUMP JUMPDEST SWAP1 PUSH1 0x40 MLOAD PUSH2 0x1C0C DUP2 PUSH2 0x14FB JUMP JUMPDEST PUSH1 0x60 PUSH2 0x1C48 PUSH1 0x3 DUP4 SWAP6 PUSH2 0x1C1E DUP2 PUSH2 0x166D JUMP JUMPDEST DUP6 MSTORE PUSH2 0x1C2C PUSH1 0x1 DUP3 ADD PUSH2 0x166D JUMP JUMPDEST PUSH1 0x20 DUP7 ADD MSTORE PUSH2 0x1C3D PUSH1 0x2 DUP3 ADD PUSH2 0x166D JUMP JUMPDEST PUSH1 0x40 DUP7 ADD MSTORE ADD PUSH2 0x166D JUMP JUMPDEST SWAP2 ADD MSTORE JUMP JUMPDEST JUMPDEST DUP1 PUSH1 0x0 MSTORE PUSH1 0x5 PUSH1 0x20 MSTORE PUSH1 0x40 PUSH1 0x0 KECCAK256 SLOAD ISZERO PUSH2 0x1736 JUMPI PUSH1 0x0 MSTORE PUSH1 0x5 PUSH1 0x20 MSTORE PUSH1 0x40 PUSH1 0x0 KECCAK256 SLOAD PUSH2 0x1C4E JUMP JUMPDEST SWAP2 SWAP1 DUP2 LT ISZERO PUSH2 0x57A JUMPI PUSH1 0x5 SHL ADD SWAP1 JUMP JUMPDEST PUSH1 0x0 SLOAD PUSH1 0x1 PUSH1 0x1 PUSH1 0xA0 SHL SUB AND CALLER SUB PUSH2 0xEC4 JUMPI JUMP JUMPDEST DUP1 SLOAD DUP3 LT ISZERO PUSH2 0x57A JUMPI PUSH1 0x0 MSTORE PUSH1 0x20 PUSH1 0x0 KECCAK256 ADD SWAP1 PUSH1 0x0 SWAP1 JUMP JUMPDEST DUP1 SLOAD DUP3 LT ISZERO PUSH2 0x57A JUMPI PUSH1 0x0 MSTORE PUSH1 0x20 PUSH1 0x0 KECCAK256 SWAP1 PUSH1 0x2 SHL ADD SWAP1 PUSH1 0x0 SWAP1 JUMP INVALID LOG2 PUSH5 0x6970667358 0x22 SLT KECCAK256 LT 0xEA PUSH14 0x80562672AB2E527C236F6D650DFB 0x26 0xBD 0xCF 0xD6 EXTCODECOPY 0xA8 SLT PUSH25 0x3334237A48561164736F6C634300081C003300000000000000 "},"methodIdentifiers":{"acceptOwnership()":"79ba5097","findRoot(uint256)":"ae10273d","getFullAccount(uint256)":"8e0d1abc","getUserIdBySocial(string,string)":"024c84fa","getUserIdByWallet(address)":"3b529df4","identities(uint256)":"eaaf77e6","identityGraph(uint256)":"cc7517d0","link(uint256[])":"d75bb74c","owner()":"8da5cb5b","pendingOwner()":"e30c3978","register(bytes)":"82fbdc9c","registerAddress(bytes)":"0c4ceac7","registrars(address)":"89aeca76","renounceOwnership()":"715018a6","socialToIdentity(bytes32)":"2056e731","totalIdentities()":"f5c5987b","transferOwnership(address)":"f2fde38b","updateRegistrar(address,bool)":"961adaf2","walletToIdentity(address)":"231a6159"}}}}}