{"contracts/LUCID.sol":{"LUCID":{"abi":[{"inputs":[],"stateMutability":"nonpayable","type":"constructor"},{"inputs":[{"internalType":"address","name":"owner","type":"address"}],"name":"OwnableInvalidOwner","type":"error"},{"inputs":[{"internalType":"address","name":"account","type":"address"}],"name":"OwnableUnauthorizedAccount","type":"error"},{"anonymous":false,"inputs":[{"indexed":false,"internalType":"uint256[]","name":"ids","type":"uint256[]"},{"indexed":true,"internalType":"uint256","name":"rootId","type":"uint256"}],"name":"IdentitiesLinked","type":"event"},{"anonymous":false,"inputs":[{"indexed":true,"internalType":"uint256","name":"identityId","type":"uint256"},{"indexed":false,"internalType":"string","name":"provider","type":"string"},{"indexed":false,"internalType":"string","name":"uid","type":"string"},{"indexed":false,"internalType":"address","name":"wallet","type":"address"}],"name":"IdentityCreated","type":"event"},{"anonymous":false,"inputs":[{"indexed":true,"internalType":"address","name":"previousOwner","type":"address"},{"indexed":true,"internalType":"address","name":"newOwner","type":"address"}],"name":"OwnershipTransferStarted","type":"event"},{"anonymous":false,"inputs":[{"indexed":true,"internalType":"address","name":"previousOwner","type":"address"},{"indexed":true,"internalType":"address","name":"newOwner","type":"address"}],"name":"OwnershipTransferred","type":"event"},{"anonymous":false,"inputs":[{"indexed":true,"internalType":"uint256","name":"identityId","type":"uint256"},{"indexed":false,"internalType":"string","name":"provider","type":"string"},{"indexed":false,"internalType":"string","name":"uid","type":"string"}],"name":"SocialAdded","type":"event"},{"anonymous":false,"inputs":[{"indexed":true,"internalType":"uint256","name":"identityId","type":"uint256"},{"indexed":false,"internalType":"address","name":"wallet","type":"address"}],"name":"WalletAdded","type":"event"},{"inputs":[],"name":"acceptOwnership","outputs":[],"stateMutability":"nonpayable","type":"function"},{"inputs":[{"internalType":"uint256","name":"id","type":"uint256"}],"name":"findRoot","outputs":[{"internalType":"uint256","name":"","type":"uint256"}],"stateMutability":"view","type":"function"},{"inputs":[{"internalType":"uint256","name":"id","type":"uint256"}],"name":"getFullAccount","outputs":[{"internalType":"string","name":"handle","type":"string"},{"internalType":"address[]","name":"wallets","type":"address[]"},{"components":[{"internalType":"string","name":"provider","type":"string"},{"internalType":"string","name":"uid","type":"string"},{"internalType":"string","name":"image","type":"string"},{"internalType":"string","name":"name","type":"string"}],"internalType":"struct LUCID.SocialProfile[]","name":"socials","type":"tuple[]"}],"stateMutability":"view","type":"function"},{"inputs":[{"internalType":"string","name":"provider","type":"string"},{"internalType":"string","name":"uid","type":"string"}],"name":"getUserIdBySocial","outputs":[{"internalType":"uint256","name":"","type":"uint256"}],"stateMutability":"view","type":"function"},{"inputs":[{"internalType":"address","name":"wallet","type":"address"}],"name":"getUserIdByWallet","outputs":[{"internalType":"uint256","name":"","type":"uint256"}],"stateMutability":"view","type":"function"},{"inputs":[{"internalType":"uint256","name":"","type":"uint256"}],"name":"identities","outputs":[{"internalType":"uint256","name":"id","type":"uint256"},{"internalType":"string","name":"handle","type":"string"}],"stateMutability":"view","type":"function"},{"inputs":[{"internalType":"uint256","name":"","type":"uint256"}],"name":"identityGraph","outputs":[{"internalType":"uint256","name":"","type":"uint256"}],"stateMutability":"view","type":"function"},{"inputs":[{"internalType":"uint256[]","name":"ids","type":"uint256[]"}],"name":"link","outputs":[],"stateMutability":"nonpayable","type":"function"},{"inputs":[],"name":"owner","outputs":[{"internalType":"address","name":"","type":"address"}],"stateMutability":"view","type":"function"},{"inputs":[],"name":"pendingOwner","outputs":[{"internalType":"address","name":"","type":"address"}],"stateMutability":"view","type":"function"},{"inputs":[{"internalType":"bytes","name":"data","type":"bytes"}],"name":"register","outputs":[],"stateMutability":"nonpayable","type":"function"},{"inputs":[{"internalType":"bytes","name":"data","type":"bytes"}],"name":"registerAddress","outputs":[],"stateMutability":"nonpayable","type":"function"},{"inputs":[],"name":"renounceOwnership","outputs":[],"stateMutability":"nonpayable","type":"function"},{"inputs":[{"internalType":"bytes32","name":"","type":"bytes32"}],"name":"socialToIdentity","outputs":[{"internalType":"uint256","name":"","type":"uint256"}],"stateMutability":"view","type":"function"},{"inputs":[],"name":"totalIdentities","outputs":[{"internalType":"uint256","name":"","type":"uint256"}],"stateMutability":"view","type":"function"},{"inputs":[{"internalType":"address","name":"newOwner","type":"address"}],"name":"transferOwnership","outputs":[],"stateMutability":"nonpayable","type":"function"},{"inputs":[{"internalType":"address","name":"","type":"address"}],"name":"walletToIdentity","outputs":[{"internalType":"uint256","name":"","type":"uint256"}],"stateMutability":"view","type":"function"}],"evm":{"bytecode":{"linkReferences":{},"object":"60808060405234607d573315606757600180546001600160a01b03199081169091556000805433928116831782556001600160a01b0316907f8be0079c531659141344cd1fd0a4f28419497f9722a3daafe3b4186f6b6457e09080a3611b8890816100838239f35b631e4fbdf760e01b600052600060045260246000fd5b600080fdfe6080604052600436101561001257600080fd5b60003560e01c8063024c84fa146113045780630c4ceac714610f0c5780632056e73114610ee0578063231a615914610ea25780633b529df414610e25578063715018a614610dc057806379ba509714610d3757806382fbdc9c1461086b5780638da5cb5b146108425780638e0d1abc14610657578063ae10273d14610631578063cc7517d014610605578063d75bb74c146101e7578063e30c3978146101be578063eaaf77e61461016e578063f2fde38b146100fa5763f5c5987b146100d757600080fd5b346100f55760003660031901126100f5576020600254604051908152f35b600080fd5b346100f55760203660031901126100f5576004356001600160a01b038116908190036100f557610128611b0a565b600180546001600160a01b03191682179055600080546001600160a01b0316907f38d16b8cac22d99fc7c124b9cd0de2d3fa1faef420bfe791d8c362d765e227009080a3005b346100f55760203660031901126100f5576004356000526003602052604060002061019d60018254920161152d565b906101ba60405192839283526040602084015260408301906114b2565b0390f35b346100f55760003660031901126100f5576001546040516001600160a01b039091168152602090f35b346100f55760203660031901126100f5576004356001600160401b0381116100f557366023820112156100f55780600401356001600160401b0381116100f55760248201908060051b9260248436920101116100f557600281106105ca5760005b8181106105605750801561054a576102608235611ad2565b9260015b8281106102ba575060405160208082528101839052916001600160fb1b03106100f55781816040927f08b3636d554db86d8278dcd57551910f84b0ba20ee3890fb6a234a82322560f495848401378101030190a2005b6102ce6102c8828587611afa565b35611ad2565b8581036102df575b50600101610264565b94929183600095929552600360205260406000209286600052600360205260406000209160009360028401945b85548110156103e35761031f8187611b1e565b60018060a01b0391549060031b1c16908160005260066020528a6040600020541461034f575b600191500161030c565b816000526006602052886040600020556002880191825492600160401b8410156103cd5760208b926103a9867ff0306f4e8668d23ebcc691f3a47412cb3e3bc7a86b5be28204cf62853914ff159460018099018155611b1e565b81549060031b9083821b91898060a01b03901b1916179055604051908152a2610345565b634e487b7160e01b600052604160045260246000fd5b5094979460039093019350919060005b845481101561052a5761040f6104098287611b36565b50611a84565b908151602083019061043061043e83516040519283916020830195866115d1565b03601f1981018352826113ec565b5190208060005260056020528860406000205414610463575b505060019150016103f3565b60005260056020528860406000205560038b018351908251604086015160608701519160405194610493866113d1565b85526020850152604084015260608301528054600160401b8110156103cd576104c191600182018155611b36565b929092610514576001946104f77f5b289625075ce8f4d013c0860b682a23ae9c1dc98240c67c7cda3ac9a2b19d1d938d95611692565b5190519061050a604051928392836115d1565b0390a28a80610457565b634e487b7160e01b600052600060045260246000fd5b5094965094909260019250600052600460205285604060002055906102d6565b634e487b7160e01b600052603260045260246000fd5b61056b818385611afa565b351515806105b3575b1561058157600101610248565b60405162461bcd60e51b815260206004820152600a602482015269125b9d985b1a5908125160b21b6044820152606490fd5b506105bf818385611afa565b356002541015610574565b60405162461bcd60e51b81526020600482015260136024820152724e656564206174206c6561737420322049447360681b6044820152606490fd5b346100f55760203660031901126100f55760043560005260046020526020604060002054604051908152f35b346100f55760203660031901126100f557602061064f600435611ad2565b604051908152f35b346100f55760203660031901126100f557610673600435611ad2565b600052600360205260406000206002810190610695600160038301920161152d565b916040518081602084549283815201809460005260206000209260005b8181106108205750506106c7925003826113ec565b8254906106d382611608565b916106e160405193846113ec565b80835260208301809560005260206000206000915b8383106108025761071b898989898960206040519687966060885260608801906114b2565b9186830382880152519182815201929060005b8181106107e057505050838203604085015251808252602082019160208260051b82010193926000915b8383106107655786860387f35b9193955091936020806107ce600193601f1986820301875289519060606107bd6107ab61079b85516080865260808601906114b2565b87860151858203898701526114b2565b604085015184820360408601526114b2565b9201519060608184039101526114b2565b97019301930190928695949293610758565b82516001600160a01b031685528796506020948501949092019160010161072e565b6004602060019261081285611a84565b8152019201920191906106f6565b84546001600160a01b03168352600194850194869450602090930192016106b2565b346100f55760003660031901126100f5576000546040516001600160a01b039091168152602090f35b346100f55761087936611463565b81016080828203126100f55781356001600160401b0381116100f557816108a191840161140d565b9060208301356001600160401b0381116100f557816108c191850161140d565b9260408101356001600160401b0381116100f557826108e191830161140d565b9160608201356001600160401b0381116100f5576108ff920161140d565b926040516020810190610917816104308588866115d1565b51902093846000526005602052604060002054610cfa576109396002546115f9565b600281905560009586526005602052604090952085905560408051919061096081846113ec565b60018352601f190160005b818110610cc857505060405190610981826113d1565b858252836020830152604082015283606082015261099e8261161f565b526109a88161161f565b506020926040516109b985826113ec565b600081526000368137604051916109cf836113d1565b878352858301908152604080840192835260608401948552600089815260038852209251835551805160018401916001600160401b0382116103cd57610a1583546114f3565b601f8111610c8d575b508790601f8311600114610c2657610a4f929160009183610c1b575b50508160011b916000199060031b1c19161790565b90555b5180519060028301906001600160401b0383116103cd57600160401b83116103cd5786908254848455808510610bfe575b5001906000528560002060005b838110610be35750505050600301905190815191600160401b83116103cd5784908254848455808510610b48575b500190600052836000206000915b838310610b2b57877f9e1ff75184927294c932317cc152fb871deb7f4a2f4169d44caa04f2905af813610b1289610b1f8a8a6040519485946060865260608601906114b2565b91848303908501526114b2565b600060408301520390a2005b60048682610b3c6001945186611692565b01920192019190610acc565b9091506001600160fe1b0381168103610bcd576001600160fe1b0384168403610bcd5790859183600052826000209060021b8101908560021b015b818110610b905750610abe565b600491929350610b9f81611643565b610bab60018201611643565b610bb760028201611643565b610bc360038201611643565b0190869291610b83565b634e487b7160e01b600052601160045260246000fd5b82516001600160a01b03168282015591870191600101610a90565b610c1590846000528584600020918201910161162c565b8a610a83565b015190508b80610a3a565b90601f1983169184600052896000209260005b8b828210610c77575050908460019594939210610c5e575b505050811b019055610a52565b015160001960f88460031b161c191690558a8080610c51565b6001859682939686015181550195019301610c39565b610cb8908460005289600020601f850160051c8101918b8610610cbe575b601f0160051c019061162c565b8a610a1e565b9091508190610cab565b602090604051610cd7816113d1565b60608152606083820152606060408201526060808201528282870101520161096b565b60405162461bcd60e51b8152602060048201526015602482015274536f6369616c206163636f756e742065786973747360581b6044820152606490fd5b346100f55760003660031901126100f557600154336001600160a01b0390911603610dab57600180546001600160a01b03199081169091556000805433928116831782556001600160a01b0316907f8be0079c531659141344cd1fd0a4f28419497f9722a3daafe3b4186f6b6457e09080a3005b63118cdaa760e01b6000523360045260246000fd5b346100f55760003660031901126100f557610dd9611b0a565b600180546001600160a01b0319908116909155600080549182168155906001600160a01b03167f8be0079c531659141344cd1fd0a4f28419497f9722a3daafe3b4186f6b6457e08280a3005b346100f55760203660031901126100f5576004356001600160a01b038116908190036100f55760005260066020526040600020548015610e6a5761064f602091611ad2565b60405162461bcd60e51b815260206004820152601060248201526f15d85b1b195d081b9bdd08199bdd5b9960821b6044820152606490fd5b346100f55760203660031901126100f5576004356001600160a01b038116908190036100f55760005260066020526020604060002054604051908152f35b346100f55760203660031901126100f55760043560005260056020526020604060002054604051908152f35b346100f5576020610f1c36611463565b90809291810103126100f557356001600160a01b038116908190036100f5578060005260066020526040600020546112cf57610f596002546115f9565b8060025581600052600660205280604060002055604091825190610f7d84836113ec565b60018252601f19840136602084013780610f968361161f565b528351936000610fa76020876113ec565b85526000805b81811061129f5750508051610fc1816113d1565b8481526020938251610fd386826113ec565b6000815285830190815283830191825260608301978852866000526003865283600020925183556001830190518051906001600160401b0382116103cd5761101b83546114f3565b601f811161126f575b508790601f831160011461120857611054929160009183610c1b5750508160011b916000199060031b1c19161790565b90555b5180519060028301906001600160401b0383116103cd57600160401b83116103cd57869082548484558085106111eb575b5001906000528560002060005b8381106111d057505050506003019451805190600160401b82116103cd578490875483895580841061114b575b50019560005283600020956000905b82821061112e57867f9e1ff75184927294c932317cc152fb871deb7f4a2f4169d44caa04f2905af81360c088888860a08151936060855260066060860152651dd85b1b195d60d21b6080860152840152600060a0840152820152a2005b6004868261113f600194518c611692565b019801910190966110d1565b9091506001600160fe1b0381168103610bcd576001600160fe1b0383168303610bcd5790859188600052826000209060021b8101908460021b015b81811061119357506110c2565b6004919293506111a281611643565b6111ae60018201611643565b6111ba60028201611643565b6111c660038201611643565b0190869291611186565b82516001600160a01b03168282015591870191600101611095565b61120290846000528584600020918201910161162c565b8a611088565b90601f1983169184600052896000209260005b8b828210611259575050908460019594939210611240575b505050811b019055611057565b015160001960f88460031b161c191690558a8080611233565b600185968293968601518155019501930161121b565b611299908460005289600020601f850160051c8101918b8610610cbe57601f0160051c019061162c565b8a611024565b60209083516112ad816113d1565b6060815260608382015260608582015260608082015282828a01015201610fad565b60405162461bcd60e51b815260206004820152600d60248201526c57616c6c65742065786973747360981b6044820152606490fd5b346100f55760403660031901126100f5576004356001600160401b0381116100f55761133490369060040161140d565b6024356001600160401b0381116100f55761136a61135961043092369060040161140d565b6040519283916020830195866115d1565b5190206000526005602052604060002054801561138c5761064f602091611ad2565b60405162461bcd60e51b815260206004820152601860248201527f536f6369616c206163636f756e74206e6f7420666f756e6400000000000000006044820152606490fd5b608081019081106001600160401b038211176103cd57604052565b90601f801991011681019081106001600160401b038211176103cd57604052565b81601f820112156100f5578035906001600160401b0382116103cd5760405192611441601f8401601f1916602001856113ec565b828452602083830101116100f557816000926020809301838601378301015290565b9060206003198301126100f5576004356001600160401b0381116100f557826023820112156100f5578060040135926001600160401b0384116100f557602484830101116100f5576024019190565b919082519283825260005b8481106114de575050826000602080949584010152601f8019910116010190565b806020809284010151828286010152016114bd565b90600182811c92168015611523575b602083101461150d57565b634e487b7160e01b600052602260045260246000fd5b91607f1691611502565b9060405191826000825492611541846114f3565b80845293600181169081156115af5750600114611568575b50611566925003836113ec565b565b90506000929192526020600020906000915b8183106115935750509060206115669282010138611559565b602091935080600191548385890101520191019091849261157a565b90506020925061156694915060ff191682840152151560051b82010138611559565b90916115e86115f6936040845260408401906114b2565b9160208184039101526114b2565b90565b6000198114610bcd5760010190565b6001600160401b0381116103cd5760051b60200190565b80511561054a5760200190565b818110611637575050565b6000815560010161162c565b61164d81546114f3565b9081611657575050565b81601f60009311600114611669575055565b8183526020832061168591601f0160051c81019060010161162c565b8082528160208120915555565b9181519283516001600160401b0381116103cd576116b082546114f3565b601f8111611a52575b50602094601f82116001146119ed576116ed9293949582916000926118175750508160011b916000199060031b1c19161790565b81555b6001810160208401518051906001600160401b0382116103cd5761171483546114f3565b601f81116119bb575b50602090601f83116001146119545761174e9291600091836118175750508160011b916000199060031b1c19161790565b90555b6002810160408401518051906001600160401b0382116103cd5761177583546114f3565b601f8111611922575b50602090601f83116001146118b6578260609593600395936117b6936000926118175750508160011b916000199060031b1c19161790565b90555b019201519182516001600160401b0381116103cd576117d882546114f3565b601f8111611884575b506020601f82116001146118225781906118139394956000926118175750508160011b916000199060031b1c19161790565b9055565b015190503880610a3a565b601f1982169083600052806000209160005b81811061186c57509583600195969710611853575b505050811b019055565b015160001960f88460031b161c19169055388080611849565b9192602060018192868b015181550194019201611834565b6118b090836000526020600020601f840160051c81019160208510610cbe57601f0160051c019061162c565b386117e1565b90601f1983169184600052816000209260005b81811061190a57509260019285926060989660039896106118f2575b505050811b0190556117b9565b015160001983881b60f8161c191690553880806118e5565b929360206001819287860151815501950193016118c9565b61194e90846000526020600020601f850160051c81019160208610610cbe57601f0160051c019061162c565b3861177e565b90601f1983169184600052816000209260005b8181106119a3575090846001959493921061198a575b505050811b019055611751565b015160001960f88460031b161c1916905538808061197d565b92936020600181928786015181550195019301611967565b6119e790846000526020600020601f850160051c81019160208610610cbe57601f0160051c019061162c565b3861171d565b601f1982169583600052806000209160005b888110611a3a57508360019596979810611a21575b505050811b0181556116f0565b015160001960f88460031b161c19169055388080611a14565b919260206001819286850151815501940192016119ff565b611a7e90836000526020600020601f840160051c81019160208510610cbe57601f0160051c019061162c565b386116b9565b90604051611a91816113d1565b6060611acd60038395611aa38161152d565b8552611ab16001820161152d565b6020860152611ac26002820161152d565b60408601520161152d565b910152565b5b806000526004602052604060002054156115f6576000526004602052604060002054611ad3565b919081101561054a5760051b0190565b6000546001600160a01b03163303610dab57565b805482101561054a5760005260206000200190600090565b805482101561054a5760005260206000209060021b019060009056fea2646970667358221220e3523c7c75fce7afe059f1ced8430d312465b2a39325e640d8affc2875bc958664736f6c634300081c0033","opcodes":"PUSH1 0x80 DUP1 PUSH1 0x40 MSTORE CALLVALUE PUSH1 0x7D JUMPI CALLER ISZERO PUSH1 0x67 JUMPI PUSH1 0x1 DUP1 SLOAD PUSH1 0x1 PUSH1 0x1 PUSH1 0xA0 SHL SUB NOT SWAP1 DUP2 AND SWAP1 SWAP2 SSTORE PUSH1 0x0 DUP1 SLOAD CALLER SWAP3 DUP2 AND DUP4 OR DUP3 SSTORE PUSH1 0x1 PUSH1 0x1 PUSH1 0xA0 SHL SUB AND SWAP1 PUSH32 0x8BE0079C531659141344CD1FD0A4F28419497F9722A3DAAFE3B4186F6B6457E0 SWAP1 DUP1 LOG3 PUSH2 0x1B88 SWAP1 DUP2 PUSH2 0x83 DUP3 CODECOPY RETURN JUMPDEST PUSH4 0x1E4FBDF7 PUSH1 0xE0 SHL PUSH1 0x0 MSTORE PUSH1 0x0 PUSH1 0x4 MSTORE PUSH1 0x24 PUSH1 0x0 REVERT JUMPDEST PUSH1 0x0 DUP1 REVERT INVALID PUSH1 0x80 PUSH1 0x40 MSTORE PUSH1 0x4 CALLDATASIZE LT ISZERO PUSH2 0x12 JUMPI PUSH1 0x0 DUP1 REVERT JUMPDEST PUSH1 0x0 CALLDATALOAD PUSH1 0xE0 SHR DUP1 PUSH4 0x24C84FA EQ PUSH2 0x1304 JUMPI DUP1 PUSH4 0xC4CEAC7 EQ PUSH2 0xF0C JUMPI DUP1 PUSH4 0x2056E731 EQ PUSH2 0xEE0 JUMPI DUP1 PUSH4 0x231A6159 EQ PUSH2 0xEA2 JUMPI DUP1 PUSH4 0x3B529DF4 EQ PUSH2 0xE25 JUMPI DUP1 PUSH4 0x715018A6 EQ PUSH2 0xDC0 JUMPI DUP1 PUSH4 0x79BA5097 EQ PUSH2 0xD37 JUMPI DUP1 PUSH4 0x82FBDC9C EQ PUSH2 0x86B JUMPI DUP1 PUSH4 0x8DA5CB5B EQ PUSH2 0x842 JUMPI DUP1 PUSH4 0x8E0D1ABC EQ PUSH2 0x657 JUMPI DUP1 PUSH4 0xAE10273D EQ PUSH2 0x631 JUMPI DUP1 PUSH4 0xCC7517D0 EQ PUSH2 0x605 JUMPI DUP1 PUSH4 0xD75BB74C EQ PUSH2 0x1E7 JUMPI DUP1 PUSH4 0xE30C3978 EQ PUSH2 0x1BE JUMPI DUP1 PUSH4 0xEAAF77E6 EQ PUSH2 0x16E JUMPI DUP1 PUSH4 0xF2FDE38B EQ PUSH2 0xFA JUMPI PUSH4 0xF5C5987B EQ PUSH2 0xD7 JUMPI PUSH1 0x0 DUP1 REVERT JUMPDEST CALLVALUE PUSH2 0xF5 JUMPI PUSH1 0x0 CALLDATASIZE PUSH1 0x3 NOT ADD SLT PUSH2 0xF5 JUMPI PUSH1 0x20 PUSH1 0x2 SLOAD PUSH1 0x40 MLOAD SWAP1 DUP2 MSTORE RETURN JUMPDEST PUSH1 0x0 DUP1 REVERT JUMPDEST CALLVALUE PUSH2 0xF5 JUMPI PUSH1 0x20 CALLDATASIZE PUSH1 0x3 NOT ADD SLT PUSH2 0xF5 JUMPI PUSH1 0x4 CALLDATALOAD PUSH1 0x1 PUSH1 0x1 PUSH1 0xA0 SHL SUB DUP2 AND SWAP1 DUP2 SWAP1 SUB PUSH2 0xF5 JUMPI PUSH2 0x128 PUSH2 0x1B0A JUMP JUMPDEST PUSH1 0x1 DUP1 SLOAD PUSH1 0x1 PUSH1 0x1 PUSH1 0xA0 SHL SUB NOT AND DUP3 OR SWAP1 SSTORE PUSH1 0x0 DUP1 SLOAD PUSH1 0x1 PUSH1 0x1 PUSH1 0xA0 SHL SUB AND SWAP1 PUSH32 0x38D16B8CAC22D99FC7C124B9CD0DE2D3FA1FAEF420BFE791D8C362D765E22700 SWAP1 DUP1 LOG3 STOP JUMPDEST CALLVALUE PUSH2 0xF5 JUMPI PUSH1 0x20 CALLDATASIZE PUSH1 0x3 NOT ADD SLT PUSH2 0xF5 JUMPI PUSH1 0x4 CALLDATALOAD PUSH1 0x0 MSTORE PUSH1 0x3 PUSH1 0x20 MSTORE PUSH1 0x40 PUSH1 0x0 KECCAK256 PUSH2 0x19D PUSH1 0x1 DUP3 SLOAD SWAP3 ADD PUSH2 0x152D JUMP JUMPDEST SWAP1 PUSH2 0x1BA PUSH1 0x40 MLOAD SWAP3 DUP4 SWAP3 DUP4 MSTORE PUSH1 0x40 PUSH1 0x20 DUP5 ADD MSTORE PUSH1 0x40 DUP4 ADD SWAP1 PUSH2 0x14B2 JUMP JUMPDEST SUB SWAP1 RETURN JUMPDEST CALLVALUE PUSH2 0xF5 JUMPI PUSH1 0x0 CALLDATASIZE PUSH1 0x3 NOT ADD SLT PUSH2 0xF5 JUMPI PUSH1 0x1 SLOAD PUSH1 0x40 MLOAD PUSH1 0x1 PUSH1 0x1 PUSH1 0xA0 SHL SUB SWAP1 SWAP2 AND DUP2 MSTORE PUSH1 0x20 SWAP1 RETURN JUMPDEST CALLVALUE PUSH2 0xF5 JUMPI PUSH1 0x20 CALLDATASIZE PUSH1 0x3 NOT ADD SLT PUSH2 0xF5 JUMPI PUSH1 0x4 CALLDATALOAD PUSH1 0x1 PUSH1 0x1 PUSH1 0x40 SHL SUB DUP2 GT PUSH2 0xF5 JUMPI CALLDATASIZE PUSH1 0x23 DUP3 ADD SLT ISZERO PUSH2 0xF5 JUMPI DUP1 PUSH1 0x4 ADD CALLDATALOAD PUSH1 0x1 PUSH1 0x1 PUSH1 0x40 SHL SUB DUP2 GT PUSH2 0xF5 JUMPI PUSH1 0x24 DUP3 ADD SWAP1 DUP1 PUSH1 0x5 SHL SWAP3 PUSH1 0x24 DUP5 CALLDATASIZE SWAP3 ADD ADD GT PUSH2 0xF5 JUMPI PUSH1 0x2 DUP2 LT PUSH2 0x5CA JUMPI PUSH1 0x0 JUMPDEST DUP2 DUP2 LT PUSH2 0x560 JUMPI POP DUP1 ISZERO PUSH2 0x54A JUMPI PUSH2 0x260 DUP3 CALLDATALOAD PUSH2 0x1AD2 JUMP JUMPDEST SWAP3 PUSH1 0x1 JUMPDEST DUP3 DUP2 LT PUSH2 0x2BA JUMPI POP PUSH1 0x40 MLOAD PUSH1 0x20 DUP1 DUP3 MSTORE DUP2 ADD DUP4 SWAP1 MSTORE SWAP2 PUSH1 0x1 PUSH1 0x1 PUSH1 0xFB SHL SUB LT PUSH2 0xF5 JUMPI DUP2 DUP2 PUSH1 0x40 SWAP3 PUSH32 0x8B3636D554DB86D8278DCD57551910F84B0BA20EE3890FB6A234A82322560F4 SWAP6 DUP5 DUP5 ADD CALLDATACOPY DUP2 ADD SUB ADD SWAP1 LOG2 STOP JUMPDEST PUSH2 0x2CE PUSH2 0x2C8 DUP3 DUP6 DUP8 PUSH2 0x1AFA JUMP JUMPDEST CALLDATALOAD PUSH2 0x1AD2 JUMP JUMPDEST DUP6 DUP2 SUB PUSH2 0x2DF JUMPI JUMPDEST POP PUSH1 0x1 ADD PUSH2 0x264 JUMP JUMPDEST SWAP5 SWAP3 SWAP2 DUP4 PUSH1 0x0 SWAP6 SWAP3 SWAP6 MSTORE PUSH1 0x3 PUSH1 0x20 MSTORE PUSH1 0x40 PUSH1 0x0 KECCAK256 SWAP3 DUP7 PUSH1 0x0 MSTORE PUSH1 0x3 PUSH1 0x20 MSTORE PUSH1 0x40 PUSH1 0x0 KECCAK256 SWAP2 PUSH1 0x0 SWAP4 PUSH1 0x2 DUP5 ADD SWAP5 JUMPDEST DUP6 SLOAD DUP2 LT ISZERO PUSH2 0x3E3 JUMPI PUSH2 0x31F DUP2 DUP8 PUSH2 0x1B1E JUMP JUMPDEST PUSH1 0x1 DUP1 PUSH1 0xA0 SHL SUB SWAP2 SLOAD SWAP1 PUSH1 0x3 SHL SHR AND SWAP1 DUP2 PUSH1 0x0 MSTORE PUSH1 0x6 PUSH1 0x20 MSTORE DUP11 PUSH1 0x40 PUSH1 0x0 KECCAK256 SLOAD EQ PUSH2 0x34F JUMPI JUMPDEST PUSH1 0x1 SWAP2 POP ADD PUSH2 0x30C JUMP JUMPDEST DUP2 PUSH1 0x0 MSTORE PUSH1 0x6 PUSH1 0x20 MSTORE DUP9 PUSH1 0x40 PUSH1 0x0 KECCAK256 SSTORE PUSH1 0x2 DUP9 ADD SWAP2 DUP3 SLOAD SWAP3 PUSH1 0x1 PUSH1 0x40 SHL DUP5 LT ISZERO PUSH2 0x3CD JUMPI PUSH1 0x20 DUP12 SWAP3 PUSH2 0x3A9 DUP7 PUSH32 0xF0306F4E8668D23EBCC691F3A47412CB3E3BC7A86B5BE28204CF62853914FF15 SWAP5 PUSH1 0x1 DUP1 SWAP10 ADD DUP2 SSTORE PUSH2 0x1B1E JUMP JUMPDEST DUP2 SLOAD SWAP1 PUSH1 0x3 SHL SWAP1 DUP4 DUP3 SHL SWAP2 DUP10 DUP1 PUSH1 0xA0 SHL SUB SWAP1 SHL NOT AND OR SWAP1 SSTORE PUSH1 0x40 MLOAD SWAP1 DUP2 MSTORE LOG2 PUSH2 0x345 JUMP JUMPDEST PUSH4 0x4E487B71 PUSH1 0xE0 SHL PUSH1 0x0 MSTORE PUSH1 0x41 PUSH1 0x4 MSTORE PUSH1 0x24 PUSH1 0x0 REVERT JUMPDEST POP SWAP5 SWAP8 SWAP5 PUSH1 0x3 SWAP1 SWAP4 ADD SWAP4 POP SWAP2 SWAP1 PUSH1 0x0 JUMPDEST DUP5 SLOAD DUP2 LT ISZERO PUSH2 0x52A JUMPI PUSH2 0x40F PUSH2 0x409 DUP3 DUP8 PUSH2 0x1B36 JUMP JUMPDEST POP PUSH2 0x1A84 JUMP JUMPDEST SWAP1 DUP2 MLOAD PUSH1 0x20 DUP4 ADD SWAP1 PUSH2 0x430 PUSH2 0x43E DUP4 MLOAD PUSH1 0x40 MLOAD SWAP3 DUP4 SWAP2 PUSH1 0x20 DUP4 ADD SWAP6 DUP7 PUSH2 0x15D1 JUMP JUMPDEST SUB PUSH1 0x1F NOT DUP2 ADD DUP4 MSTORE DUP3 PUSH2 0x13EC JUMP JUMPDEST MLOAD SWAP1 KECCAK256 DUP1 PUSH1 0x0 MSTORE PUSH1 0x5 PUSH1 0x20 MSTORE DUP9 PUSH1 0x40 PUSH1 0x0 KECCAK256 SLOAD EQ PUSH2 0x463 JUMPI JUMPDEST POP POP PUSH1 0x1 SWAP2 POP ADD PUSH2 0x3F3 JUMP JUMPDEST PUSH1 0x0 MSTORE PUSH1 0x5 PUSH1 0x20 MSTORE DUP9 PUSH1 0x40 PUSH1 0x0 KECCAK256 SSTORE PUSH1 0x3 DUP12 ADD DUP4 MLOAD SWAP1 DUP3 MLOAD PUSH1 0x40 DUP7 ADD MLOAD PUSH1 0x60 DUP8 ADD MLOAD SWAP2 PUSH1 0x40 MLOAD SWAP5 PUSH2 0x493 DUP7 PUSH2 0x13D1 JUMP JUMPDEST DUP6 MSTORE PUSH1 0x20 DUP6 ADD MSTORE PUSH1 0x40 DUP5 ADD MSTORE PUSH1 0x60 DUP4 ADD MSTORE DUP1 SLOAD PUSH1 0x1 PUSH1 0x40 SHL DUP2 LT ISZERO PUSH2 0x3CD JUMPI PUSH2 0x4C1 SWAP2 PUSH1 0x1 DUP3 ADD DUP2 SSTORE PUSH2 0x1B36 JUMP JUMPDEST SWAP3 SWAP1 SWAP3 PUSH2 0x514 JUMPI PUSH1 0x1 SWAP5 PUSH2 0x4F7 PUSH32 0x5B289625075CE8F4D013C0860B682A23AE9C1DC98240C67C7CDA3AC9A2B19D1D SWAP4 DUP14 SWAP6 PUSH2 0x1692 JUMP JUMPDEST MLOAD SWAP1 MLOAD SWAP1 PUSH2 0x50A PUSH1 0x40 MLOAD SWAP3 DUP4 SWAP3 DUP4 PUSH2 0x15D1 JUMP JUMPDEST SUB SWAP1 LOG2 DUP11 DUP1 PUSH2 0x457 JUMP JUMPDEST PUSH4 0x4E487B71 PUSH1 0xE0 SHL PUSH1 0x0 MSTORE PUSH1 0x0 PUSH1 0x4 MSTORE PUSH1 0x24 PUSH1 0x0 REVERT JUMPDEST POP SWAP5 SWAP7 POP SWAP5 SWAP1 SWAP3 PUSH1 0x1 SWAP3 POP PUSH1 0x0 MSTORE PUSH1 0x4 PUSH1 0x20 MSTORE DUP6 PUSH1 0x40 PUSH1 0x0 KECCAK256 SSTORE SWAP1 PUSH2 0x2D6 JUMP JUMPDEST PUSH4 0x4E487B71 PUSH1 0xE0 SHL PUSH1 0x0 MSTORE PUSH1 0x32 PUSH1 0x4 MSTORE PUSH1 0x24 PUSH1 0x0 REVERT JUMPDEST PUSH2 0x56B DUP2 DUP4 DUP6 PUSH2 0x1AFA JUMP JUMPDEST CALLDATALOAD ISZERO ISZERO DUP1 PUSH2 0x5B3 JUMPI JUMPDEST ISZERO PUSH2 0x581 JUMPI PUSH1 0x1 ADD PUSH2 0x248 JUMP JUMPDEST PUSH1 0x40 MLOAD PUSH3 0x461BCD PUSH1 0xE5 SHL DUP2 MSTORE PUSH1 0x20 PUSH1 0x4 DUP3 ADD MSTORE PUSH1 0xA PUSH1 0x24 DUP3 ADD MSTORE PUSH10 0x125B9D985B1A59081251 PUSH1 0xB2 SHL PUSH1 0x44 DUP3 ADD MSTORE PUSH1 0x64 SWAP1 REVERT JUMPDEST POP PUSH2 0x5BF DUP2 DUP4 DUP6 PUSH2 0x1AFA JUMP JUMPDEST CALLDATALOAD PUSH1 0x2 SLOAD LT ISZERO PUSH2 0x574 JUMP JUMPDEST PUSH1 0x40 MLOAD PUSH3 0x461BCD PUSH1 0xE5 SHL DUP2 MSTORE PUSH1 0x20 PUSH1 0x4 DUP3 ADD MSTORE PUSH1 0x13 PUSH1 0x24 DUP3 ADD MSTORE PUSH19 0x4E656564206174206C65617374203220494473 PUSH1 0x68 SHL PUSH1 0x44 DUP3 ADD MSTORE PUSH1 0x64 SWAP1 REVERT JUMPDEST CALLVALUE PUSH2 0xF5 JUMPI PUSH1 0x20 CALLDATASIZE PUSH1 0x3 NOT ADD SLT PUSH2 0xF5 JUMPI PUSH1 0x4 CALLDATALOAD PUSH1 0x0 MSTORE PUSH1 0x4 PUSH1 0x20 MSTORE PUSH1 0x20 PUSH1 0x40 PUSH1 0x0 KECCAK256 SLOAD PUSH1 0x40 MLOAD SWAP1 DUP2 MSTORE RETURN JUMPDEST CALLVALUE PUSH2 0xF5 JUMPI PUSH1 0x20 CALLDATASIZE PUSH1 0x3 NOT ADD SLT PUSH2 0xF5 JUMPI PUSH1 0x20 PUSH2 0x64F PUSH1 0x4 CALLDATALOAD PUSH2 0x1AD2 JUMP JUMPDEST PUSH1 0x40 MLOAD SWAP1 DUP2 MSTORE RETURN JUMPDEST CALLVALUE PUSH2 0xF5 JUMPI PUSH1 0x20 CALLDATASIZE PUSH1 0x3 NOT ADD SLT PUSH2 0xF5 JUMPI PUSH2 0x673 PUSH1 0x4 CALLDATALOAD PUSH2 0x1AD2 JUMP JUMPDEST PUSH1 0x0 MSTORE PUSH1 0x3 PUSH1 0x20 MSTORE PUSH1 0x40 PUSH1 0x0 KECCAK256 PUSH1 0x2 DUP2 ADD SWAP1 PUSH2 0x695 PUSH1 0x1 PUSH1 0x3 DUP4 ADD SWAP3 ADD PUSH2 0x152D JUMP JUMPDEST SWAP2 PUSH1 0x40 MLOAD DUP1 DUP2 PUSH1 0x20 DUP5 SLOAD SWAP3 DUP4 DUP2 MSTORE ADD DUP1 SWAP5 PUSH1 0x0 MSTORE PUSH1 0x20 PUSH1 0x0 KECCAK256 SWAP3 PUSH1 0x0 JUMPDEST DUP2 DUP2 LT PUSH2 0x820 JUMPI POP POP PUSH2 0x6C7 SWAP3 POP SUB DUP3 PUSH2 0x13EC JUMP JUMPDEST DUP3 SLOAD SWAP1 PUSH2 0x6D3 DUP3 PUSH2 0x1608 JUMP JUMPDEST SWAP2 PUSH2 0x6E1 PUSH1 0x40 MLOAD SWAP4 DUP5 PUSH2 0x13EC JUMP JUMPDEST DUP1 DUP4 MSTORE PUSH1 0x20 DUP4 ADD DUP1 SWAP6 PUSH1 0x0 MSTORE PUSH1 0x20 PUSH1 0x0 KECCAK256 PUSH1 0x0 SWAP2 JUMPDEST DUP4 DUP4 LT PUSH2 0x802 JUMPI PUSH2 0x71B DUP10 DUP10 DUP10 DUP10 DUP10 PUSH1 0x20 PUSH1 0x40 MLOAD SWAP7 DUP8 SWAP7 PUSH1 0x60 DUP9 MSTORE PUSH1 0x60 DUP9 ADD SWAP1 PUSH2 0x14B2 JUMP JUMPDEST SWAP2 DUP7 DUP4 SUB DUP3 DUP9 ADD MSTORE MLOAD SWAP2 DUP3 DUP2 MSTORE ADD SWAP3 SWAP1 PUSH1 0x0 JUMPDEST DUP2 DUP2 LT PUSH2 0x7E0 JUMPI POP POP POP DUP4 DUP3 SUB PUSH1 0x40 DUP6 ADD MSTORE MLOAD DUP1 DUP3 MSTORE PUSH1 0x20 DUP3 ADD SWAP2 PUSH1 0x20 DUP3 PUSH1 0x5 SHL DUP3 ADD ADD SWAP4 SWAP3 PUSH1 0x0 SWAP2 JUMPDEST DUP4 DUP4 LT PUSH2 0x765 JUMPI DUP7 DUP7 SUB DUP8 RETURN JUMPDEST SWAP2 SWAP4 SWAP6 POP SWAP2 SWAP4 PUSH1 0x20 DUP1 PUSH2 0x7CE PUSH1 0x1 SWAP4 PUSH1 0x1F NOT DUP7 DUP3 SUB ADD DUP8 MSTORE DUP10 MLOAD SWAP1 PUSH1 0x60 PUSH2 0x7BD PUSH2 0x7AB PUSH2 0x79B DUP6 MLOAD PUSH1 0x80 DUP7 MSTORE PUSH1 0x80 DUP7 ADD SWAP1 PUSH2 0x14B2 JUMP JUMPDEST DUP8 DUP7 ADD MLOAD DUP6 DUP3 SUB DUP10 DUP8 ADD MSTORE PUSH2 0x14B2 JUMP JUMPDEST PUSH1 0x40 DUP6 ADD MLOAD DUP5 DUP3 SUB PUSH1 0x40 DUP7 ADD MSTORE PUSH2 0x14B2 JUMP JUMPDEST SWAP3 ADD MLOAD SWAP1 PUSH1 0x60 DUP2 DUP5 SUB SWAP2 ADD MSTORE PUSH2 0x14B2 JUMP JUMPDEST SWAP8 ADD SWAP4 ADD SWAP4 ADD SWAP1 SWAP3 DUP7 SWAP6 SWAP5 SWAP3 SWAP4 PUSH2 0x758 JUMP JUMPDEST DUP3 MLOAD PUSH1 0x1 PUSH1 0x1 PUSH1 0xA0 SHL SUB AND DUP6 MSTORE DUP8 SWAP7 POP PUSH1 0x20 SWAP5 DUP6 ADD SWAP5 SWAP1 SWAP3 ADD SWAP2 PUSH1 0x1 ADD PUSH2 0x72E JUMP JUMPDEST PUSH1 0x4 PUSH1 0x20 PUSH1 0x1 SWAP3 PUSH2 0x812 DUP6 PUSH2 0x1A84 JUMP JUMPDEST DUP2 MSTORE ADD SWAP3 ADD SWAP3 ADD SWAP2 SWAP1 PUSH2 0x6F6 JUMP JUMPDEST DUP5 SLOAD PUSH1 0x1 PUSH1 0x1 PUSH1 0xA0 SHL SUB AND DUP4 MSTORE PUSH1 0x1 SWAP5 DUP6 ADD SWAP5 DUP7 SWAP5 POP PUSH1 0x20 SWAP1 SWAP4 ADD SWAP3 ADD PUSH2 0x6B2 JUMP JUMPDEST CALLVALUE PUSH2 0xF5 JUMPI PUSH1 0x0 CALLDATASIZE PUSH1 0x3 NOT ADD SLT PUSH2 0xF5 JUMPI PUSH1 0x0 SLOAD PUSH1 0x40 MLOAD PUSH1 0x1 PUSH1 0x1 PUSH1 0xA0 SHL SUB SWAP1 SWAP2 AND DUP2 MSTORE PUSH1 0x20 SWAP1 RETURN JUMPDEST CALLVALUE PUSH2 0xF5 JUMPI PUSH2 0x879 CALLDATASIZE PUSH2 0x1463 JUMP JUMPDEST DUP2 ADD PUSH1 0x80 DUP3 DUP3 SUB SLT PUSH2 0xF5 JUMPI DUP2 CALLDATALOAD PUSH1 0x1 PUSH1 0x1 PUSH1 0x40 SHL SUB DUP2 GT PUSH2 0xF5 JUMPI DUP2 PUSH2 0x8A1 SWAP2 DUP5 ADD PUSH2 0x140D JUMP JUMPDEST SWAP1 PUSH1 0x20 DUP4 ADD CALLDATALOAD PUSH1 0x1 PUSH1 0x1 PUSH1 0x40 SHL SUB DUP2 GT PUSH2 0xF5 JUMPI DUP2 PUSH2 0x8C1 SWAP2 DUP6 ADD PUSH2 0x140D JUMP JUMPDEST SWAP3 PUSH1 0x40 DUP2 ADD CALLDATALOAD PUSH1 0x1 PUSH1 0x1 PUSH1 0x40 SHL SUB DUP2 GT PUSH2 0xF5 JUMPI DUP3 PUSH2 0x8E1 SWAP2 DUP4 ADD PUSH2 0x140D JUMP JUMPDEST SWAP2 PUSH1 0x60 DUP3 ADD CALLDATALOAD PUSH1 0x1 PUSH1 0x1 PUSH1 0x40 SHL SUB DUP2 GT PUSH2 0xF5 JUMPI PUSH2 0x8FF SWAP3 ADD PUSH2 0x140D JUMP JUMPDEST SWAP3 PUSH1 0x40 MLOAD PUSH1 0x20 DUP2 ADD SWAP1 PUSH2 0x917 DUP2 PUSH2 0x430 DUP6 DUP9 DUP7 PUSH2 0x15D1 JUMP JUMPDEST MLOAD SWAP1 KECCAK256 SWAP4 DUP5 PUSH1 0x0 MSTORE PUSH1 0x5 PUSH1 0x20 MSTORE PUSH1 0x40 PUSH1 0x0 KECCAK256 SLOAD PUSH2 0xCFA JUMPI PUSH2 0x939 PUSH1 0x2 SLOAD PUSH2 0x15F9 JUMP JUMPDEST PUSH1 0x2 DUP2 SWAP1 SSTORE PUSH1 0x0 SWAP6 DUP7 MSTORE PUSH1 0x5 PUSH1 0x20 MSTORE PUSH1 0x40 SWAP1 SWAP6 KECCAK256 DUP6 SWAP1 SSTORE PUSH1 0x40 DUP1 MLOAD SWAP2 SWAP1 PUSH2 0x960 DUP2 DUP5 PUSH2 0x13EC JUMP JUMPDEST PUSH1 0x1 DUP4 MSTORE PUSH1 0x1F NOT ADD PUSH1 0x0 JUMPDEST DUP2 DUP2 LT PUSH2 0xCC8 JUMPI POP POP PUSH1 0x40 MLOAD SWAP1 PUSH2 0x981 DUP3 PUSH2 0x13D1 JUMP JUMPDEST DUP6 DUP3 MSTORE DUP4 PUSH1 0x20 DUP4 ADD MSTORE PUSH1 0x40 DUP3 ADD MSTORE DUP4 PUSH1 0x60 DUP3 ADD MSTORE PUSH2 0x99E DUP3 PUSH2 0x161F JUMP JUMPDEST MSTORE PUSH2 0x9A8 DUP2 PUSH2 0x161F JUMP JUMPDEST POP PUSH1 0x20 SWAP3 PUSH1 0x40 MLOAD PUSH2 0x9B9 DUP6 DUP3 PUSH2 0x13EC JUMP JUMPDEST PUSH1 0x0 DUP2 MSTORE PUSH1 0x0 CALLDATASIZE DUP2 CALLDATACOPY PUSH1 0x40 MLOAD SWAP2 PUSH2 0x9CF DUP4 PUSH2 0x13D1 JUMP JUMPDEST DUP8 DUP4 MSTORE DUP6 DUP4 ADD SWAP1 DUP2 MSTORE PUSH1 0x40 DUP1 DUP5 ADD SWAP3 DUP4 MSTORE PUSH1 0x60 DUP5 ADD SWAP5 DUP6 MSTORE PUSH1 0x0 DUP10 DUP2 MSTORE PUSH1 0x3 DUP9 MSTORE KECCAK256 SWAP3 MLOAD DUP4 SSTORE MLOAD DUP1 MLOAD PUSH1 0x1 DUP5 ADD SWAP2 PUSH1 0x1 PUSH1 0x1 PUSH1 0x40 SHL SUB DUP3 GT PUSH2 0x3CD JUMPI PUSH2 0xA15 DUP4 SLOAD PUSH2 0x14F3 JUMP JUMPDEST PUSH1 0x1F DUP2 GT PUSH2 0xC8D JUMPI JUMPDEST POP DUP8 SWAP1 PUSH1 0x1F DUP4 GT PUSH1 0x1 EQ PUSH2 0xC26 JUMPI PUSH2 0xA4F SWAP3 SWAP2 PUSH1 0x0 SWAP2 DUP4 PUSH2 0xC1B JUMPI JUMPDEST POP POP DUP2 PUSH1 0x1 SHL SWAP2 PUSH1 0x0 NOT SWAP1 PUSH1 0x3 SHL SHR NOT AND OR SWAP1 JUMP JUMPDEST SWAP1 SSTORE JUMPDEST MLOAD DUP1 MLOAD SWAP1 PUSH1 0x2 DUP4 ADD SWAP1 PUSH1 0x1 PUSH1 0x1 PUSH1 0x40 SHL SUB DUP4 GT PUSH2 0x3CD JUMPI PUSH1 0x1 PUSH1 0x40 SHL DUP4 GT PUSH2 0x3CD JUMPI DUP7 SWAP1 DUP3 SLOAD DUP5 DUP5 SSTORE DUP1 DUP6 LT PUSH2 0xBFE JUMPI JUMPDEST POP ADD SWAP1 PUSH1 0x0 MSTORE DUP6 PUSH1 0x0 KECCAK256 PUSH1 0x0 JUMPDEST DUP4 DUP2 LT PUSH2 0xBE3 JUMPI POP POP POP POP PUSH1 0x3 ADD SWAP1 MLOAD SWAP1 DUP2 MLOAD SWAP2 PUSH1 0x1 PUSH1 0x40 SHL DUP4 GT PUSH2 0x3CD JUMPI DUP5 SWAP1 DUP3 SLOAD DUP5 DUP5 SSTORE DUP1 DUP6 LT PUSH2 0xB48 JUMPI JUMPDEST POP ADD SWAP1 PUSH1 0x0 MSTORE DUP4 PUSH1 0x0 KECCAK256 PUSH1 0x0 SWAP2 JUMPDEST DUP4 DUP4 LT PUSH2 0xB2B JUMPI DUP8 PUSH32 0x9E1FF75184927294C932317CC152FB871DEB7F4A2F4169D44CAA04F2905AF813 PUSH2 0xB12 DUP10 PUSH2 0xB1F DUP11 DUP11 PUSH1 0x40 MLOAD SWAP5 DUP6 SWAP5 PUSH1 0x60 DUP7 MSTORE PUSH1 0x60 DUP7 ADD SWAP1 PUSH2 0x14B2 JUMP JUMPDEST SWAP2 DUP5 DUP4 SUB SWAP1 DUP6 ADD MSTORE PUSH2 0x14B2 JUMP JUMPDEST PUSH1 0x0 PUSH1 0x40 DUP4 ADD MSTORE SUB SWAP1 LOG2 STOP JUMPDEST PUSH1 0x4 DUP7 DUP3 PUSH2 0xB3C PUSH1 0x1 SWAP5 MLOAD DUP7 PUSH2 0x1692 JUMP JUMPDEST ADD SWAP3 ADD SWAP3 ADD SWAP2 SWAP1 PUSH2 0xACC JUMP JUMPDEST SWAP1 SWAP2 POP PUSH1 0x1 PUSH1 0x1 PUSH1 0xFE SHL SUB DUP2 AND DUP2 SUB PUSH2 0xBCD JUMPI PUSH1 0x1 PUSH1 0x1 PUSH1 0xFE SHL SUB DUP5 AND DUP5 SUB PUSH2 0xBCD JUMPI SWAP1 DUP6 SWAP2 DUP4 PUSH1 0x0 MSTORE DUP3 PUSH1 0x0 KECCAK256 SWAP1 PUSH1 0x2 SHL DUP2 ADD SWAP1 DUP6 PUSH1 0x2 SHL ADD JUMPDEST DUP2 DUP2 LT PUSH2 0xB90 JUMPI POP PUSH2 0xABE JUMP JUMPDEST PUSH1 0x4 SWAP2 SWAP3 SWAP4 POP PUSH2 0xB9F DUP2 PUSH2 0x1643 JUMP JUMPDEST PUSH2 0xBAB PUSH1 0x1 DUP3 ADD PUSH2 0x1643 JUMP JUMPDEST PUSH2 0xBB7 PUSH1 0x2 DUP3 ADD PUSH2 0x1643 JUMP JUMPDEST PUSH2 0xBC3 PUSH1 0x3 DUP3 ADD PUSH2 0x1643 JUMP JUMPDEST ADD SWAP1 DUP7 SWAP3 SWAP2 PUSH2 0xB83 JUMP JUMPDEST PUSH4 0x4E487B71 PUSH1 0xE0 SHL PUSH1 0x0 MSTORE PUSH1 0x11 PUSH1 0x4 MSTORE PUSH1 0x24 PUSH1 0x0 REVERT JUMPDEST DUP3 MLOAD PUSH1 0x1 PUSH1 0x1 PUSH1 0xA0 SHL SUB AND DUP3 DUP3 ADD SSTORE SWAP2 DUP8 ADD SWAP2 PUSH1 0x1 ADD PUSH2 0xA90 JUMP JUMPDEST PUSH2 0xC15 SWAP1 DUP5 PUSH1 0x0 MSTORE DUP6 DUP5 PUSH1 0x0 KECCAK256 SWAP2 DUP3 ADD SWAP2 ADD PUSH2 0x162C JUMP JUMPDEST DUP11 PUSH2 0xA83 JUMP JUMPDEST ADD MLOAD SWAP1 POP DUP12 DUP1 PUSH2 0xA3A JUMP JUMPDEST SWAP1 PUSH1 0x1F NOT DUP4 AND SWAP2 DUP5 PUSH1 0x0 MSTORE DUP10 PUSH1 0x0 KECCAK256 SWAP3 PUSH1 0x0 JUMPDEST DUP12 DUP3 DUP3 LT PUSH2 0xC77 JUMPI POP POP SWAP1 DUP5 PUSH1 0x1 SWAP6 SWAP5 SWAP4 SWAP3 LT PUSH2 0xC5E JUMPI JUMPDEST POP POP POP DUP2 SHL ADD SWAP1 SSTORE PUSH2 0xA52 JUMP JUMPDEST ADD MLOAD PUSH1 0x0 NOT PUSH1 0xF8 DUP5 PUSH1 0x3 SHL AND SHR NOT AND SWAP1 SSTORE DUP11 DUP1 DUP1 PUSH2 0xC51 JUMP JUMPDEST PUSH1 0x1 DUP6 SWAP7 DUP3 SWAP4 SWAP7 DUP7 ADD MLOAD DUP2 SSTORE ADD SWAP6 ADD SWAP4 ADD PUSH2 0xC39 JUMP JUMPDEST PUSH2 0xCB8 SWAP1 DUP5 PUSH1 0x0 MSTORE DUP10 PUSH1 0x0 KECCAK256 PUSH1 0x1F DUP6 ADD PUSH1 0x5 SHR DUP2 ADD SWAP2 DUP12 DUP7 LT PUSH2 0xCBE JUMPI JUMPDEST PUSH1 0x1F ADD PUSH1 0x5 SHR ADD SWAP1 PUSH2 0x162C JUMP JUMPDEST DUP11 PUSH2 0xA1E JUMP JUMPDEST SWAP1 SWAP2 POP DUP2 SWAP1 PUSH2 0xCAB JUMP JUMPDEST PUSH1 0x20 SWAP1 PUSH1 0x40 MLOAD PUSH2 0xCD7 DUP2 PUSH2 0x13D1 JUMP JUMPDEST PUSH1 0x60 DUP2 MSTORE PUSH1 0x60 DUP4 DUP3 ADD MSTORE PUSH1 0x60 PUSH1 0x40 DUP3 ADD MSTORE PUSH1 0x60 DUP1 DUP3 ADD MSTORE DUP3 DUP3 DUP8 ADD ADD MSTORE ADD PUSH2 0x96B JUMP JUMPDEST PUSH1 0x40 MLOAD PUSH3 0x461BCD PUSH1 0xE5 SHL DUP2 MSTORE PUSH1 0x20 PUSH1 0x4 DUP3 ADD MSTORE PUSH1 0x15 PUSH1 0x24 DUP3 ADD MSTORE PUSH21 0x536F6369616C206163636F756E7420657869737473 PUSH1 0x58 SHL PUSH1 0x44 DUP3 ADD MSTORE PUSH1 0x64 SWAP1 REVERT JUMPDEST CALLVALUE PUSH2 0xF5 JUMPI PUSH1 0x0 CALLDATASIZE PUSH1 0x3 NOT ADD SLT PUSH2 0xF5 JUMPI PUSH1 0x1 SLOAD CALLER PUSH1 0x1 PUSH1 0x1 PUSH1 0xA0 SHL SUB SWAP1 SWAP2 AND SUB PUSH2 0xDAB JUMPI PUSH1 0x1 DUP1 SLOAD PUSH1 0x1 PUSH1 0x1 PUSH1 0xA0 SHL SUB NOT SWAP1 DUP2 AND SWAP1 SWAP2 SSTORE PUSH1 0x0 DUP1 SLOAD CALLER SWAP3 DUP2 AND DUP4 OR DUP3 SSTORE PUSH1 0x1 PUSH1 0x1 PUSH1 0xA0 SHL SUB AND SWAP1 PUSH32 0x8BE0079C531659141344CD1FD0A4F28419497F9722A3DAAFE3B4186F6B6457E0 SWAP1 DUP1 LOG3 STOP JUMPDEST PUSH4 0x118CDAA7 PUSH1 0xE0 SHL PUSH1 0x0 MSTORE CALLER PUSH1 0x4 MSTORE PUSH1 0x24 PUSH1 0x0 REVERT JUMPDEST CALLVALUE PUSH2 0xF5 JUMPI PUSH1 0x0 CALLDATASIZE PUSH1 0x3 NOT ADD SLT PUSH2 0xF5 JUMPI PUSH2 0xDD9 PUSH2 0x1B0A JUMP JUMPDEST PUSH1 0x1 DUP1 SLOAD PUSH1 0x1 PUSH1 0x1 PUSH1 0xA0 SHL SUB NOT SWAP1 DUP2 AND SWAP1 SWAP2 SSTORE PUSH1 0x0 DUP1 SLOAD SWAP2 DUP3 AND DUP2 SSTORE SWAP1 PUSH1 0x1 PUSH1 0x1 PUSH1 0xA0 SHL SUB AND PUSH32 0x8BE0079C531659141344CD1FD0A4F28419497F9722A3DAAFE3B4186F6B6457E0 DUP3 DUP1 LOG3 STOP JUMPDEST CALLVALUE PUSH2 0xF5 JUMPI PUSH1 0x20 CALLDATASIZE PUSH1 0x3 NOT ADD SLT PUSH2 0xF5 JUMPI PUSH1 0x4 CALLDATALOAD PUSH1 0x1 PUSH1 0x1 PUSH1 0xA0 SHL SUB DUP2 AND SWAP1 DUP2 SWAP1 SUB PUSH2 0xF5 JUMPI PUSH1 0x0 MSTORE PUSH1 0x6 PUSH1 0x20 MSTORE PUSH1 0x40 PUSH1 0x0 KECCAK256 SLOAD DUP1 ISZERO PUSH2 0xE6A JUMPI PUSH2 0x64F PUSH1 0x20 SWAP2 PUSH2 0x1AD2 JUMP JUMPDEST PUSH1 0x40 MLOAD PUSH3 0x461BCD PUSH1 0xE5 SHL DUP2 MSTORE PUSH1 0x20 PUSH1 0x4 DUP3 ADD MSTORE PUSH1 0x10 PUSH1 0x24 DUP3 ADD MSTORE PUSH16 0x15D85B1B195D081B9BDD08199BDD5B99 PUSH1 0x82 SHL PUSH1 0x44 DUP3 ADD MSTORE PUSH1 0x64 SWAP1 REVERT JUMPDEST CALLVALUE PUSH2 0xF5 JUMPI PUSH1 0x20 CALLDATASIZE PUSH1 0x3 NOT ADD SLT PUSH2 0xF5 JUMPI PUSH1 0x4 CALLDATALOAD PUSH1 0x1 PUSH1 0x1 PUSH1 0xA0 SHL SUB DUP2 AND SWAP1 DUP2 SWAP1 SUB PUSH2 0xF5 JUMPI PUSH1 0x0 MSTORE PUSH1 0x6 PUSH1 0x20 MSTORE PUSH1 0x20 PUSH1 0x40 PUSH1 0x0 KECCAK256 SLOAD PUSH1 0x40 MLOAD SWAP1 DUP2 MSTORE RETURN JUMPDEST CALLVALUE PUSH2 0xF5 JUMPI PUSH1 0x20 CALLDATASIZE PUSH1 0x3 NOT ADD SLT PUSH2 0xF5 JUMPI PUSH1 0x4 CALLDATALOAD PUSH1 0x0 MSTORE PUSH1 0x5 PUSH1 0x20 MSTORE PUSH1 0x20 PUSH1 0x40 PUSH1 0x0 KECCAK256 SLOAD PUSH1 0x40 MLOAD SWAP1 DUP2 MSTORE RETURN JUMPDEST CALLVALUE PUSH2 0xF5 JUMPI PUSH1 0x20 PUSH2 0xF1C CALLDATASIZE PUSH2 0x1463 JUMP JUMPDEST SWAP1 DUP1 SWAP3 SWAP2 DUP2 ADD SUB SLT PUSH2 0xF5 JUMPI CALLDATALOAD PUSH1 0x1 PUSH1 0x1 PUSH1 0xA0 SHL SUB DUP2 AND SWAP1 DUP2 SWAP1 SUB PUSH2 0xF5 JUMPI DUP1 PUSH1 0x0 MSTORE PUSH1 0x6 PUSH1 0x20 MSTORE PUSH1 0x40 PUSH1 0x0 KECCAK256 SLOAD PUSH2 0x12CF JUMPI PUSH2 0xF59 PUSH1 0x2 SLOAD PUSH2 0x15F9 JUMP JUMPDEST DUP1 PUSH1 0x2 SSTORE DUP2 PUSH1 0x0 MSTORE PUSH1 0x6 PUSH1 0x20 MSTORE DUP1 PUSH1 0x40 PUSH1 0x0 KECCAK256 SSTORE PUSH1 0x40 SWAP2 DUP3 MLOAD SWAP1 PUSH2 0xF7D DUP5 DUP4 PUSH2 0x13EC JUMP JUMPDEST PUSH1 0x1 DUP3 MSTORE PUSH1 0x1F NOT DUP5 ADD CALLDATASIZE PUSH1 0x20 DUP5 ADD CALLDATACOPY DUP1 PUSH2 0xF96 DUP4 PUSH2 0x161F JUMP JUMPDEST MSTORE DUP4 MLOAD SWAP4 PUSH1 0x0 PUSH2 0xFA7 PUSH1 0x20 DUP8 PUSH2 0x13EC JUMP JUMPDEST DUP6 MSTORE PUSH1 0x0 DUP1 JUMPDEST DUP2 DUP2 LT PUSH2 0x129F JUMPI POP POP DUP1 MLOAD PUSH2 0xFC1 DUP2 PUSH2 0x13D1 JUMP JUMPDEST DUP5 DUP2 MSTORE PUSH1 0x20 SWAP4 DUP3 MLOAD PUSH2 0xFD3 DUP7 DUP3 PUSH2 0x13EC JUMP JUMPDEST PUSH1 0x0 DUP2 MSTORE DUP6 DUP4 ADD SWAP1 DUP2 MSTORE DUP4 DUP4 ADD SWAP2 DUP3 MSTORE PUSH1 0x60 DUP4 ADD SWAP8 DUP9 MSTORE DUP7 PUSH1 0x0 MSTORE PUSH1 0x3 DUP7 MSTORE DUP4 PUSH1 0x0 KECCAK256 SWAP3 MLOAD DUP4 SSTORE PUSH1 0x1 DUP4 ADD SWAP1 MLOAD DUP1 MLOAD SWAP1 PUSH1 0x1 PUSH1 0x1 PUSH1 0x40 SHL SUB DUP3 GT PUSH2 0x3CD JUMPI PUSH2 0x101B DUP4 SLOAD PUSH2 0x14F3 JUMP JUMPDEST PUSH1 0x1F DUP2 GT PUSH2 0x126F JUMPI JUMPDEST POP DUP8 SWAP1 PUSH1 0x1F DUP4 GT PUSH1 0x1 EQ PUSH2 0x1208 JUMPI PUSH2 0x1054 SWAP3 SWAP2 PUSH1 0x0 SWAP2 DUP4 PUSH2 0xC1B JUMPI POP POP DUP2 PUSH1 0x1 SHL SWAP2 PUSH1 0x0 NOT SWAP1 PUSH1 0x3 SHL SHR NOT AND OR SWAP1 JUMP JUMPDEST SWAP1 SSTORE JUMPDEST MLOAD DUP1 MLOAD SWAP1 PUSH1 0x2 DUP4 ADD SWAP1 PUSH1 0x1 PUSH1 0x1 PUSH1 0x40 SHL SUB DUP4 GT PUSH2 0x3CD JUMPI PUSH1 0x1 PUSH1 0x40 SHL DUP4 GT PUSH2 0x3CD JUMPI DUP7 SWAP1 DUP3 SLOAD DUP5 DUP5 SSTORE DUP1 DUP6 LT PUSH2 0x11EB JUMPI JUMPDEST POP ADD SWAP1 PUSH1 0x0 MSTORE DUP6 PUSH1 0x0 KECCAK256 PUSH1 0x0 JUMPDEST DUP4 DUP2 LT PUSH2 0x11D0 JUMPI POP POP POP POP PUSH1 0x3 ADD SWAP5 MLOAD DUP1 MLOAD SWAP1 PUSH1 0x1 PUSH1 0x40 SHL DUP3 GT PUSH2 0x3CD JUMPI DUP5 SWAP1 DUP8 SLOAD DUP4 DUP10 SSTORE DUP1 DUP5 LT PUSH2 0x114B JUMPI JUMPDEST POP ADD SWAP6 PUSH1 0x0 MSTORE DUP4 PUSH1 0x0 KECCAK256 SWAP6 PUSH1 0x0 SWAP1 JUMPDEST DUP3 DUP3 LT PUSH2 0x112E JUMPI DUP7 PUSH32 0x9E1FF75184927294C932317CC152FB871DEB7F4A2F4169D44CAA04F2905AF813 PUSH1 0xC0 DUP9 DUP9 DUP9 PUSH1 0xA0 DUP2 MLOAD SWAP4 PUSH1 0x60 DUP6 MSTORE PUSH1 0x6 PUSH1 0x60 DUP7 ADD MSTORE PUSH6 0x1DD85B1B195D PUSH1 0xD2 SHL PUSH1 0x80 DUP7 ADD MSTORE DUP5 ADD MSTORE PUSH1 0x0 PUSH1 0xA0 DUP5 ADD MSTORE DUP3 ADD MSTORE LOG2 STOP JUMPDEST PUSH1 0x4 DUP7 DUP3 PUSH2 0x113F PUSH1 0x1 SWAP5 MLOAD DUP13 PUSH2 0x1692 JUMP JUMPDEST ADD SWAP9 ADD SWAP2 ADD SWAP1 SWAP7 PUSH2 0x10D1 JUMP JUMPDEST SWAP1 SWAP2 POP PUSH1 0x1 PUSH1 0x1 PUSH1 0xFE SHL SUB DUP2 AND DUP2 SUB PUSH2 0xBCD JUMPI PUSH1 0x1 PUSH1 0x1 PUSH1 0xFE SHL SUB DUP4 AND DUP4 SUB PUSH2 0xBCD JUMPI SWAP1 DUP6 SWAP2 DUP9 PUSH1 0x0 MSTORE DUP3 PUSH1 0x0 KECCAK256 SWAP1 PUSH1 0x2 SHL DUP2 ADD SWAP1 DUP5 PUSH1 0x2 SHL ADD JUMPDEST DUP2 DUP2 LT PUSH2 0x1193 JUMPI POP PUSH2 0x10C2 JUMP JUMPDEST PUSH1 0x4 SWAP2 SWAP3 SWAP4 POP PUSH2 0x11A2 DUP2 PUSH2 0x1643 JUMP JUMPDEST PUSH2 0x11AE PUSH1 0x1 DUP3 ADD PUSH2 0x1643 JUMP JUMPDEST PUSH2 0x11BA PUSH1 0x2 DUP3 ADD PUSH2 0x1643 JUMP JUMPDEST PUSH2 0x11C6 PUSH1 0x3 DUP3 ADD PUSH2 0x1643 JUMP JUMPDEST ADD SWAP1 DUP7 SWAP3 SWAP2 PUSH2 0x1186 JUMP JUMPDEST DUP3 MLOAD PUSH1 0x1 PUSH1 0x1 PUSH1 0xA0 SHL SUB AND DUP3 DUP3 ADD SSTORE SWAP2 DUP8 ADD SWAP2 PUSH1 0x1 ADD PUSH2 0x1095 JUMP JUMPDEST PUSH2 0x1202 SWAP1 DUP5 PUSH1 0x0 MSTORE DUP6 DUP5 PUSH1 0x0 KECCAK256 SWAP2 DUP3 ADD SWAP2 ADD PUSH2 0x162C JUMP JUMPDEST DUP11 PUSH2 0x1088 JUMP JUMPDEST SWAP1 PUSH1 0x1F NOT DUP4 AND SWAP2 DUP5 PUSH1 0x0 MSTORE DUP10 PUSH1 0x0 KECCAK256 SWAP3 PUSH1 0x0 JUMPDEST DUP12 DUP3 DUP3 LT PUSH2 0x1259 JUMPI POP POP SWAP1 DUP5 PUSH1 0x1 SWAP6 SWAP5 SWAP4 SWAP3 LT PUSH2 0x1240 JUMPI JUMPDEST POP POP POP DUP2 SHL ADD SWAP1 SSTORE PUSH2 0x1057 JUMP JUMPDEST ADD MLOAD PUSH1 0x0 NOT PUSH1 0xF8 DUP5 PUSH1 0x3 SHL AND SHR NOT AND SWAP1 SSTORE DUP11 DUP1 DUP1 PUSH2 0x1233 JUMP JUMPDEST PUSH1 0x1 DUP6 SWAP7 DUP3 SWAP4 SWAP7 DUP7 ADD MLOAD DUP2 SSTORE ADD SWAP6 ADD SWAP4 ADD PUSH2 0x121B JUMP JUMPDEST PUSH2 0x1299 SWAP1 DUP5 PUSH1 0x0 MSTORE DUP10 PUSH1 0x0 KECCAK256 PUSH1 0x1F DUP6 ADD PUSH1 0x5 SHR DUP2 ADD SWAP2 DUP12 DUP7 LT PUSH2 0xCBE JUMPI PUSH1 0x1F ADD PUSH1 0x5 SHR ADD SWAP1 PUSH2 0x162C JUMP JUMPDEST DUP11 PUSH2 0x1024 JUMP JUMPDEST PUSH1 0x20 SWAP1 DUP4 MLOAD PUSH2 0x12AD DUP2 PUSH2 0x13D1 JUMP JUMPDEST PUSH1 0x60 DUP2 MSTORE PUSH1 0x60 DUP4 DUP3 ADD MSTORE PUSH1 0x60 DUP6 DUP3 ADD MSTORE PUSH1 0x60 DUP1 DUP3 ADD MSTORE DUP3 DUP3 DUP11 ADD ADD MSTORE ADD PUSH2 0xFAD JUMP JUMPDEST PUSH1 0x40 MLOAD PUSH3 0x461BCD PUSH1 0xE5 SHL DUP2 MSTORE PUSH1 0x20 PUSH1 0x4 DUP3 ADD MSTORE PUSH1 0xD PUSH1 0x24 DUP3 ADD MSTORE PUSH13 0x57616C6C657420657869737473 PUSH1 0x98 SHL PUSH1 0x44 DUP3 ADD MSTORE PUSH1 0x64 SWAP1 REVERT JUMPDEST CALLVALUE PUSH2 0xF5 JUMPI PUSH1 0x40 CALLDATASIZE PUSH1 0x3 NOT ADD SLT PUSH2 0xF5 JUMPI PUSH1 0x4 CALLDATALOAD PUSH1 0x1 PUSH1 0x1 PUSH1 0x40 SHL SUB DUP2 GT PUSH2 0xF5 JUMPI PUSH2 0x1334 SWAP1 CALLDATASIZE SWAP1 PUSH1 0x4 ADD PUSH2 0x140D JUMP JUMPDEST PUSH1 0x24 CALLDATALOAD PUSH1 0x1 PUSH1 0x1 PUSH1 0x40 SHL SUB DUP2 GT PUSH2 0xF5 JUMPI PUSH2 0x136A PUSH2 0x1359 PUSH2 0x430 SWAP3 CALLDATASIZE SWAP1 PUSH1 0x4 ADD PUSH2 0x140D JUMP JUMPDEST PUSH1 0x40 MLOAD SWAP3 DUP4 SWAP2 PUSH1 0x20 DUP4 ADD SWAP6 DUP7 PUSH2 0x15D1 JUMP JUMPDEST MLOAD SWAP1 KECCAK256 PUSH1 0x0 MSTORE PUSH1 0x5 PUSH1 0x20 MSTORE PUSH1 0x40 PUSH1 0x0 KECCAK256 SLOAD DUP1 ISZERO PUSH2 0x138C JUMPI PUSH2 0x64F PUSH1 0x20 SWAP2 PUSH2 0x1AD2 JUMP JUMPDEST PUSH1 0x40 MLOAD PUSH3 0x461BCD PUSH1 0xE5 SHL DUP2 MSTORE PUSH1 0x20 PUSH1 0x4 DUP3 ADD MSTORE PUSH1 0x18 PUSH1 0x24 DUP3 ADD MSTORE PUSH32 0x536F6369616C206163636F756E74206E6F7420666F756E640000000000000000 PUSH1 0x44 DUP3 ADD MSTORE PUSH1 0x64 SWAP1 REVERT JUMPDEST PUSH1 0x80 DUP2 ADD SWAP1 DUP2 LT PUSH1 0x1 PUSH1 0x1 PUSH1 0x40 SHL SUB DUP3 GT OR PUSH2 0x3CD JUMPI PUSH1 0x40 MSTORE JUMP JUMPDEST SWAP1 PUSH1 0x1F DUP1 NOT SWAP2 ADD AND DUP2 ADD SWAP1 DUP2 LT PUSH1 0x1 PUSH1 0x1 PUSH1 0x40 SHL SUB DUP3 GT OR PUSH2 0x3CD JUMPI PUSH1 0x40 MSTORE JUMP JUMPDEST DUP2 PUSH1 0x1F DUP3 ADD SLT ISZERO PUSH2 0xF5 JUMPI DUP1 CALLDATALOAD SWAP1 PUSH1 0x1 PUSH1 0x1 PUSH1 0x40 SHL SUB DUP3 GT PUSH2 0x3CD JUMPI PUSH1 0x40 MLOAD SWAP3 PUSH2 0x1441 PUSH1 0x1F DUP5 ADD PUSH1 0x1F NOT AND PUSH1 0x20 ADD DUP6 PUSH2 0x13EC JUMP JUMPDEST DUP3 DUP5 MSTORE PUSH1 0x20 DUP4 DUP4 ADD ADD GT PUSH2 0xF5 JUMPI DUP2 PUSH1 0x0 SWAP3 PUSH1 0x20 DUP1 SWAP4 ADD DUP4 DUP7 ADD CALLDATACOPY DUP4 ADD ADD MSTORE SWAP1 JUMP JUMPDEST SWAP1 PUSH1 0x20 PUSH1 0x3 NOT DUP4 ADD SLT PUSH2 0xF5 JUMPI PUSH1 0x4 CALLDATALOAD PUSH1 0x1 PUSH1 0x1 PUSH1 0x40 SHL SUB DUP2 GT PUSH2 0xF5 JUMPI DUP3 PUSH1 0x23 DUP3 ADD SLT ISZERO PUSH2 0xF5 JUMPI DUP1 PUSH1 0x4 ADD CALLDATALOAD SWAP3 PUSH1 0x1 PUSH1 0x1 PUSH1 0x40 SHL SUB DUP5 GT PUSH2 0xF5 JUMPI PUSH1 0x24 DUP5 DUP4 ADD ADD GT PUSH2 0xF5 JUMPI PUSH1 0x24 ADD SWAP2 SWAP1 JUMP JUMPDEST SWAP2 SWAP1 DUP3 MLOAD SWAP3 DUP4 DUP3 MSTORE PUSH1 0x0 JUMPDEST DUP5 DUP2 LT PUSH2 0x14DE JUMPI POP POP DUP3 PUSH1 0x0 PUSH1 0x20 DUP1 SWAP5 SWAP6 DUP5 ADD ADD MSTORE PUSH1 0x1F DUP1 NOT SWAP2 ADD AND ADD ADD SWAP1 JUMP JUMPDEST DUP1 PUSH1 0x20 DUP1 SWAP3 DUP5 ADD ADD MLOAD DUP3 DUP3 DUP7 ADD ADD MSTORE ADD PUSH2 0x14BD JUMP JUMPDEST SWAP1 PUSH1 0x1 DUP3 DUP2 SHR SWAP3 AND DUP1 ISZERO PUSH2 0x1523 JUMPI JUMPDEST PUSH1 0x20 DUP4 LT EQ PUSH2 0x150D JUMPI JUMP JUMPDEST PUSH4 0x4E487B71 PUSH1 0xE0 SHL PUSH1 0x0 MSTORE PUSH1 0x22 PUSH1 0x4 MSTORE PUSH1 0x24 PUSH1 0x0 REVERT JUMPDEST SWAP2 PUSH1 0x7F AND SWAP2 PUSH2 0x1502 JUMP JUMPDEST SWAP1 PUSH1 0x40 MLOAD SWAP2 DUP3 PUSH1 0x0 DUP3 SLOAD SWAP3 PUSH2 0x1541 DUP5 PUSH2 0x14F3 JUMP JUMPDEST DUP1 DUP5 MSTORE SWAP4 PUSH1 0x1 DUP2 AND SWAP1 DUP2 ISZERO PUSH2 0x15AF JUMPI POP PUSH1 0x1 EQ PUSH2 0x1568 JUMPI JUMPDEST POP PUSH2 0x1566 SWAP3 POP SUB DUP4 PUSH2 0x13EC JUMP JUMPDEST JUMP JUMPDEST SWAP1 POP PUSH1 0x0 SWAP3 SWAP2 SWAP3 MSTORE PUSH1 0x20 PUSH1 0x0 KECCAK256 SWAP1 PUSH1 0x0 SWAP2 JUMPDEST DUP2 DUP4 LT PUSH2 0x1593 JUMPI POP POP SWAP1 PUSH1 0x20 PUSH2 0x1566 SWAP3 DUP3 ADD ADD CODESIZE PUSH2 0x1559 JUMP JUMPDEST PUSH1 0x20 SWAP2 SWAP4 POP DUP1 PUSH1 0x1 SWAP2 SLOAD DUP4 DUP6 DUP10 ADD ADD MSTORE ADD SWAP2 ADD SWAP1 SWAP2 DUP5 SWAP3 PUSH2 0x157A JUMP JUMPDEST SWAP1 POP PUSH1 0x20 SWAP3 POP PUSH2 0x1566 SWAP5 SWAP2 POP PUSH1 0xFF NOT AND DUP3 DUP5 ADD MSTORE ISZERO ISZERO PUSH1 0x5 SHL DUP3 ADD ADD CODESIZE PUSH2 0x1559 JUMP JUMPDEST SWAP1 SWAP2 PUSH2 0x15E8 PUSH2 0x15F6 SWAP4 PUSH1 0x40 DUP5 MSTORE PUSH1 0x40 DUP5 ADD SWAP1 PUSH2 0x14B2 JUMP JUMPDEST SWAP2 PUSH1 0x20 DUP2 DUP5 SUB SWAP2 ADD MSTORE PUSH2 0x14B2 JUMP JUMPDEST SWAP1 JUMP JUMPDEST PUSH1 0x0 NOT DUP2 EQ PUSH2 0xBCD JUMPI PUSH1 0x1 ADD SWAP1 JUMP JUMPDEST PUSH1 0x1 PUSH1 0x1 PUSH1 0x40 SHL SUB DUP2 GT PUSH2 0x3CD JUMPI PUSH1 0x5 SHL PUSH1 0x20 ADD SWAP1 JUMP JUMPDEST DUP1 MLOAD ISZERO PUSH2 0x54A JUMPI PUSH1 0x20 ADD SWAP1 JUMP JUMPDEST DUP2 DUP2 LT PUSH2 0x1637 JUMPI POP POP JUMP JUMPDEST PUSH1 0x0 DUP2 SSTORE PUSH1 0x1 ADD PUSH2 0x162C JUMP JUMPDEST PUSH2 0x164D DUP2 SLOAD PUSH2 0x14F3 JUMP JUMPDEST SWAP1 DUP2 PUSH2 0x1657 JUMPI POP POP JUMP JUMPDEST DUP2 PUSH1 0x1F PUSH1 0x0 SWAP4 GT PUSH1 0x1 EQ PUSH2 0x1669 JUMPI POP SSTORE JUMP JUMPDEST DUP2 DUP4 MSTORE PUSH1 0x20 DUP4 KECCAK256 PUSH2 0x1685 SWAP2 PUSH1 0x1F ADD PUSH1 0x5 SHR DUP2 ADD SWAP1 PUSH1 0x1 ADD PUSH2 0x162C JUMP JUMPDEST DUP1 DUP3 MSTORE DUP2 PUSH1 0x20 DUP2 KECCAK256 SWAP2 SSTORE SSTORE JUMP JUMPDEST SWAP2 DUP2 MLOAD SWAP3 DUP4 MLOAD PUSH1 0x1 PUSH1 0x1 PUSH1 0x40 SHL SUB DUP2 GT PUSH2 0x3CD JUMPI PUSH2 0x16B0 DUP3 SLOAD PUSH2 0x14F3 JUMP JUMPDEST PUSH1 0x1F DUP2 GT PUSH2 0x1A52 JUMPI JUMPDEST POP PUSH1 0x20 SWAP5 PUSH1 0x1F DUP3 GT PUSH1 0x1 EQ PUSH2 0x19ED JUMPI PUSH2 0x16ED SWAP3 SWAP4 SWAP5 SWAP6 DUP3 SWAP2 PUSH1 0x0 SWAP3 PUSH2 0x1817 JUMPI POP POP DUP2 PUSH1 0x1 SHL SWAP2 PUSH1 0x0 NOT SWAP1 PUSH1 0x3 SHL SHR NOT AND OR SWAP1 JUMP JUMPDEST DUP2 SSTORE JUMPDEST PUSH1 0x1 DUP2 ADD PUSH1 0x20 DUP5 ADD MLOAD DUP1 MLOAD SWAP1 PUSH1 0x1 PUSH1 0x1 PUSH1 0x40 SHL SUB DUP3 GT PUSH2 0x3CD JUMPI PUSH2 0x1714 DUP4 SLOAD PUSH2 0x14F3 JUMP JUMPDEST PUSH1 0x1F DUP2 GT PUSH2 0x19BB JUMPI JUMPDEST POP PUSH1 0x20 SWAP1 PUSH1 0x1F DUP4 GT PUSH1 0x1 EQ PUSH2 0x1954 JUMPI PUSH2 0x174E SWAP3 SWAP2 PUSH1 0x0 SWAP2 DUP4 PUSH2 0x1817 JUMPI POP POP DUP2 PUSH1 0x1 SHL SWAP2 PUSH1 0x0 NOT SWAP1 PUSH1 0x3 SHL SHR NOT AND OR SWAP1 JUMP JUMPDEST SWAP1 SSTORE JUMPDEST PUSH1 0x2 DUP2 ADD PUSH1 0x40 DUP5 ADD MLOAD DUP1 MLOAD SWAP1 PUSH1 0x1 PUSH1 0x1 PUSH1 0x40 SHL SUB DUP3 GT PUSH2 0x3CD JUMPI PUSH2 0x1775 DUP4 SLOAD PUSH2 0x14F3 JUMP JUMPDEST PUSH1 0x1F DUP2 GT PUSH2 0x1922 JUMPI JUMPDEST POP PUSH1 0x20 SWAP1 PUSH1 0x1F DUP4 GT PUSH1 0x1 EQ PUSH2 0x18B6 JUMPI DUP3 PUSH1 0x60 SWAP6 SWAP4 PUSH1 0x3 SWAP6 SWAP4 PUSH2 0x17B6 SWAP4 PUSH1 0x0 SWAP3 PUSH2 0x1817 JUMPI POP POP DUP2 PUSH1 0x1 SHL SWAP2 PUSH1 0x0 NOT SWAP1 PUSH1 0x3 SHL SHR NOT AND OR SWAP1 JUMP JUMPDEST SWAP1 SSTORE JUMPDEST ADD SWAP3 ADD MLOAD SWAP2 DUP3 MLOAD PUSH1 0x1 PUSH1 0x1 PUSH1 0x40 SHL SUB DUP2 GT PUSH2 0x3CD JUMPI PUSH2 0x17D8 DUP3 SLOAD PUSH2 0x14F3 JUMP JUMPDEST PUSH1 0x1F DUP2 GT PUSH2 0x1884 JUMPI JUMPDEST POP PUSH1 0x20 PUSH1 0x1F DUP3 GT PUSH1 0x1 EQ PUSH2 0x1822 JUMPI DUP2 SWAP1 PUSH2 0x1813 SWAP4 SWAP5 SWAP6 PUSH1 0x0 SWAP3 PUSH2 0x1817 JUMPI POP POP DUP2 PUSH1 0x1 SHL SWAP2 PUSH1 0x0 NOT SWAP1 PUSH1 0x3 SHL SHR NOT AND OR SWAP1 JUMP JUMPDEST SWAP1 SSTORE JUMP JUMPDEST ADD MLOAD SWAP1 POP CODESIZE DUP1 PUSH2 0xA3A JUMP JUMPDEST PUSH1 0x1F NOT DUP3 AND SWAP1 DUP4 PUSH1 0x0 MSTORE DUP1 PUSH1 0x0 KECCAK256 SWAP2 PUSH1 0x0 JUMPDEST DUP2 DUP2 LT PUSH2 0x186C JUMPI POP SWAP6 DUP4 PUSH1 0x1 SWAP6 SWAP7 SWAP8 LT PUSH2 0x1853 JUMPI JUMPDEST POP POP POP DUP2 SHL ADD SWAP1 SSTORE JUMP JUMPDEST ADD MLOAD PUSH1 0x0 NOT PUSH1 0xF8 DUP5 PUSH1 0x3 SHL AND SHR NOT AND SWAP1 SSTORE CODESIZE DUP1 DUP1 PUSH2 0x1849 JUMP JUMPDEST SWAP2 SWAP3 PUSH1 0x20 PUSH1 0x1 DUP2 SWAP3 DUP7 DUP12 ADD MLOAD DUP2 SSTORE ADD SWAP5 ADD SWAP3 ADD PUSH2 0x1834 JUMP JUMPDEST PUSH2 0x18B0 SWAP1 DUP4 PUSH1 0x0 MSTORE PUSH1 0x20 PUSH1 0x0 KECCAK256 PUSH1 0x1F DUP5 ADD PUSH1 0x5 SHR DUP2 ADD SWAP2 PUSH1 0x20 DUP6 LT PUSH2 0xCBE JUMPI PUSH1 0x1F ADD PUSH1 0x5 SHR ADD SWAP1 PUSH2 0x162C JUMP JUMPDEST CODESIZE PUSH2 0x17E1 JUMP JUMPDEST SWAP1 PUSH1 0x1F NOT DUP4 AND SWAP2 DUP5 PUSH1 0x0 MSTORE DUP2 PUSH1 0x0 KECCAK256 SWAP3 PUSH1 0x0 JUMPDEST DUP2 DUP2 LT PUSH2 0x190A JUMPI POP SWAP3 PUSH1 0x1 SWAP3 DUP6 SWAP3 PUSH1 0x60 SWAP9 SWAP7 PUSH1 0x3 SWAP9 SWAP7 LT PUSH2 0x18F2 JUMPI JUMPDEST POP POP POP DUP2 SHL ADD SWAP1 SSTORE PUSH2 0x17B9 JUMP JUMPDEST ADD MLOAD PUSH1 0x0 NOT DUP4 DUP9 SHL PUSH1 0xF8 AND SHR NOT AND SWAP1 SSTORE CODESIZE DUP1 DUP1 PUSH2 0x18E5 JUMP JUMPDEST SWAP3 SWAP4 PUSH1 0x20 PUSH1 0x1 DUP2 SWAP3 DUP8 DUP7 ADD MLOAD DUP2 SSTORE ADD SWAP6 ADD SWAP4 ADD PUSH2 0x18C9 JUMP JUMPDEST PUSH2 0x194E SWAP1 DUP5 PUSH1 0x0 MSTORE PUSH1 0x20 PUSH1 0x0 KECCAK256 PUSH1 0x1F DUP6 ADD PUSH1 0x5 SHR DUP2 ADD SWAP2 PUSH1 0x20 DUP7 LT PUSH2 0xCBE JUMPI PUSH1 0x1F ADD PUSH1 0x5 SHR ADD SWAP1 PUSH2 0x162C JUMP JUMPDEST CODESIZE PUSH2 0x177E JUMP JUMPDEST SWAP1 PUSH1 0x1F NOT DUP4 AND SWAP2 DUP5 PUSH1 0x0 MSTORE DUP2 PUSH1 0x0 KECCAK256 SWAP3 PUSH1 0x0 JUMPDEST DUP2 DUP2 LT PUSH2 0x19A3 JUMPI POP SWAP1 DUP5 PUSH1 0x1 SWAP6 SWAP5 SWAP4 SWAP3 LT PUSH2 0x198A JUMPI JUMPDEST POP POP POP DUP2 SHL ADD SWAP1 SSTORE PUSH2 0x1751 JUMP JUMPDEST ADD MLOAD PUSH1 0x0 NOT PUSH1 0xF8 DUP5 PUSH1 0x3 SHL AND SHR NOT AND SWAP1 SSTORE CODESIZE DUP1 DUP1 PUSH2 0x197D JUMP JUMPDEST SWAP3 SWAP4 PUSH1 0x20 PUSH1 0x1 DUP2 SWAP3 DUP8 DUP7 ADD MLOAD DUP2 SSTORE ADD SWAP6 ADD SWAP4 ADD PUSH2 0x1967 JUMP JUMPDEST PUSH2 0x19E7 SWAP1 DUP5 PUSH1 0x0 MSTORE PUSH1 0x20 PUSH1 0x0 KECCAK256 PUSH1 0x1F DUP6 ADD PUSH1 0x5 SHR DUP2 ADD SWAP2 PUSH1 0x20 DUP7 LT PUSH2 0xCBE JUMPI PUSH1 0x1F ADD PUSH1 0x5 SHR ADD SWAP1 PUSH2 0x162C JUMP JUMPDEST CODESIZE PUSH2 0x171D JUMP JUMPDEST PUSH1 0x1F NOT DUP3 AND SWAP6 DUP4 PUSH1 0x0 MSTORE DUP1 PUSH1 0x0 KECCAK256 SWAP2 PUSH1 0x0 JUMPDEST DUP9 DUP2 LT PUSH2 0x1A3A JUMPI POP DUP4 PUSH1 0x1 SWAP6 SWAP7 SWAP8 SWAP9 LT PUSH2 0x1A21 JUMPI JUMPDEST POP POP POP DUP2 SHL ADD DUP2 SSTORE PUSH2 0x16F0 JUMP JUMPDEST ADD MLOAD PUSH1 0x0 NOT PUSH1 0xF8 DUP5 PUSH1 0x3 SHL AND SHR NOT AND SWAP1 SSTORE CODESIZE DUP1 DUP1 PUSH2 0x1A14 JUMP JUMPDEST SWAP2 SWAP3 PUSH1 0x20 PUSH1 0x1 DUP2 SWAP3 DUP7 DUP6 ADD MLOAD DUP2 SSTORE ADD SWAP5 ADD SWAP3 ADD PUSH2 0x19FF JUMP JUMPDEST PUSH2 0x1A7E SWAP1 DUP4 PUSH1 0x0 MSTORE PUSH1 0x20 PUSH1 0x0 KECCAK256 PUSH1 0x1F DUP5 ADD PUSH1 0x5 SHR DUP2 ADD SWAP2 PUSH1 0x20 DUP6 LT PUSH2 0xCBE JUMPI PUSH1 0x1F ADD PUSH1 0x5 SHR ADD SWAP1 PUSH2 0x162C JUMP JUMPDEST CODESIZE PUSH2 0x16B9 JUMP JUMPDEST SWAP1 PUSH1 0x40 MLOAD PUSH2 0x1A91 DUP2 PUSH2 0x13D1 JUMP JUMPDEST PUSH1 0x60 PUSH2 0x1ACD PUSH1 0x3 DUP4 SWAP6 PUSH2 0x1AA3 DUP2 PUSH2 0x152D JUMP JUMPDEST DUP6 MSTORE PUSH2 0x1AB1 PUSH1 0x1 DUP3 ADD PUSH2 0x152D JUMP JUMPDEST PUSH1 0x20 DUP7 ADD MSTORE PUSH2 0x1AC2 PUSH1 0x2 DUP3 ADD PUSH2 0x152D JUMP JUMPDEST PUSH1 0x40 DUP7 ADD MSTORE ADD PUSH2 0x152D JUMP JUMPDEST SWAP2 ADD MSTORE JUMP JUMPDEST JUMPDEST DUP1 PUSH1 0x0 MSTORE PUSH1 0x4 PUSH1 0x20 MSTORE PUSH1 0x40 PUSH1 0x0 KECCAK256 SLOAD ISZERO PUSH2 0x15F6 JUMPI PUSH1 0x0 MSTORE PUSH1 0x4 PUSH1 0x20 MSTORE PUSH1 0x40 PUSH1 0x0 KECCAK256 SLOAD PUSH2 0x1AD3 JUMP JUMPDEST SWAP2 SWAP1 DUP2 LT ISZERO PUSH2 0x54A JUMPI PUSH1 0x5 SHL ADD SWAP1 JUMP JUMPDEST PUSH1 0x0 SLOAD PUSH1 0x1 PUSH1 0x1 PUSH1 0xA0 SHL SUB AND CALLER SUB PUSH2 0xDAB JUMPI JUMP JUMPDEST DUP1 SLOAD DUP3 LT ISZERO PUSH2 0x54A JUMPI PUSH1 0x0 MSTORE PUSH1 0x20 PUSH1 0x0 KECCAK256 ADD SWAP1 PUSH1 0x0 SWAP1 JUMP JUMPDEST DUP1 SLOAD DUP3 LT ISZERO PUSH2 0x54A JUMPI PUSH1 0x0 MSTORE PUSH1 0x20 PUSH1 0x0 KECCAK256 SWAP1 PUSH1 0x2 SHL ADD SWAP1 PUSH1 0x0 SWAP1 JUMP INVALID LOG2 PUSH5 0x6970667358 0x22 SLT KECCAK256 0xE3 MSTORE EXTCODECOPY PUSH29 0x75FCE7AFE059F1CED8430D312465B2A39325E640D8AFFC2875BC958664 PUSH20 0x6F6C634300081C00330000000000000000000000 "},"methodIdentifiers":{"acceptOwnership()":"79ba5097","findRoot(uint256)":"ae10273d","getFullAccount(uint256)":"8e0d1abc","getUserIdBySocial(string,string)":"024c84fa","getUserIdByWallet(address)":"3b529df4","identities(uint256)":"eaaf77e6","identityGraph(uint256)":"cc7517d0","link(uint256[])":"d75bb74c","owner()":"8da5cb5b","pendingOwner()":"e30c3978","register(bytes)":"82fbdc9c","registerAddress(bytes)":"0c4ceac7","renounceOwnership()":"715018a6","socialToIdentity(bytes32)":"2056e731","totalIdentities()":"f5c5987b","transferOwnership(address)":"f2fde38b","walletToIdentity(address)":"231a6159"}}}}}